:020000040000FA
:10000000F0FE0220850400006B0C00006B0C000069
:100010006B0C00006B0C00006B0C0000000000007B
:10002000000000000000000000000000FB0A0000CB
:100030006B0C000000000000890B00006B0C00003E
:100040006B0C00006B0C00006B0C00006B0C0000D4
:100050006B0C00006B0C00006B0C00006B0C0000C4
:100060006B0C00006B0C00006B0C00006B0C0000B4
:100070006B0C00006B0C00006B0C00006B0C0000A4
:10040000FFFFFFFFFFFFFFFFFFFFFFFFFEFFFFFFFD
:1004100000F002F800F06CF80AA090E8000C8244AA
:100420008344AAF10107DA4501D100F061F8AFF287
:10043000090EBAE80F0013F0010F18BFFB1A43F0C2
:1004400001031847509F0100A09F0100103A24BFEC
:1004500078C878C1FAD8520724BF30C830C144BF29
:1004600004680C607047000000230024002500266B
:10047000103A28BF78C1FBD8520728BF30C148BF07
:100480000B607047124813494FF0FF324FF00803DA
:1004900033B140F8042B41F8042BA3F10103F7E733
:1004A000EFF3088080F30988EFF3148040F0020036
:1004B00080F31488BFF36F8FDFF81C00016841F4EC
:1004C0007001016005484FF00001016018F0A6BD01
:1004D00080E100E080E200E088ED00E034EF00E041
:1004E0001FB519F051FBAFF300801FBD10B510BD53
:1004F00000F00EF81146FFF7F3FF17F08BFC00F049
:10050000D4FA03B4FFF7F2FF03BC00F0D7FA0000FF
:100510004FF000004FF000027047000080F3118898
:10052000704753EA020C00F069802DE9F04B4FF060
:100530000006002B1FBFB3FA83F503FA05F424FA73
:1005400005F65E4012BF1643B2FA82F502FA05F4D0
:10055000C5F120051EBF22FA05FC44EA0C04203533
:1005600056EA044C4FEA144418BF641C4FF00008CC
:100570004FF00009904271EB030C39D3002919BFE9
:10058000B1FA81F701FA07F6B0FA80F700FA07F638
:10059000C7F120071EBF20FA07FC46EA0C062037E9
:1005A000B6FBF4FCA7EB0507103F07F01F0BCBF1E0
:1005B00020060CFA0BFB2CFA06F644BFB3460026C5
:1005C000202FA4BF5E464FF0000B5BEA060C08BF6D
:1005D0004FF0010B19EB0B09ABFB027C48EB060853
:1005E000C01B06FB02CC0BFB03CC71EB0C01C1E77B
:1005F0000B46024641464846BDE8F08B13B54FF026
:1006000000004FF00001AFF30080BDE81C407047D0
:1006100010B54C1084EA530404D54042C1F10001E6
:1006200038BF491E1B4204D55242C3F1000338BFF4
:100630005B1EFFF776FF14F0804F04D04042C1F1FB
:10064000000138BF491E14F0004F04D05242C3F1DC
:10065000000338BF5B1E10BD40EA010310B59B07C5
:100660000FD1042A0DD310C808C9121F9C42F8D01C
:1006700020BA19BA884201D9012010BD4FF0FF30CD
:1006800010BD1AB1D30703D0521C07E0002010BDE3
:1006900010F8013B11F8014B1B1B07D110F8013B6F
:1006A00011F8014B1B1B01D1921EF1D1184610BD50
:1006B00010B5431C02E010F8011B71B18107FAD19B
:1006C0004FF0013202C88C1A8C4314EAC211F9D0DF
:1006D000C01A0A0603D0C01E10BDC01A10BD0A04FD
:1006E00001D0801E10BD0902FCD0401E10BD40EAA2
:1006F000010370B59B072ED14FF00136042A2AD38F
:1007000008C810C99D1B9D43121F15EAC61517D0B6
:10071000D8B2E1B2401A50EA056110D198B2A1B244
:10072000401A50EA05410AD123F07F4024F07F416E
:10073000401A50EA052102D1180EA0EB146070BDDA
:10074000A342DBD018BA21BA884201D9012070BD7A
:100750004FF0FF3070BD0AB9002070BD10F8013BAA
:1007600011F8014B63B1A3420AD1521E08D010F810
:10077000013B11F8014B1BB1A34201D1521EEDD137
:10078000181B70BD01B500F051F801BD01B500F0B6
:1007900092F801BD01F0FF03114601B543EA0322BF
:1007A00042EA024200F0CBF801BD00004FF0013CEC
:1007B00050F8042B51F8043B9A4221D1A2EB0C03D0
:1007C000934313EACC1317D150F8042B51F8043B90
:1007D0009A4215D1A2EB0C03934313EACC130BD12D
:1007E00050F8042B51F8043B9A4209D1A2EB0C03B8
:1007F000934313EACC13DBD04FF00000704700BFE7
:10080000D01A01BAB1FA81F101F0180122FA01F00F
:10081000CB40C1F12001DBB2C0B2C01A2CFA01F307
:10082000D11A914311EAC311E6D17047032A40F26D
:10083000308010F0030C00F0158011F8013BBCF182
:10084000020F624498BF11F801CB00F8013B38BF9A
:1008500011F8013BA2F1040298BF00F801CB38BFA8
:1008600000F8013B11F0030300F08980083AC0F062
:10087000088051F8043B083A51F804CBA0E808106E
:10088000F5E7121D5CBF51F8043B40F8043BAFF3A1
:100890000080D20724BF11F8013B11F801CB48BFFB
:1008A00011F8012B24BF00F8013B00F801CB48BF31
:1008B00000F8012B7047431A28BF9A427FF6B6AF63
:1008C000032A1044114440F2268010F0030F1EBF8B
:1008D00011F8013D521E00F8013D10F0030F7FF4A6
:1008E000F6AF11F0030300F08F80083AC0F00B80E0
:1008F00051F8043D083A51F804CD40F8043D40F861
:1009000004CDFFF7F3BF121D5CBF51F8043D40F862
:10091000043DAFF30080D20724BF11F8013D11F868
:1009200001CD48BF11F8012C24BF00F8013D00F8AB
:1009300001CD48BF00F8012C70474FF00002042998
:10094000C0F0128010F0030C00F08A80CCF1040C8F
:10095000BCF1020F18BF00F8012BA8BF20F8022B32
:10096000A1EB0C0100F07CB85FEAC17C24BF00F869
:10097000012B00F8012B48BF00F8012B704710B580
:10098000203AC0F00B80B1E81850203AA0E8185087
:10099000B1E81850A0E81850BFF4F5AF5FEA027C48
:1009A00024BFB1E81850A0E8185044BF18C918C0B7
:1009B000BDE810405FEA827C24BF51F8043B40F858
:1009C000043B08BF7047D20728BF31F8023B48BF3D
:1009D00011F8012B28BF20F8023B48BF00F8012B7B
:1009E0007047431A28BF9A427FF6C9AF104410F0EF
:1009F000030F11441EBF11F8013D521E00F8013DC6
:100A000010F0030F7FF4F6AF103AC0F00A8010B573
:100A100031E91850103A20E91850BFF4F9AFBDE899
:100A20001040530724BF31E9081020E9081044BFE3
:100A300051F8043D40F8043D12F0030F08BF704721
:100A4000D20728BF31F8023D48BF11F8012C28BF5A
:100A500020F8023D48BF00F8012C70474FF000021B
:100A600000B5134694469646203922BFA0E80C50A4
:100A7000A0E80C50B1F12001BFF4F7AF090728BF7F
:100A8000A0E80C5048BF0CC05DF804EB890028BFFB
:100A900040F8042B08BF704748BF20F8022B11F024
:100AA000804F18BF00F8012B704710B50446AFF314
:100AB00000802046BDE81040FFF723BD0149182003
:100AC000ABBEFEE7260002007047000001DF704762
:100AD00001DFFEE7C348006872B6018B31B9416A95
:100AE000C269D369994201D062B603DF62B670472A
:100AF00003DF7047FEE702DF704772B61EF0040F97
:100B00000CBFEFF30881EFF30981896911F8021C2A
:100B1000032905D100B500F027F85DF804EB21E0CA
:100B2000012902D1AF48006855E002291AD1AD4829
:100B30000068C1698A6842F001028A6000B502B4A7
:100B4000016C11F0010F04D000B510F029F85DF828
:100B500004EB02BC4A680B6813605A6000F004F8AA
:100B60005DF804EB62B6704707B59F48416811F025
:100B7000805F08D1EFF31182A2F1100280F82220E9
:100B80004FF08051416007BD72B696480068EFF3A0
:100B9000098C96498A78EFF311832CE9FC4FC369DD
:100BA000C3F814C0996A11F0020F14D0D3F834C0FE
:100BB0008F4A52F8041B4CF8041B52F8041B4CF8E3
:100BC000041B52F8041B4CF8041BF1EE101A4CF8ED
:100BD000081B8CEC200A72B6416A0A688A4203D16B
:100BE00089680900F9D1FEE74162C261938C4383B1
:100BF000916A11F0020F18D0836C9A4215D082646A
:100C0000D2F834C07A4C5CF8043B44F8043B5CF8FE
:100C1000043B44F8043B5CF8043B44F8043B5CF8B8
:100C2000083BE1EE103ABCEC200AD2F814C0BCE854
:100C3000FC4F83F311888CF3098802B4016C11F026
:100C4000010F04D000B50FF0CDFF5DF804EB02BC3E
:100C500002B400B512F050FF5DF804EB02BC62482C
:100C60004FF00061416062B6704772B600B55D4BEF
:100C70001B68198B01F1010119834FF0000001B4C9
:100C8000EFF31182EFF30581586B07B4EFF308809F
:100C900058630846196C11F0010F03D00FB40FF020
:100CA000E7FF0FBC1A6B02B939E0904237D8DA6A15
:100CB000811A34DB9A6B4FEAD1014FEA8101515816
:100CC00001B92CE00A6822B1824203D009690942C5
:100CD000F8D124E0C8684A6808B462B6904772B692
:100CE00008BC196C11F0010F05D0EFF305800FB4AB
:100CF0000FF0A0FF0FBC07BC586301BC198B491E45
:100D00001983DA69906A10F4805F0AD129B9596AA7
:100D10000968914218BFFFF727FF62B600BD9A6AC3
:100D2000DAE740F40030906262B600BD72B6F1B40A
:100D30002C4B1B68D3F834C00CF1100C5CF804EB9E
:100D40002C4820F00100CCF818009CE8FF005DF86A
:100D500004CBACF1040C27F400772CE9FF00F0BCC5
:100D60008CF3088862B670471E480068C369996AA8
:100D7000D3F834C01E4A52F8041B4CF8041B52F836
:100D8000041B4CF8041B52F8041B4CF8041BF1EE36
:100D9000101A4CF8081B8CEC200A70474FF08002A8
:100DA000D0E84F1F00290CBFC0E8432F01E0002B03
:100DB000F6D108467047EFF309807047EFF30880DB
:100DC000704780F308887047EFF30380704762B67E
:100DD000704772B670477046704778467047EFF3B9
:100DE000148070474800FF1F00ED00E020ED00E098
:100DF00034EF00E0DF0C0000816800224B7E13B16D
:100E00000A760020704701234B768A7601490160FB
:100E10001846704720BF02002DE9F041D0F89850E5
:100E2000074635B300262C6F19E000BF04F13400EB
:100E300006F0E4FB04F1440006F0E0FB04F154008A
:100E400006F0DCFB03E0E661406801688847E06982
:100E50000028F8D16069696F61616C670446002CF5
:100E6000E4D1A86F12F060FA284612F05DFAC7F8D4
:100E700098600020BDE8F081002070472DE9F04126
:100E800084680027E068D0F8986013E0E761F06EAE
:100E9000401CF066E068016A491C0162D5F8440113
:100EA00028B141F2024105F0C6F9C5F844716868FD
:100EB00001688847E569002DE8D104F1340006F0A7
:100EC0009DFB04F1440006F099FB04F1540006F088
:100ED00095FBE0686169D0F8980009B122690A6160
:100EE000216909B162694A61016FA14201D1616959
:100EF0000167416F616144670020BDE8F081D0F86F
:100F00009800006F03E002688A4202D0406900281E
:100F1000F9D170472DE9F04184688046E068D0F847
:100F200098502869401C2861A86D401CA86504F0F1
:100F3000A9FF070010D01C2105F0C8F801000FD050
:100F4000E8693A46401CE86105F1380005F044FCC8
:100F50007868016888473BE06869401C686137E051
:100F6000FE681C2205F184013046FFF70BFC206A65
:100F700007F5AA73000EB073206A000CF073208C82
:100F8000000A307494F8200070742068000E3076E7
:100F90002068000C70762088000AB07614F8240BC4
:100FA000F07607CC83E807000020B0710220F071D2
:100FB00054F8240C3946303C02F0DEF9010007D029
:100FC000E8693A46401CE86105F1380005F004FC88
:100FD000206B47F2305140002063884201D801461F
:100FE00000E021630120C8F80010BDE8F081000096
:100FF0002DE9FF47D0F8986080468A46706F4FF021
:101000000009F0B9376F07F1540006F00DFB0546F3
:10101000346F0AE004F1540006F006FB20B10DB174
:10102000854201D9274605466469002CF2D147B1B3
:10103000CDF80090CDE901976846CDF80C90FFF708
:101040001DFF706FC0B1416971670E49C0F800A003
:10105000C0E90E100C49C0E912100C49C0E9161085
:10106000C0E90389316F4A46416101B108613067C7
:10107000C26104B0BDE8F087306E401C30660020CD
:10108000F7E70000B9120000F90D00007D0E000026
:1010900010B5FFF734FF002800D0007E10BD70B5FA
:1010A0000546A02005F094FA04004FF4A05644D061
:1010B00041F2020112F054FA4FF47A7005F088FA06
:1010C000A067C8B341F2030112F04AFAA06F0021F1
:1010D000626F426160676430491C0A29F8DB04F1E1
:1010E0007C01A86F00F08DFE04F1840000210170E6
:1010F0000122427008238370C17006230371042308
:1011000043718171C27194F87C20027294F87D2041
:10111000427294F87E20827294F87F20C27294F812
:101120008020027394F881204273C0F81210C182AB
:101130000020C5F8984070BD01E03046FBE720462E
:1011400012F0F2F8F9E72DE9F0410F469046054616
:101150001146D0F89860FFF7D2FE040010D1B06EAF
:101160004146401CB0662846FFF742FF040010D0FD
:101170000020C4E90707207604F1340000F09CF851
:10118000474503D104F13400FFF7C4FE0020BDE859
:10119000F081E869401CE86141F20210F7E70000C5
:1011A0002DE9FF4F81B00E4690460746D0F8985083
:1011B0000499FFF7A4FEDFF8FCB004004FF000092B
:1011C00041F2883A07D0207EA0B3607E002865D027
:1011D000A07E80B362E038460499FFF709FF04005F
:1011E0001ED0C4E9076806F5AA7604F1240396E840
:1011F000070083E8070084F81890C4F854B0C4E9E5
:101200000CA904F1340006F0E1F904F1540006F0F1
:10121000DDF9A86E401CA86605B00020BDE8F08F7F
:10122000F869401CF861E86E401CE8667068016867
:101230008847EEE700E016E0E06950B1C4F81C9082
:10124000E96E491CE966396A491C396240680168DF
:101250008847C4E9076806F5AA76243496E80700AB
:1012600084E80700D5E70120A07604F1540000903F
:1012700006F0C4F906F5AA70C4F8208007C804F186
:101280002403C4F854B0C4F8349083E8070404F18C
:10129000340006F09BF9009806F098F9686E314624
:1012A000401C686605B0221D3846BDE8F04F02F0CC
:1012B000C4B8000020BF02002DE9F04184688046D8
:1012C000E068D0F898502869401C2861A86D401C3F
:1012D000A86504F0D7FD070010D01C2104F0F6FE2D
:1012E00001000FD0E8693A46401CE86105F138007A
:1012F00005F072FA78680168884737E06869401C31
:10130000686133E0FE681C2205F184013046FFF776
:1013100039FA206A07F5AA73000EB073206A000C30
:10132000F073208C000A307494F8200070742068E8
:10133000000E30762068000C70762088000AB076A7
:1013400014F8240BF07607CC83E8070054F8240C3B
:101350003946303C02F010F8010007D0E8693A46FF
:10136000401CE86105F1380005F036FA206B47F2C1
:10137000305140002063884201D8014600E02163DB
:101380000120C8F80010BDE8F08100002DE9F04F01
:10139000814685B0D0F834010290D0F89850286882
:1013A000401C2860D9F80C40E08890FA90FA208818
:1013B00040BA012810D1608840BAB0F5006F0BD157
:1013C0002079062808D16079042805D1BAF1010FE7
:1013D00006D0BAF1020F03D0A868401CA8608AE0CA
:1013E000207A8DF80000607A8DF80100A07A8DF8DF
:1013F0000200E07A8DF80300207B8DF80400607B0A
:101400008DF80500D4F80E00617C00BA20F0FF00D2
:1014100040EA0108A069414600BA20F0FF07E07EDB
:1014200007430298FFF76BFD06004FF0000B2DD02D
:1014300006F1340006F0E2F806F14400049006F0EC
:10144000DDF806F15400039006F0D8F800987060BB
:10145000BDF8040030810120307686F819B086F896
:101460001AB05348706453487065049806F0AEF89B
:10147000039806F0ABF805E0C6F81CB06A4602987F
:1014800001F0DBFFF1690029F6D101263946029807
:1014900002F078FD28B939460298FFF7EDFC0028E4
:1014A0009AD016BB41460298FFF7A2FD060019D05C
:1014B00000987060BDF8040030810120307686F815
:1014C00019B086F81AB03A4870643A48706506F167
:1014D000440006F07BF806F1540006F077F8C6F8F1
:1014E0001CB002E06868401C6860BAF1010F09D0C6
:1014F000686D401C6865D9F804000168884705B02C
:10150000BDE8F08F286D401C28652869401C2861C3
:10151000E86D401CE86584F806B00220E07195F89B
:101520007C00207295F87D00607295F87E00A072B4
:1015300095F87F00E07295F88000207395F881009F
:101540006073380EA073380CE073380A2074677427
:101550009DF80000A0749DF80100E0749DF8020061
:1015600020759DF8030060759DF80400A0759DF836
:101570000500E0754FEA186020764FEA1840607663
:101580004FEA1820A07684F81B80484604F0F7FC48
:101590006A464946029801F009FF0100AFD0E869A8
:1015A0004A46401CE86105F1380005F015F9A6E748
:1015B00060900F00804F1200064A10B5116800209D
:1015C000491E116005D1044C206809F0E9FA002198
:1015D000216010BD7000FF1F7400FF1F0248002132
:1015E00001604160084670477000FF1F03460248D3
:1015F0004322006809F07CBD7400FF1F1448017885
:1016000011F0C00104D040290CD080291DD110E078
:101610004179490604D40078400716D40320704766
:10162000072070474078800701D4012070470220CE
:1016300070474179490606D44078800701D40420D8
:101640007047052070470620704700207047000053
:1016500000400640224910B50978234CC1EBC10374
:10166000204901EB830211F82310926911F0C00F99
:10167000B2FBF4F292B220D0082A1ED3102A1CD852
:101680001A49002808D0C2EBC20000EB40004FF618
:10169000FF7202EA401005E045F2082002FB00F26A
:1016A0004FEAD2304FEA10228A72C872087A07D104
:1016B00000F0BE0040F0800006E04FF0010010BDD9
:1016C00000F0FE0040F0C0000872087A0006FCD46A
:1016D000087A800601D4002010BD1B2010BD000038
:1016E0008800FF1F549F010040420F000040064049
:1016F0002DE9FC43AF49C0EBC00431F8243013F0AE
:10170000C00F0FD0AC48826B42F400728263AB48CA
:10171000826C22F4E06282641A0603D5C26C22F461
:10172000E062C264A64A107A01EB840500F00E065E
:10173000287A864228D05178C90716D01178C9076F
:10174000517801F0FE01517015D09179C907FCD193
:10175000117A01F0F10101431172507840F001005B
:1017600050709079C007FCD00EE0117A01F0F101C1
:101770000143117208E0117A01F0F1010143117285
:10178000507840F001005070FFF738FF894E8D4CC3
:10179000803E4FF001094FF0000803F00F0100BF39
:1017A00000F00F0006EB001030F81100814208D164
:1017B000D5F803700097B5F80770ADF804706F7A2C
:1017C00010E0DFF8F0C100F00F070CF1540C5CF8EA
:1017D0002770D7F800C0CDF800C0B7F804C0ADF846
:1017E00004C0BF798DF8067000F00F07082F34D2BF
:1017F000DFE807F00404344E4E7E9B9B9DF800709A
:1018000017709779FF06FCD59DF8017092F801C01A
:1018100007F0BF070CF0400C47EA0C0757709DF823
:10182000027092F803C007F0E0070CF01F0C47EAC3
:101830000C07D7709DF806702770DF0501D54F465D
:1018400000E0474682F80C709DF8037017719F0501
:1018500049D400BF9DF80470577184E09DF8007072
:1018600017709779FF06FCD59DF8017092F801C0BA
:1018700007F0BF070CF0400C47EA0C0757709DF8C3
:10188000067027709F066ED59779FF07FCD06AE037
:101890009DF8017092F801C007F0BF070CF0400CF2
:1018A00047EA0C0757709DF806702770DF0501D5D1
:1018B0004F4600E0474617739DF8007017701F06EB
:1018C00002D59779BF07FCD59779FF06FCD49DF820
:1018D000027092F803C007F0E0070CF01F0C47EA13
:1018E0000C07D770B0E7177947F040071771B1E7D9
:1018F0009DF8007017709DF8017092F801C007F014
:10190000BF070CF0400C47EA0C0757709DF80670B3
:101910002770DF0501D54F4600E0474617731F06C5
:1019200021D59779BF07FCD51DE09DF8067027707B
:1019300082F80C809DF8007017709DF8017092F885
:1019400001C007F0BF070CF0400C47EA0C075770C6
:10195000072910D09DF8037017719DF80470577116
:1019600097797F06FCD508281FD2DFE800F0080D24
:101970000D0813131319AF791771EF79EFE7977902
:1019800017F00C0FFBD110E09779C7F38107012FF7
:10199000FAD10AE09779C7F38107022FFAD104E060
:1019A0009779C7F38107032FFAD181427FF4F8AE0C
:1019B000BDE8FC83549F0100008004400090044077
:1019C000004006400050064070B50546022801D987
:1019D000022070BD214CE078042808D100206070FE
:1019E0001F4881784907FCD5E0780428FCD01D4EBB
:1019F0004FF0A270706425B1012D04D0022D05D1E5
:101A00002AE0002000E00120FFF772FE1648C5EB37
:101A1000C50100EB81004169716414490A68C3681B
:101A200022F440221A430A607168026921F44031AD
:101A3000114371600E490D70807881070AD54021ED
:101A40006170400703D5607840F080006070E078F6
:101A50000428FCD1002070BD0220D5E700E007403B
:101A600000D0074000800440549F010000700440F3
:101A70008800FF1F30B500240269D0F80810234603
:101A8000641C01F8013B0D2CFAD344690D39237015
:101A900090F8F04184B1D0F8F441052C0CD0046AE0
:101AA000240E1473046A240C5473048C240A947353
:101AB00090F82040D47303E0137353739373D3737C
:101AC000D0F8F441012C0BD0C56803242C70D0F859
:101AD000F441052C0AD0062C08D0072C06D03EE095
:101AE000C26801211170D0F820123EE0362401F8BE
:101AF000014B042401F8014BD0F8F451072D37D0E5
:101B0000D0F8F0502D0E01F8015BD0F8F0502D0CFC
:101B100001F8015BB0F8F0502D0A01F8025B90F873
:101B2000F05001F8015C322501F8015B01F8054B2A
:101B3000D0F8F4502D0E01F8045CD0F8F4502D0CC0
:101B400001F8035CB0F8F4502D0A01F8025C90F83B
:101B5000F45001F8015CD0F8F451062D1BD0416916
:101B6000FF2201F8012B0269891AC0F8241230BD46
:101B7000C36807221A70C269120E01F8012BC269EC
:101B8000120C01F8012B828B120A01F8022B027F42
:101B900001F8012CE4E7137353739373D373C26892
:101BA0001470DDE70EB503490290684604F062FB4D
:101BB0000EBD0000B91B000070B585680646D5F85B
:101BC000A00028B3044600F5E07005F017FD04F509
:101BD000E87005F013FD04F5F07005F00FFD072027
:101BE000C4F8F4012046FFF745FF204600F018F83E
:101BF00094F8F00120B1094904F52A7004F031FB92
:101C0000FFF7DAFC204611F08FFB0020C5F8A0009A
:101C10003046BDE87040002104F00DBB13360000D3
:101C20007CB5044604F02EF9050011D02269D4F8E1
:101C3000241204F045F994F8F00150B10020CDE9E8
:101C400000500748D4E93C214323006800F00AF81B
:101C50007CBD28462168BDE87C40FFF7C7BC00007A
:101C60007400FF1FF0B585B00024DDE90A56019429
:101C70000127ADF8047003940227ADF80C700291AF
:101C80000492ADF80E30ADF806402B4603AA01A928
:101C9000009609F080FA05B0F0BD01460068002802
:101CA00001D002680A60704702680A6001607047EC
:101CB0002DE9F041044600F5A8700E46074611F0E4
:101CC000EBFD211D04E00288B24205D000F11001B5
:101CD00008680028F7D10BE050B10546006908609C
:101CE000384611F075FD2846AE6811F01DFB0AE07C
:101CF000384611F06DFD0C48BDE8F0813046F568BE
:101D000011F012FB2E46002EF8D1384611F0C4FD1A
:101D1000A06800680068816920468847384611F04D
:101D200057FD0020E8E7000009040100F0B58C89A8
:101D30000E2564BA01F10C03B4F5014F03D133F859
:101D4000044F122564BA40F2DC56B4420DD813F8A1
:101D5000026FAA2E42D15E78AA2E3FD116682C447B
:101D6000A6423BD31460DA8854BA406839E002884E
:101D7000A24235D10A784B788C78CD780E794F799C
:101D8000D1072CD0FF2A09D1FF2B07D1FF2C05D179
:101D9000FF2D03D1FF2E01D1FF2F20D0816818E045
:101DA00091F800C0624513D191F801C063450FD18D
:101DB00091F802C064450BD191F803C0654507D185
:101DC00091F804C0664503D191F805C0674503D07A
:101DD000C9680029E4D101E0002900D10020F0BD4C
:101DE00000690028C3D1F0BD8168088A20B1097A52
:101DF000C90704D01638704740F2DC5070471238DB
:101E00007047027B0A70427B4A70827B8A70C27B79
:101E1000CA70027C0A71407C48710020704718B17A
:101E2000806808B180687047002070471A4610B17A
:101E30004FF482307047014800F002B81C9D010049
:101E40002DE9F04117460E46050006D0A88A698A9A
:101E5000884205D23348BDE8F0814FF48230FAE77A
:101E6000062011F09BFE07E081682A680968127A53
:101E7000097A914203D000680028F5D104E018B136
:101E800038602848801CE6E74FF000084FF4B67031
:101E9000C7F8008011F028F9040039D04FF47B71A5
:101EA00011F05EFB3078207370786073B078A073A7
:101EB000F078E0733079207470796074A560287AC6
:101EC0000021C04340F30006761C288A324600F009
:101ED000D0F8E082A0683246818BC08A00F0C9F851
:101EE000A08204F5A8700121064611F048FB28687D
:101EF000006801682046884705000CD0304611F084
:101F0000A3FB204611F010FAC7F800802846A2E78C
:101F1000044815389FE722461146062011F024FF99
:101F20003C60F3E7170401002DE9F0410746107803
:101F300016460C46C00706D007F5A870804611F07B
:101F4000ABFC7D6806E01D48BDE8F0812888A04212
:101F500003D02D69002DF9D124E01DB3102011F01C
:101F6000C3F8040024D040F2EE3111F0F9FA3078D1
:101F7000207070786070B078A070F078E070307980
:101F8000207170796071A868E060AC60B868214623
:101F900000680068426938469047404611F018FCD6
:101FA0000020D1E7404611F013FC0448C01ECBE7E7
:101FB000404611F00DFC0148401CC5E70C0401002F
:101FC0002DE9F041054600F5A87014460E46074677
:101FD00011F062FC686803E00188B14203D0006937
:101FE0000028F9D102E008B108301FE0384611F0AE
:101FF000EFFB1C48BDE8F08131782278914213D183
:102000007178627891420FD1B178A27891420BD168
:10201000F178E278914207D131792279914203D166
:1020200071796279914205D006F10C000668002EA4
:10203000E2D110E07EB1F1680160A8680068006834
:10204000816928468847384611F0C2FB304611F0B6
:102050006BF90020CEE7384611F0BAFB0148401D6D
:10206000C8E7000009040100816809684968C96877
:10207000084709B9002802D112B140F2F250704766
:1020800040F2EE50704700002DE9F047044600F59D
:10209000A8701F4690460E46814611F0FDFB241D98
:1020A0000AE00188B14205D1484611F091FB12487F
:1020B000BDE8F08700F1100420680028F1D1142059
:1020C00011F012F8050010D040F2EF3111F048FA8B
:1020D0002E800020C5F80480C5E902072861484623
:1020E000256011F075FB0020E2E7484611F070FB17
:1020F0000148401EDCE70000080401002DE9FF4F05
:10210000594883B0984600680290109F90F84000AC
:10211000039C93460D46C00707D0CDE900B80B4697
:102120002246524901200EF0C9FDB80701D51222FE
:1021300000E00E22A868904204D2606B4C4E401C16
:1021400060637CE04A4E4FF0000AD14605F108007A
:10215000761CE38A05E0994208D889440AF1010A0D
:10216000083001680029F6D14B4503D2606B401C52
:10217000606364E0E86898F80010017098F8011056
:10218000417098F80210817098F80310C17098F8A7
:102190000410017198F805104171217B8171617BF8
:1021A000C171A17B0172E17B4172217C8172617CF2
:1021B000C1720C30B9070DD5812303700023437021
:1021C000811CC7F34B10BB0840EA4330030A0B7075
:1021D0004870881CF9070FD0A9EB0202130A03709C
:1021E000811C4270AA20087048700320887000206B
:1021F000C87008714871881D4FEA1B21017080F872
:1022000001B004F5A870834611F046FBDFF860804A
:1022100008F1050802E000BF13F0ACFB0097A668C8
:102220002046294636684A4653463668B668B0475F
:1022300006464045F0D0584611F0CAFA16B1296852
:1022400028468847029890F84000C00708D0002030
:10225000CDE900602B4605490220039A0EF02EFDC1
:1022600007B03046BDE8F08F4800FF1F01001000A6
:102270000A04010070B520B10446406820B10D4841
:1022800070BD4FF4823070BDA0680068006841687E
:102290002046884705000BD104F5A87011F0D4F949
:1022A00022461146062011F0B3FD204611F03CF8FD
:1022B000284670BD1804010038B500200090C820E1
:1022C00004F086F904000FD041F2080111F048F93A
:1022D000012011F063FC04616B46002204490120D7
:1022E00001F085FE009838BD41F2021038BD0000B3
:1022F0003D2500007CB593F830511C69AD0705D42D
:102300000025CDE90035234600F002F87CBD000031
:102310002DE9FF4F83B01E46DDE91095924601205E
:1023200011F03CFC0469F068F17B00BA20F0FF007A
:10233000084301903069F17C00BA20F0FF0040EAC8
:10234000010B307859460007870E708840BAC01BD1
:102350001FFA80F8002001F015FE00B158468346B0
:102360000DB94FF40975B9F1000F08D0D9E9031080
:10237000081AD9F884100844A84200D2054608EB90
:102380000700A84202D9E81B1FFA80F8707A0128DA
:1023900009D1B8F1000F20D0F05D20B1082802D09B
:1023A0000D38062819D22069401C206103F06AFD0F
:1023B00005000FD0B9F1000012D00146284603F005
:1023C000CBFD07EB08013246284603F079FD0600F5
:1023D00029D02EE06069401C606107B0BDE8F08F35
:1023E00007EB0800074604F0DBF85FEA000813D0AB
:1023F00041F2090111F0B4F83A4631464046FEF781
:10240000C1F939464246284603F082FD06000AD04B
:10241000404610F089FF0CE060692A46401C41F2FA
:10242000021160610AE00821284603F04FFE060011
:102430000ED060692A46401C3146606104F13800C4
:1024400004F0CAF96868016807B0BDE8F04F0847B2
:10245000EE6803980027307004987070B770F770BA
:102460004FEA1A6030714FEA1A4070714FEA1A2031
:10247000B07186F807A00121019801F0A9FF01F0D1
:1024800099FC38B190F8D810890703D5A96802F0F3
:1024900021FD08B32946002001F0B2FAA0F57F41E2
:1024A000FF3901D0C04380B2010AB170F070D5F895
:1024B000300120F0400000BFC5F83001039811281A
:1024C00039D2DFE800F02938380E20233838263892
:1024D00038111D2C2F323500D5F8300140F0400066
:1024E000EAE754F8900F01E054F8940F5A46401C64
:1024F0002060009701212846019B02F00DFA6CE74D
:1025000054F8980FF2E754F89C0FEFE754F8A00F37
:10251000ECE754F8A40FE9E754F8A80FE6E754F8FD
:10252000AC0FE3E754F8B00FE0E754F8B40FDDE781
:1025300054F8B80FDAE754F8BC0FD7E72DE9F04F9D
:1025400005468DB0012011F029FB04692068401C6C
:1025500020602846EE6802F0B5FC0190284601F0A4
:1025600021FC0746A86896F80090042806D2A068C7
:10257000401CA060A06D401CA065AEE195F8300144
:102580004FF6FF7840060CD42946002001F038FAB7
:10259000404506D0A068401CA060606D401C60658E
:1025A0009BE148464FF0000AB9F1050F0CD005DC5D
:1025B00000287DD0B9F1030F61D105E1082841D091
:1025C000B9F10B0FF8D1FFE0A8681C280BD2A06866
:1025D000401CA060A06D401CA06568680168884729
:1025E0000DB0BDE8F08F706800BA20F0FF07F079F9
:1025F0000743B069394600BA20F0FF08F07E48EA88
:102600000008002001F0BEFC401E384203D1A06843
:10261000401CA0603BE14146019801F08BFC50B1A9
:102620004FF0FF30CDE90980CDE9077AAE4902A825
:1026300003F017FE2BE1A068401CA060E06D401C79
:10264000E06524E1781C17D04FF00E0BBBEB177F31
:1026500005D13946D5F8340115F0D2F960B104211D
:10266000284603F06CFD01000AD0E0682A46401CB1
:10267000E06004F1200018E0A068401CA060E8E0E1
:10268000284603F07CFC20690421401C2061284678
:1026900003F01CFD01000CD0606F2A46401C6067EF
:1026A0006069401C606104F1380004F095F814E1A1
:1026B0004BE0EE68012186F800A086F801A086F8BC
:1026C00002A086F803A0C5F840A1019801F080FEA1
:1026D00001F070FB38B190F8D810890703D5A968CC
:1026E00002F0F8FB60B32946002001F089F940456B
:1026F00001D0C04380B2010AB170F070D5F830014A
:1027000020F04000C5F83001BBEB177F04D03946FC
:10271000284601F0AAF920B1D5F8340101F06EFB8A
:102720000746D4F8A8003A46401CC4F8A800CDF8E3
:1027300000A001212846019B02F0EEF8002588E068
:10274000D5F8300140F04000DCE7A8680828FFF425
:102750000EAFB08841BAF088D4F8C06040BA30E01B
:10276000326A92898A422BD1B28C824228D1B068D7
:1027700008B1F168C160D6E90201086006F11000F5
:1027800004F03CFF04F0C7F80146B06A04F0D0F84A
:10279000316A8861326A28690121C2F800A0C2F852
:1027A00004A0326A1180C168C07B09BA21F0FF0120
:1027B0000143306A41600021304603F03CFD48E0AF
:1027C000B668002ECCD144E0A96801201C2940D372
:1027D00006F10807A1F10808797A042914D139789B
:1027E0000907890E01F1140398450DD30F44A8EB96
:1027F0000108F86800BA20F0FF01F87B01430020CF
:1028000001F0C0FB0028E7D139780907890E00BB29
:10281000083141451DD8B9F1030F10D04FF003091D
:102820005FF00101CDE900A870683B4600BA20F0D6
:10283000FF02F07902434846FFF76AFD17E071781E
:10284000022904D0032912D00529EBD10FE0002181
:10285000E8E7B9F1110F35D2DFE809F02134340986
:10286000151934341D34340D1125292C3100206EF6
:10287000401C20662EE0606E401C60662AE0A06E60
:10288000401CA06626E0E06E401CE06622E0206F5F
:10289000401C20671EE0606F401C60671AE0A06F5C
:1028A000401CA06716E0E06F401CE06712E054F89F
:1028B000800F01E054F8840F401C20600AE054F8B7
:1028C000880FF9E7D4F88C00401CC4F88C00A0688D
:1028D000401CA060002D3FF483AE686801680DB015
:1028E000BDE8F04F084700009935000070B58468D6
:1028F0000020122184F82000204600F0C0FA42F2A5
:102900001075012650B1606A002806D0401E25616E
:10291000C4F8240084F82060012070BD03F0F6FEA6
:10292000B0FBF5F105FB11002061F3E7D0F888203A
:1029300002B1104700207047D0F88C2002B1104738
:10294000002070472DE9FC410546C068D5E90562C5
:10295000D0F880000027B8B1046813E0082A05D336
:10296000D4E90001E6E80201083A09E042B1D4E9FD
:102970000001CDE9000169463046FDF703FF002262
:10298000E4680837002CE9D10020AF61BDE8FC8184
:1029900010B504460069A0F500705A3806D041F21F
:1029A00011712046BDE8104003F045BC2046FFF7FA
:1029B000C9FF0146F5E7000038B56C2003F008FEBA
:1029C00004004FF4AE550CD0012011F0E7F8C462BA
:1029D0006B4600220449022001F009FB0098002800
:1029E00000D0284638BD00002B2F00000449C0E964
:1029F0000510002180F8201002214162704700007C
:102A0000ED280000002140F8CC1F02494160002061
:102A100070470000792A00001CB5034ACDE9002167
:102A2000694600F0E7F81CBD010000E07CB50E46E9
:102A300005461048CDE900060024694605F1CC00A2
:102A400000F0E0F901000FD0284600F040F90BE05B
:102A50004168B14203D0C0680028F9D108E038B11C
:102A600000F05BF9040004D1D5F8CC000028F3D1C4
:102A700020467CBD010000E02DE9F0410F460646EE
:102A8000002500F1CC040CE04168B94202D000F10D
:102A90000C0406E02146304600F019F908B105B9EA
:102AA000054620680028EFD12846BDE8F0810000E7
:102AB0007FB5044615460E46012011F06FF8C06838
:102AC000216871B10095CDE9016400218DF80C10E9
:102AD0006A460549B43000F031FF9DF80C0004B09F
:102AE00070BD0020FBE70000ED2A00007CB51D460C
:102AF000160015D0B4699CB128680090A068696878
:102B0000884209D1606801906946A86800F07AF9A6
:102B100010B1012028737CBD2468B069A042EDD1BA
:102B200000207CBD2DE9F04116460C46054600F01C
:102B300069F920B100688168491C816006E021467E
:102B4000284600F03EF970B109483060204600F098
:102B500011F807000AD032462146284600F0C6F890
:102B60003846BDE8F08141F2C150FAE70020F8E7AD
:102B7000A52C00002DE9F0410546406801F01AF946
:102B800004000BD004F1CC002946064600F03AF9C7
:102B900040B100688168491C816027E041F2C35060
:102BA000BDE8F0812946304600F00BF906000AD056
:102BB00020462968FFF7BAFE070007D0304600F02C
:102BC00018F93846ECE741F2C150E9E728684FF4BC
:102BD0006001B1EB102F06D03068FFF707FF00212E
:102BE000306800F01FF80248C4F8D0000020D7E792
:102BF0002D2A000070B506460C46CC3000F0E1F8F6
:102C000005000AD030462168FFF790FE040007D087
:102C1000284600F0EEF8204670BD41F2C15070BD6C
:102C2000002070BD90F82020002A05D140F8101F28
:102C30000121017404F0CABC704770B50D4600F064
:102C400055F80446284600F005F808B104B90446D2
:102C5000204670BD70B50646406801F0ABF805002F
:102C60000ED0314605F1CC0000F0CCF804000AD0BB
:102C700021688868401E8860216807D0002070BDE8
:102C800041F2C35070BD41F2C45070BD084600F01F
:102C9000DBF9204600F0ADF828463168BDE8704009
:102CA000FFF74ABE3EB5054600240BE0D0E9001010
:102CB000CDE9001002AA69462846FFF7BEFF08B119
:102CC00004B9044628680028F0D120463EBD70B5FE
:102CD0000D4609680968FFF72FFE0446284600F0F4
:102CE00088F808B104B90446204670BD70B5144692
:102CF000054600F087F830B102689168491E91607E
:102D000004D0002070BD41F2C45070BD00F071F8D5
:102D100029680029F9D1216070BD2DE9FC410546E3
:102D2000012010F03BFF4669D5E90001CDE9000123
:102D30000024756E12E0686B78B105F134006946C5
:102D4000074600F05FF840B105F1380269463846A1
:102D5000FFF773FF08B104B904462D68002DEAD1CE
:102D6000356F12E0686B78B105F1340069460746AB
:102D700000F048F840B105F1380269463846FFF7DF
:102D80005CFF08B104B904462D68002DEAD1756FC7
:102D900012E0686B78B105F134006946064600F030
:102DA00031F840B105F1380269463046FFF745FF7A
:102DB00008B104B904462D68002DEAD12046BDE8CB
:102DC000FC8170B504460D46012010F0E7FEC06896
:102DD000D0F8AC0003F028FC002809D0D5E9001297
:102DE000C0E90012012181602168C1602060204695
:102DF00070BD10B50168CA680260084603F079FC2E
:102E0000002010BD10B509E013680C68A34203D17F
:102E100053684C68A34205D002F10C000268002AF6
:102E2000F2D1002010BD70B54FF46006B6EB112F43
:102E300024D042F21075D0F8CC401DE02068B6EBEB
:102E4000102F18D094F8200048B104F1100004F0BD
:102E5000EBFBA8420FD9204600F0F6F802E020462E
:102E6000FFF7C4FD03F052FCB0FBF5F105FB1101C7
:102E70002046FFF7D7FEE468002CDFD170BD2DE9B6
:102E8000F84306468846012010F088FEC56A4FF4D4
:102E900060012869401C28613068B1EB102F02D115
:102EA0000120BDE8F883706800F084FF50B102F0A3
:102EB000E9FF070006D0082103F008F938B1786867
:102EC000016888476869401C68610020E9E7FC6880
:102ED0000020224684F800806070A070E0703068A6
:102EE0000821000E20713068000C60713088000AE3
:102EF000A0713078E071002010F03AFD80B2A0F5AA
:102F00007F41FF3901D0C04380B2010AA170E07057
:102F1000A86E3368401CA866202000904FF4817191
:102F20003846726801F0F8FCBAE72DE9F041054631
:102F3000012010F033FEC46A2068401C2060D5E9EF
:102F40000206082806D2A068401CA060A06D401CA4
:102F5000A06518E02946002000F052FDA0F57F4151
:102F6000FF3906D0A068401CA060606D401C606501
:102F700009E0307811280BD0122818D0162816D066
:102F8000206D401C206568680168BDE8F041084775
:102F9000E06D401CE0657068727800BA20F0FF01B7
:102FA000F0790143D5F83401FFF73DFFEBE7206EE0
:102FB000401C20667168D5F8340109BA21F0FF077A
:102FC000F1790F434FF46001B1EB172FDBD00E21E5
:102FD000B1EB177FD7D10026D0F8CC4007E02068AE
:102FE000B84203D1204600F02FF86662E468002C56
:102FF000F5D1C8E710B504468069082802D241F22D
:10300000127109E02069B0F5167F0AD0A0F50070B2
:1030100059380FD041F211712046BDE8104003F03D
:103020000AB9E0686169D0F88420D0F88000FFF721
:1030300079FD07E0E0686169D0F88420D0F880006D
:10304000FFF7FBFD0146E7E710B5044690F82000C6
:10305000002806D004F1100004F0D0FA002084F813
:10306000200010BD70B505460024FDF7D5FE00B167
:1030700004464FF40061A86FFEF71AFE08B104B9C8
:10308000044640F60601A86FFEF712FE08B104B927
:103090000446204670BD806FFEF7E6BF1CB50122D6
:1030A0008DF8002000228DF801205E228DF802208C
:1030B000C1F306428DF803200A0A8DF804208DF82A
:1030C0000510806F6A464FF40061FEF72DFF1CBDAE
:1030D0001CB501228DF8002000228DF801205E220F
:1030E0008DF80220C1F306428DF803200A0A8DF8FC
:1030F00004208DF80510806F6A464FF40061FEF7DA
:103100005FFF1CBD70B50446806FFEF788FEC104EA
:1031100005D5D4F8D81041F00101C4F8D8108104C5
:1031200005D5D4F8D81041F00201C4F8D8104104F4
:1031300005D5D4F8D81041F00401C4F8D810000423
:1031400005D5D4F8D80040F00800C4F8D8002046CF
:10315000FDF7A5FF050018D14FF4006623461E4A6F
:103160003146A06FFEF790FF05000BD123461B4AA6
:10317000B11DA06FFEF788FF050008D03146A06F93
:10318000FEF796FD2046FDF747FE284670BD54F831
:10319000780FFEF729FEE0610120E062062020633F
:1031A00054F8340B2146AC3CFEF72BFE14F8AC0F60
:1031B00003F0FCFA607803F0F9FAA07803F0F6FA6D
:1031C000E07803F0F3FA207903F0F0FA607903F085
:1031D000EDFA002070BD0000F5320000E932000079
:1031E0002DE9FC41064688680C46401C8860886DC5
:1031F000B16817460844A065304602F01BFE050082
:1032000006D0EE683078C10731D0FF2806D014E030
:10321000E068401CE060304631685EE07078FF286E
:103220000BD1B078FF2808D1F078FF2805D130798C
:10323000FF2802D17079FF2814D0206E401C206630
:103240000420C5F830010E21284602F078FF010065
:1032500012D060692A46401C606104F1280003F026
:10326000BBFA38E0606E401C60660220E9E7E06D62
:10327000401CE0650120E4E705F5A47005F5AA739C
:1032800007C8C5F8344183E80700B0798DF800001D
:10329000F0798DF80100307A8DF80200707A8DF89F
:1032A0000300B07A8DF80400F07A8DF8050095F8E7
:1032B0003001800706D5062204F1AC016846FDF70F
:1032C000CBF968B13946284602F0FEFF002805D147
:1032D000E068401CE060686801688847BDE8FC81E0
:1032E0002069401C2061F6E7014AFFF779BF000022
:1032F0008D130000014AFFF773BF0000B54C0000BA
:103300002DE9F84F0D460446994692460E214FF09E
:103310000008284602F0DAFE0600A06EA96804F153
:1033200040070844A0660BD0606A2A46401C6062D1
:103330003146384603F050FA68680168884718E05B
:103340006968D5F884004B4688606968E868524629
:10335000C860CDF800806968A06FFEF7CFFE060058
:1033600007D0606A2A46401C60623146384603F046
:1033700033FA3046BDE8F88F1CB582696B46521CA3
:103380008261426F521C4267FF228DF800208DF847
:1033900001208DF802208DF804208DF803208DF88F
:1033A000052040F60602FFF7ABFF1CBD83695B1CDE
:1033B0008361C36E5B1CC366134640F60602FFF7CB
:1033C0009FBF1CB58469641C84615C1C19D00E24E9
:1033D000B4EB137F2BD1026F521C026701228DF8D0
:1033E000002000228DF801205E228DF80220C3F318
:1033F00006428DF803201A0A8DF804208DF8053056
:103400000FE0426F521C4267FF228DF800208DF8BA
:1034100001208DF802208DF804208DF803208DF80E
:1034200005206B464FF40062FFF76AFF1CBDC46EB7
:10343000641CC466FDF7B4FE1CBD13464FF4006265
:10344000FFF75EBF70B50546DC2003F0C1F804004D
:1034500020D041F20D0110F083F8A868A06718226F
:1034600004F17C002969FDF78DF910490868206096
:1034700000B14460002262600C60E16F2046884722
:103480000600204609D014F0C9FA20460FF04CFF80
:10349000314606E041F2025103E0FFF7B3FA0021A2
:1034A000EC602846BDE8704002F0C5BE7800FF1F02
:1034B00070B5C3680446002543B1206A6169C24300
:1034C000521C824305D041F2065113E041F205112E
:1034D00011E031EA000212D00843401C0FD094F8EA
:1034E000240078B10A461846FDF72DFE08B141F2D6
:1034F000321529462046BDE8704002F09CBE41F2DC
:103500000551F7E72046BDE8704000F001B8000023
:1035100070B5044690F8240038B16169E068FDF7A1
:10352000B7FD10B141F2336510E0E268216A13463D
:10353000606900F0F7FD050008D10A49E26860699A
:103540000B68691E00F0EEFD050005D029462046F7
:10355000BDE8704002F06FBE6169E068FFF75CFA99
:10356000F4E700007C00FF1F38B5016A0446C84339
:10357000401C884302D041F2065108E0208B022310
:1035800080B20090E269606900F01AFE01462046B0
:10359000BDE8384002F04FBE38B5016A0446C84362
:1035A000401C884302D041F2065108E0208B0423DE
:1035B00080B20090E269606900F002FE0146204698
:1035C000BDE8384002F037BE38B50446008B022310
:1035D00080B20090D4E90721606901F0ADF820467F
:1035E000BDE83840002102F026BE70B5C46806462A
:1035F0002046D4F8801088470546204614F00EFA7D
:1036000020460FF091FE29463046BDE8704002F09A
:1036100012BE38B50446C26840694FF0FF3101F070
:1036200065F8E06818B1D0F8D020616990476A4623
:103630006169E06800F00AFC0099012903D0E268A2
:10364000606901F053F80021204602F0F4FD38BD16
:103650000020704700B58BB0002002900748084951
:1036600000680490684602F0FCFD002803D105497B
:103670000398086000200BB000BD0000689D0100A9
:10368000453400007C00FF1F4FF6FF7140F8941F87
:1036900000214160016141610846704770B50C46E8
:1036A000012010F07BFA1F4AC568D4F83411126863
:1036B000E068914212D128681B49401C28602046CE
:1036C00002F002FE08B1002070BD6868401C68600E
:1036D0006068016888474FF4895070BDC28852BA4B
:1036E000920409D055F8880F401C28606068016872
:1036F000884741F2241070BD91F8D81009070CD505
:10370000407A112803D0062801D0012805D1D4F829
:10371000300140F04000C4F830012046BDE8704060
:1037200000F004B87C00FF1F2D370000F8B50646F6
:10373000012010F033FAC46896F86001D4F898506C
:1037400003E06968814203D02D68002DF9D115E0AE
:10375000A5B196F86411304602F0F1FC07001FD0C5
:10376000E0683246401CE060394604F1200003F076
:1037700033F87068016888473846F8BDA06833465A
:10378000401CA060A06D0221401CA06500200246E4
:1037900000900320FEF7AEFD70680168884706E0E0
:1037A000E06D401CE065D5E90221304690470020DD
:1037B000F8BD2DE9F04115461E4604460122A068D9
:1037C000C04302EB5000084000D0012004EB800011
:1037D000006968B1836847680B40BB4208D1044662
:1037E000EDE7206818B13146A847002802D1E46807
:1037F000002CF6D1BDE8F081002141608160C160FC
:1038000001614161016070472DE9FF5F0E469046FE
:1038100004460121A068C04301EB5000064201D0DC
:10382000012700E0002704EB8700056945B1A8687F
:10383000404505D86A683040904201D12C46E9E7FE
:1038400003984FF0000BA0B3A268424533D27DB37A
:103850006868704060EA080040EA500040EA900062
:1038600040EA101040EA102040EA104001EB500AF4
:103870006FEA0009039802F0B7FE00285CD006EA60
:103880000901C460C0E90119696811EA0A0F02D090
:10389000C0E904B501E0C0E9045B04EB8701C0F8AE
:1038A00000B00861044616EA0A0FE86002D001275A
:1038B00001E012E00027A16841450ED2039802F012
:1038C00093FE50B1C0E9034B5946C0F814B080E8EC
:1038D000420104EB870104460861A168414503D118
:1038E000DDE90E2120469047002C25D020680028D5
:1038F00022D1E568002D1FD0206910B1616900292F
:103900001AD12969A14201D0012100E0002120B192
:1039100005EB81010861206905E0606905EB810123
:1039200018B108616069C56001E0C1F810B02046B7
:1039300002F0DFFE2C46D9E7BDE8FF9F70B50446D4
:1039400016460D46002019E0E16881420ED1D4E907
:10395000010133462268A847002811D1216941B1ED
:1039600020460C46F0E720466469EDE72169814274
:1039700002D160690028F6D12046E468002CE3D12A
:1039800070BD00002DE9FF4106460F46012010F0F2
:1039900005F9C5684FF41074304600F00BFA08B111
:1039A000D0F894406B46064A394605F1B4000196BA
:1039B0000394FFF7FEFE039804B0BDE8F081000019
:1039C000C539000010B50C46816919B10869D0F8F5
:1039D000940010E0006A88B1616882691140426910
:1039E00091420BD10269D2F8D41011B1C069884755
:1039F00001E0D2F89400E060012010BD002010BD6D
:103A000070B5D1F884304C68CA6803F001051946D6
:103A100010340FF0ADFF80B210E01DB1616809787D
:103A200000F010F861684A192168491B0FF0A0FFE7
:103A300014F8081B80B2491B01F001052168002918
:103A4000EBD170BD084400EB104080B2704710B558
:103A50000A6991F8604108210C320FF089FF214674
:103A6000BDE8104080B2FFF7EDBFF8B5D0F8346183
:103A70000C46304600F0C2F90546002000906A4628
:103A80002946304600F0E2F9009965EA0100611C20
:103A900001D0844201D10120F8BD0020F8BD000012
:103AA0002DE9F84F0E6880469A460F460120F568CA
:103AB00010F074F8C468687A86F86001287835498F
:103AC0000007800EC6F8640109683F68884557D032
:103AD00095F80890B9F1010F14D8A0683B46401C36
:103AE000A060206D401C2065E06F401CE067002056
:103AF0000246014600900B20FEF7FCFB41F21150FC
:103B0000BDE8F88F287869880007800E4EBA083023
:103B1000864200D906463146384602F010FB5FEA7D
:103B200000080CD1384602F02AFA5FEA000806D1F4
:103B30003146384602F0CAFA5FEA00080AD06069E6
:103B40003A46401C6061414604F1380002F044FEF0
:103B50004046D5E732462946F868FCF713FEFD6873
:103B6000A9F101003D61287268894FF4807140BA63
:103B7000FFF768FF010AA972E872206E401C2066F8
:103B8000C7F84CA1687887F85101287A87F8500166
:103B90000020B5E77C00FF1F2DE9FF4F0C6881B0C6
:103BA0009846D4F86C7191468B460E9E01201437CE
:103BB0000FF0F4FFC5683946204602F087FA5FEA45
:103BC000000A0CD068692246401C6861514605F124
:103BD000380002F001FE504605B0BDE8F08FE06805
:103BE00006F0FF0AC6F3074220610AB994F85D2186
:103BF00094F85C11C6F3006C21B9C6F3072109B92A
:103C000095F89E10402343EA97030370427022897F
:103C1000120A8270227AC27035F89C2F120A027141
:103C20002A7842712A88521C2A800022BCF1000F97
:103C300002D04023837100E08271C271017280F86A
:103C400009A04FEA186101744FEA184141744FEA24
:103C50001821817480F8138000218172C1724FEAAB
:103C6000196101734FEA194141734FEA19218173B8
:103C700080F80F90D4F86C212AB1E068D4F868116C
:103C80001430FCF783FD84F860A1C4F86471D4F8A3
:103C900040014FF6FF7A88B1B4F83C01002280B2AF
:103CA0002146FFF7D4FE504501D0C04380B2D4F87E
:103CB0004021010A1170D4F8401148700198DBF8D6
:103CC000005090F8D800EC68C00706D0D5F8300155
:103CD00040F01000C5F830010CE0224639460020C3
:103CE0000FF046FE80B2504501D0C04380B2010AB9
:103CF000A172E07228490198096888424AD1A868EF
:103D0000183002F04DFC04003DD041F20B010FF0E1
:103D100027FC2249216000216160AA68A26004F1A9
:103D2000080004F11802C0E90121924620466161B1
:103D300002F080F8070029D0D5F83001C7F830012B
:103D4000D5F83401C7F83401182205F5A47107F538
:103D5000A470FCF717FD1248C7F83801514600223D
:103D60002846AB6802F0C9F9F868386168680168EC
:103D70008847CBF8007043464A465946009601985A
:103D8000FFF78EFE28E741F2021025E720460FF0EC
:103D9000CBFAF8E700201FE77C00FF1F2933010062
:103DA000A13A000001690869C97C00BA20F0FF004F
:103DB0000843704710B5044686B001200FF0EEFEB0
:103DC000C0680021CDE9021402AA0649CDE900121B
:103DD00000235A1E2146B430FFF716FD029806B0A4
:103DE00010BD0000E93D00000068002804D0806993
:103DF000002801D080680860704700001FB50446A5
:103E000001200FF0CBFEC0680021CDE900416A46D9
:103E10000349B430FFF792FD019804B010BD0000D3
:103E2000253E000030B5491C0DD162B1926952B1F6
:103E30001C6811468D68A54202D15860012030BD32
:103E400009688A42F6D1002030BD0000FEB5064662
:103E500014460D4601200FF0A1FEC0680121009616
:103E6000CDE901516B46064A2946B430FFF7A1FC63
:103E70000298012802D020600120FEBD0020FEBD76
:103E8000853E000070B583697BB14C681A46556861
:103E9000A54207D115690E68B54203D180688860D4
:103EA000012070BD12689342F1D1002070BD7CB535
:103EB000D82002F08DFB040038D041F20A010FF047
:103EC0004FFB01200FF06AFE0025C46044F8985FA4
:103ED0004020A580E080022200952B461146142048
:103EE000019502F0ADFBA060012200950023114670
:103EF0001420019502F0A4FBC4E9030501220095FA
:103F0000002311462820019502F09AFB60610222ED
:103F10000095002311462420019502F091FB44F8FE
:103F2000180F201D00F0A1FA00207CBD41F2021004
:103F30007CBD00007FB504460D4601200FF02EFE2B
:103F4000C06800218DF8081001946B46044A294688
:103F5000B430FFF72EFC9DF8080004B070BD0000DF
:103F6000653F000010B5C26952B14B681046446805
:103F70009C4202D10120087210BD00688242F6D135
:103F8000002010BD30B5054687B00C4601200FF06B
:103F900005FEC06800218DF8101002AA0749CDE97E
:103FA0000012CDE9025400235A1E2146B430FFF717
:103FB0002BFC9DF8100007B030BD0000C13F000091
:103FC00030B5006800280DD08069021E0AD00B6849
:103FD00084689C4200D033B94C684568AC4202D139
:103FE0000120087230BD00688242F1D130BD2DE958
:103FF000F04707461E469146884601200FF0CEFD49
:10400000C568D5F8980006E04168B94202D141F28E
:10401000015019E000680028F6D1102002F0B4FA2F
:1040200004000FD041F20C010FF09AFA211D81E833
:10403000800355F8980F206000202C6030602046E7
:10404000BDE8F0874FF4A85030600020F8E700008A
:104050002DE9F04790B00646DDE9185A1C46914616
:10406000884601200FF09AFDC76841F21050CDE953
:1040700006A0CDE904450024039601208DF8200018
:104080008DF8354009940A940C948DF834404946D3
:104090002046CDF82C90FFF775FF8DF8360007F11C
:1040A000B40003AB1D4A294607460E94FFF781FB77
:1040B0009DF8200028B903AB184A38460A99FFF743
:1040C00078FB079828BB9DF8350088B10C9858B14B
:1040D0000095CDE901841248DDE90B214FF0FF3353
:1040E000006800F077FC07909DF8340018B913E0E1
:1040F0009DF8340068B10E990095CDE90181DDE9A4
:10410000090331460B9A00F065FC079010B0BDE83A
:10411000F0877068016888470798F7E799470000BB
:104120007C00FF1F2DE9F043064687B09946904674
:104130000F4601200FF032FDC568D5F8A00002F04F
:1041400053FA040041F2035033D0C4F81090032115
:104150006660C4E90281CDE9020400200490059064
:1041600002A91548CDE9000106EA07013A4605F122
:10417000B400D5F8B030FFF747FB029818B12046DD
:1041800002F0B7FA14E07F1C07D00C4920690968D7
:1041900088420DD0D5F8A85008E0204601F0D9FD9E
:1041A00006E0AA680021204690472D68002DF8D12E
:1041B000029807B0BDE8F0837D4400007C00FF1F3B
:1041C0002DE9F04786B08146984616460F460120F5
:1041D000DDF838A00FF0E2FCC568D5F8A40002F0C5
:1041E00003FA040041F204502BD048F00101E160D1
:1041F0000021C4E90191A4F810A0CDE90204012036
:1042000004901148059002A91048CDE9000106EA82
:1042100007013A4605F1B400D5F8B030FFF7F4FADB
:10422000029818B1204602F064FA09E0D5F8A850C7
:1042300004E0AA685146204690472D68002DF8D129
:10424000029806B0BDE8F087514200007D440000AE
:104250002DE9F04106460D4601200FF09FFC346821
:10426000C2682146207B80070ED4D2F8A87003E0F4
:10427000F968204688473F68002FF9D1204602F0B0
:1042800038FA3560BDE8F08100202A8A03E0204634
:104290002468A14202D0238A9342F8D330B920681F
:1042A00000E008460168A142FBD135602C60056042
:1042B000E8E72DE9F0478146076808680D46002FBA
:1042C00032D007EB8006B06900282DD00468804604
:1042D000D5E901212046904700B32168C8F80010B5
:1042E000B069A04201D12068B061A04209D100208C
:1042F000B061B96929B9F96919B9396A09B9C9F84F
:104300000000ED6803E0E968204688472D68002D2D
:10431000F9D12046BDE8F04702F0EBB9B069A046FC
:1043200024680068A042D3D1BDE8F08742680B68DA
:104330009A4205D180684968884201D101207047BE
:10434000002070472DE9F0478146046801200FF0F6
:1043500025FCC768002C25D0E069002822D005681C
:1043600009E0F168284688473668002EF9D12846CA
:1043700002F0BFF94546E069D5F80080D7F8A8609B
:10438000A842F2D103E0F168284688473668002E3B
:10439000F9D1284602F0ADF9A169002009B9216AD6
:1043A00011B1E061BDE8F087C9F80000FAE74268A2
:1043B0000B689A4209D14A68C3689A4305D1008ABA
:1043C0000989884201D10120704700207047000010
:1043D0002DE9FF4107460D4601200FF0DFFB0024C9
:1043E000C66801946DB18DF8084006F1B4006B46C3
:1043F0000B4A39460546FFF7DCF99DF8080020B165
:104400000AE001208DF80800EFE701996B46044AA5
:1044100028460194FFF7CDF9019804B0BDE8F0817A
:104420002544000010B5826912B15068486015E05B
:10443000036A3BB11A4654680CB14C600EE0126836
:104440009342F8D10A7A72B1C26962B11046037B15
:10445000DB0705D04068486000200872012010BDCD
:1044600000688242F3D1002010BD10B50446FFF76A
:10447000C3F90020A061E061206210BD70B50C4658
:104480000368D4E9011200251BB900608561C5618C
:104490000562006800EB8200836923B1E2682AB1FB
:1044A0001830904706E00960816103E01A680A60ED
:1044B00080690160256070BD2DE9F041064686B037
:1044C0000D4601200FF06AFBC46829463046FFF70D
:1044D000CCFADFF87080002720BB0E20B0EB157FF0
:1044E00020D01948007820B9D6F83401FFF786FCAF
:1044F000C0B1CDE9045603AB144A294604F1B40017
:104500000397FFF756F9039880B1CDE9005702975A
:104510002B4600223146D8F8000000F05BFA06B0C6
:10452000BDE8F081D8F800000390EDE7A068401CDA
:10453000A060606D401C606570680168884741F24A
:104540001050ECE77C00FF1F1C00FF1F51450000CE
:1045500070B5826984681346641C13D18C6894F822
:104560003051ED070ED040688AB1D4F83451094C6F
:1045700024789668B54200D034B14E68864203D1A3
:1045800010690860012070BD12689342F1D10020CB
:1045900070BD00001900FF1F2DE9F04188B00446EE
:1045A0001D4690460E4601200E9F0FF0F7FAC06898
:1045B00003AB03AA83E85001CDE906570E49B43096
:1045C000FFF7BCF90D48B9060BD5D4F834110268D1
:1045D000914206D1606801688847002008B0BDE8B4
:1045E000F0810021CDE9005602912B46044A214674
:1045F000006800F0EFF9F1E7054600007C00FF1FBE
:104600000100007F2DE9FE4F05461C4616468846F0
:1046100001200FF0C3FAC768002E62D065EA0809CE
:10462000DFF8C480B5694FF0000A65B32969D8F88E
:104630000000814223D0A06830B1421C04D048451C
:1046400002D06A6890421AD1207C800604D5206886
:10465000D0F83401884212D0206801F0A9FB010093
:104660000AD06268E368CDE90032CDF808A06A6834
:10467000286900F0AFF902E07869401C78612D6884
:10468000B069A842D2D1356A5DB32969D8F8000073
:10469000814222D06A6802B3A06818B1431C01D0DD
:1046A00090421AD1207C800604D52068D0F83401CD
:1046B000884212D0206801F07BFB01000AD06268BA
:1046C000E368CDE90032CDF808A06A68286900F0F7
:1046D00081F902E07869401C78612D68306AA8424F
:1046E000D3D10020BDE8FE8F7C00FF1F70B50446CB
:1046F00088B016460D4601200FF050FAC06806A992
:10470000049100210291CDE9064609490391D0F8B0
:10471000A810059102AA0749CDE9001204EA050193
:1047200000232A46B430FFF76FF808B070BD0000D0
:104730002D430000B3420000FFB589B01E46144669
:104740000D460120129F0FF029FAC068099A04EA69
:1047500005017AB1CDE906260122029206AA049249
:10476000ADF82070094A0392D0F8A820059202AB58
:10477000074A01E0074A09ABCDE9002300232A4696
:10478000B430FFF741F80DB0F0BD0000AF430000BA
:10479000B3420000454300002DE9FC5F05460C468E
:1047A00001200FF0FBF9A969C6680191EA69286A3E
:1047B00000239246814600295CD06F680097D5F8A7
:1047C00008C067EA0C08BCF1FF3F08D0D4F808C065
:1047D000009FBC4503D1B069401CB06192E04D4FD1
:1047E000266A3F784EB1B6F1FF3F06D0464504D069
:1047F000D1F804C0664500D0B7B394F82A0008B9D0
:1048000048682062A868401C04D0A268424501D1D3
:10481000012000E0002084F82900012284F82820EB
:1048200018B184F8293084F82830207B80060DD513
:1048300094F8280038B120680A69D0F83401904211
:1048400001D0012000E0002084F8280094F828001E
:1048500028B10869A061E06908B9A068E061A869A9
:104860000068A86123614DE0FFE70968DDF804C036
:104870008C45B7D1C8B3217B09063AD4616809B128
:104880000E4600E0266A234FB046266A97F800B02D
:104890003EB1771C05D04768BE4202D0BBF1000F85
:1048A00024D047681FB911B994F82A70F7B1876905
:1048B000D0F814C007EA0807674517D194F82A20F2
:1048C0001AB94268226202B921620169A161E169F3
:1048D00009B9A168E161296A09682962012184F89E
:1048E00028102361C069E0620CE002E000688145A5
:1048F000CED16AB1207D58B1107BC00705D0506879
:10490000E06123750120BDE8FC9F12689245F3D158
:104910000020F8E71900FF1F2DE9FC4105461C4661
:10492000174688460120089E0FF038F9C0680169D3
:10493000491C01611449C5F8381114490968C5F8C2
:104940003411210E0ED0601C03D00E20B0EB147F6A
:1049500011D123463A46414628460096FFF71CFEF1
:10496000BDE8FC818169491C8161686801688847EC
:1049700041F21550F4E7CDE9004600233A4641469E
:104980002846FFF765FBEBE7993B00007C00FF1F23
:10499000FEB504460E46154601200FF0FFF8C0682C
:1049A0000169491C01610948C4F8380108482146D9
:1049B0000068C4F834010020431E0093CDE9016073
:1049C0000246284600F006F8FEBD0000993B0000B4
:1049D0007C00FF1F2DE9FF4F8FB00120DDE91C6532
:1049E0000FF0DCF8C468109800953346D0F83851C1
:1049F00010A9119A0F98A84705007DD1109B0F9818
:104A00009A68D0F894108A4235D893F8300140065D
:104A100025D40F9890F8D800800720D5DB68187847
:104A20000007800E19185B7A012B12D0062B02D0DA
:104A3000112B14D106E01430824210D300200874E8
:104A400048740CE00830824209D300208871C87194
:104A500005E0001D824202D300208870C8701E98B5
:104A600000900F9810AD95E80E00D0F88440A04754
:104A700013B0BDE8F08FD8680A9000780007800E68
:104A80000190101A06900A98C08840BA400413D5C5
:104A900054F8940F0421401C2060002000900F98CF
:104AA000D0F894200320FDF725FC10984068016899
:104AB000884741F21350DBE701980830814209D260
:104AC00054F8940F401C206058680168884741F2F0
:104AD0001250CDE7D4F89000401CC4F890000F9815
:104AE000D0F894100198081A0C9020F007000D904F
:104AF0000A98C08840BA00E0CBE0C004000C0B90DC
:104B0000D968019801EB0008D3F884100E1A586890
:104B100000F1080B0C990698884201D90D9D00E020
:104B2000054601F0AFF95FEA000A1DD0284601F002
:104B300037FD5FEA000921D041F20B010EF010FDB4
:104B40004A462946504601F0E3F9070024D060693F
:104B50005246401C6061394604F1380001F03CFEC9
:104B600048460EF0E1FB26E06069401C6061109849
:104B700040680168884741F2103079E76069401C5D
:104B80006061DAF80400016888471098406801689D
:104B9000884741F202106BE75046019901F096FAFE
:104BA000070012D060695246401C6061394604F12A
:104BB000380001F011FEDAF8040001688847109807
:104BC000406801688847384652E7DAF80C70CAF83E
:104BD00010703846019A0A99FBF7D4FD01982844D1
:104BE000010AB970F8700B990B9829440B9106993A
:104BF000C0F3CF00491B069104D10A99C98849BA6C
:104C0000890401D540F40050010AB971F8710020FF
:104C1000B872F8720F9890F8D800C00706D0DAF88A
:104C2000300140F01001CAF830110EE03A46002081
:104C300001990EF09DFE80B2A0F57F41FF3901D0B1
:104C4000C04380B2010AB972F872AE4201D92F4650
:104C500000E037463A4641464846FBF793FDF61BCF
:104C6000B844B944ED1B04D00BF1080BDBE9006834
:104C7000EBE7D4F88C005146401CC4F88C001E9819
:104C800000900F98DDE91123D0F88450A847050063
:104C900005D010984068016888472846E8E60698DD
:104CA00000287FF437AF10984068016888470020DB
:104CB000DEE600002DE9FC5F0546C76801200EF026
:104CC0006DFFC4682068401C2060387800074FEAF8
:104CD00090697888B9F1140F90FA90FAE868286121
:104CE00009D2A068401CA060206D401C2065206F88
:104CF000401C2067A4E0CA4509D2A068401CA060FF
:104D0000206D401C2065606F401C606798E0A968BA
:104D1000514509D2A068401CA060206D401C206550
:104D2000A06F401CA0678BE038780421B1EB101F06
:104D300009D0A068401CA060206D401C2065606EFA
:104D4000401C60667CE0F868F97B00BA20F0FF0048
:104D500040EA01087F21B1EB186F08D04FF00E0B2D
:104D6000BBEB187F03D00F20B0EB187F09D1A068F0
:104D7000401CA060206D401C2065E06E401CE06679
:104D80005EE03A6912BA22F0FF06FA7C1643B1EBF4
:104D9000166F06D0310E04D0B0EB167F08D1701C10
:104DA00006D0A068401CA060606D401C606547E0B4
:104DB000D5F8340190F8D800400717D495F83001A1
:104DC000C00613D43A46494600200EF0D1FDA0F5A6
:104DD0007F41FF390AD048B1A068401CA060206D17
:104DE000401C2065A06E401CA06629E0B9F1140F9C
:104DF00016D9E968A9F114022846143112F01CFEF4
:104E000002000DD0A0682B46401CA060206D401C05
:104E100020650020014600900C20FDF76BFA0FE0A2
:104E2000A9682846A1EB0A0101F09EF901000DD006
:104E3000E0682A46401CE06004F1200001F0CCFC50
:104E40006868016802B0BDE8F05F08471A48C5F815
:104E500038011A480078E8B195F83001C00719D038
:104E600031462846FEF701FEA0B9BBEB167F11D0F4
:104E70001348007820B9D5F83401FEF7BFFF48B1D8
:104E80005FEA18603FF473AF95F83001800707D5EB
:104E9000202006E031462846BDE8FC5FFFF70CBB4A
:104EA0000020CDE900600022434611462846FFF766
:104EB000CFF8BDE8FC9F0000A13A00001900FF1FD9
:104EC0001C00FF1F0169C868C97B00BA20F0FF0001
:104ED00008437047D0F894001431884201D2012071
:104EE00070470020704770B5054680690468002C43
:104EF0000BD060684FF0407604E06660284600F012
:104F00008DFB606810F0407FF7D170BD70B505462D
:104F100080690468002C0ED060684FF0406604E0A1
:104F20006660284600F0C6FC606810F0406FF7D15C
:104F30004FF08070606170BD2DE9F0410668044655
:104F4000002E3BD008F02CFE00272DE0B4F85010C6
:104F5000E06E00EB411504F17800FCF79EFE10F0C6
:104F600031FC38B368606F80288800F0200028800A
:104F7000B4F85000401C80B2A4F85000B4F85210AD
:104F8000884201D1A4F85070B4F84C00401CA4F839
:104F90004C00288840F080002880288940F4004098
:104FA00028814FF080703061B4F84C00B4F8521092
:104FB0008842CBD3BDE8F04108F002BEBDE8F081E5
:104FC0002DE9F0470646886992460C464FF00008E6
:104FD00098B1002504F178090CE0706A04EBC5076C
:104FE000401C7062396A11B14846FCF75DFE6D1CC9
:104FF000C7F820806069A842EFD84046C4F81880FE
:10500000BAF1000F00D06061BDE8F08710B5040070
:1050100014D0606F08B10EF087F9606E08B10EF021
:1050200083F9606D08B10EF07FF9A06E08B10EF043
:105030007BF92046BDE810400EF076B910BD0000A7
:1050400001004FF0000000D10048704700000C4004
:1050500002004FF0000004D1102902D2014850F89C
:105060002100704778A101002DE9F84F06468068BD
:1050700000270068007A00F085FAB0680068007ABE
:10508000FFF7DEFF050006D0B0688089202805D92B
:10509000FE48BDE8F88F4FF48230FAE708F080FD53
:1050A000B8200EF021F8040012D040F20F410EF0AB
:1050B00057FAB4612560B0680068407AFFF7C0FF16
:1050C0006060012068624FF000084FF4803907E00B
:1050D000EE4FBF1EEDE1012011F056F908F1010875
:1050E000686AC00701D0C845F5D3686ADFF8A0B385
:1050F000C00773D1A860E7486860B068428AA4F826
:105100005220B0688389A4F85E30B068018A4FF6F7
:10511000F07031B10F3101406181B168C98A11B9B4
:105120005DE0F18AF6E70F3101402181DFF86893F5
:10513000D018102101EB4011D9F800000EF004F84E
:105140005FEA00084DD040F20E410EF009FA08F176
:105150000F0020F00F00C4E91A80B4F85210202389
:1051600000EB411244F8702F5A4202EB41114352B6
:1051700054F81C09618902EB411143526089A080F7
:1051800080000DF0B1FFDFF8088344F85409A8F15E
:105190000F0848B340F20C410EF0E2F9B068008B02
:1051A00000EB4000C0000DF09FFF6066E0B140F2F0
:1051B0000D410EF0D5F9B06862892389C18990F854
:1051C00008C05143828A10315A43438B10329B01ED
:1051D0005FEACC7C0AD040F2F25C09E040E1B18A9F
:1051E000A1E7AB4F0E3F64E1474662E140F2EE5C5F
:1051F000808BE246114400FB0AF019440144D9F8BF
:1052000000000DF041FF5FEA000810D040F2ED31E0
:105210000EF0A6F908F10F0020F00F090020C4F8E5
:105220007480E067804604F17C0000900AE0984FAB
:10523000BF1C3EE149460098FCF736FD618908F144
:1052400001088944B068C1894145F3D809F10F00CC
:1052500020F00F0800208146A06704F1780000903C
:1052600007E041460098FCF71FFD218909F101097B
:105270008844B068818A4945F3D804F180004FF032
:105280000009009007E041460098FCF70DFD08F189
:10529000400809F10109B068418B4945F3D804F190
:1052A00084004FF00009009006E041460098FCF7AA
:1052B000FBFCD04409F10109B068818B4945F4D861
:1052C00000218846606E08E0E268BAB32269506047
:1052D0002061C0F804801830491CB268128B8A42E1
:1052E000F2D82046FFF728FEF068F17B00BA20F0E4
:1052F000FF000843C5F8E400308A40BA0004C5F84E
:10530000E800C5F81881C5F81C81C5F82081C5F8EA
:1053100024812089C5F88801E06EC5F88001206FDE
:10532000C5F88401B2686FF0404101EA0A40916813
:10533000001D8B0605D540F4807006E0FFE7E060B5
:10534000C6E7490601D520F004001179890701D587
:1053500040F40070C5F88400B068007A400705D5B5
:10536000D5F8840040F00100C5F88400B0680079E9
:10537000C00701D0404600E00420C5F8C400B16871
:105380000868097A027AC06802EB8203434A52F83D
:105390002330B3FBF0F0401C20F00100C90601D51A
:1053A00040F0800061684864686E40F000506866B4
:1053B000B0680068007A00EB800002EB80013046A4
:1053C00000F0AAF878B14FF0C060A86012206862BF
:1053D000B068017A0068890708D5406801683046DE
:1053E0008847E8B304E02A4F0D3F62E0807AB0744A
:1053F0004046C5F8C081B1680989C90405D5D5F80A
:10540000C01141F00801C5F8C011B16809898904CB
:1054100005D5D5F8C01141F01001C5F8C011C5F887
:10542000C401B1680989490405D5D5F8C41141F012
:105430000201C5F8C411B1680989090405D5D5F878
:10544000C41141F00401C5F8C411B1688968C903E9
:1054500005D5D5F8C41141F04001C5F8C41100E0EC
:1054600026E0B168098911F4425F03D04FF48071DE
:10547000C5F84411B1684CF280028968114201D02C
:10548000C5F89001B0680068406809E017040100A1
:10549000120401000080FF7F6000FF1FF89C0100E4
:1054A00041683046884718B14FF08070286106E0A7
:1054B0005F46304600F00AFC2046FFF7A7FD08F0E3
:1054C0007FFB3846E5E52DE9F047044680680F4646
:1054D00098460068DDF820901146007AFFF7B8FD85
:1054E0000546A66908F086FB06EB870646F8900F8E
:1054F000284608F0ADFB706122464146284608F078
:1055000009FC002805D0E8B2012249460FF04AFC08
:105510000120BDE8F08700007CB50C460546D4E9C3
:105520000301CDE90001154B012200212846FFF7B8
:10553000CAFF002821D0D4E90301CDE900010F4BB7
:10554000002201212846FFF7BEFF002815D0D4E92C
:105550000101CDE900010A4B052202212846FFF78F
:10556000B2FF002809D0D4E90101CDE90001044BC4
:10557000042203212846FFF7A6FF7CBD0D4F000043
:10558000E74E0000002801D107F048B9704700003D
:10559000F0B5806903684FF0FF3003B3164E002466
:1055A00000250A5D82EA0007FF074FEA50004FEA34
:1055B000520200D070406D1C082DF3D3641C062CE1
:1055C000EED3800E8860012120280BD2D3F824214D
:1055D00000F01F0081400A43C3F824210AE04FF481
:1055E0008230F0BDD3F8202100F01F0081400A4333
:1055F000C3F820210020F0BD2083B8ED70B505462A
:105600000024A86821460068007AFFF721FDC0B297
:105610000FF0A2FB641C102CF3D370BD2DE9FC5FCE
:1056200005464FF0000A846934E100BFB4F84E200B
:10563000E16E01EB4216318809067DD4521C92B20C
:10564000A4F84E20B4F852108A4201D1A4F84EA01A
:10565000401EA4F84C00E869401CE861308810F056
:10566000AFF80746708810F0ABF80090706810F043
:10567000A9F88346606940B1002081460126F807F9
:1056800005D0686C401C68641AE00120F5E7380515
:105690003ED5B80703D5286D401C286510E0B80634
:1056A00003D5A86C401CA8640AE0F80603D5E86B93
:1056B000401CE86304E078070BD5286C401C286484
:1056C000A86A3246401CA86221462846FFF778FCAB
:1056D000D8E000998809182805D205EB800050F819
:1056E000902F521C0260AA686069D28A00FB1211D6
:1056F000091F0BD5CDF800A0B9F1000F09D16069E1
:1057000004EBC00042691144416102E0009100E0F5
:105710000026B9F1000F21D06A4659462846FCF709
:1057200005FBA06100287DD0616904EBC101C1F8CF
:1057300020B00098616900E0B1E004EBC101C861EC
:105740006069401C0121606101914EB1E068B0F1D7
:10575000000812D04068E06068B10EE0A069E1E79F
:10576000062807D3324621462846FFF729FCE86F72
:10577000401CE8678EE0C4F810A0B8F1000F76D0A6
:105780004949C8E90015B9F1000F25D00098C8E9CA
:10579000020B402813D204F18000FCF77EFA0600C9
:1057A0000DD0216A009AFAF7EDFF4049C8F80C6065
:1057B0000020C8F800100190E86E401CE866C8F8A8
:1057C00010A0C8F814A0A06956464268C1684046B7
:1057D0009047A66166612FE004F18400FCF75DFA52
:1057E0005FEA00092BD03249C8F80010C8E902A9C5
:1057F000002616E004EBC607FA6952B14846396A3A
:10580000FAF7C0FFF869D8F8081081440144C8F8D5
:10581000081004F17800396AFCF746FA761CC7F8DC
:1058200020A000E02EE06069B042E3D8286F401C61
:105830002867B8F1000FC2D1019810BB22E0D5F85B
:1058400084003246401CC5F8840021462846FFF7F4
:10585000B7FBE06840B12169C1F80480C4F810804A
:10586000C8F804A016E002E0C4F80C80F6E732465F
:1058700021462846FFF7A4FBD5F88000401CC5F858
:10588000800007E0686A5946401C686204F17800AD
:10589000FCF70AFAB4F84C0000287FF4C7AE2046A3
:1058A000FFF74AFBBDE8FC9F655A0000AB5A0000B9
:1058B0009D5A00002DE9F04106464FF001080027EF
:1058C00084695AE0B4F85C10206F00EB4115288819
:1058D000000658D428880FF073FF216E0843206615
:1058E00000050AD52766F06A401CF062B4F85C1027
:1058F000606D50F821000168884794F85C20D4F866
:105900008C1008FA02F0014211D068680FF05AFFBB
:10591000014604F18000FCF7C7F994F85C20D4F844
:105920008C1008FA02F08143C4F88C1014E0D4F80B
:105930008810014210D068680FF044FF014604F15E
:105940007C00FCF7B1F994F85C20D4F8881008FAD0
:1059500002F08143C4F88810B4F85C00401C80B2A7
:10596000A4F85C00B4F85E10884201D1A4F85C7021
:10597000B4F85800401CA4F85800B4F85800B4F823
:105980005E1088429ED3BDE8F0813EB58569002453
:10599000CDE900420293847C0A464FF00053214631
:1059A000686800F001F83EBD2DE9F0410400DDE932
:1059B0000657089E2ED0606C10F07E0028D04FF461
:1059C0000008C4F804804FF0786000EAC1504FF43A
:1059D000F801184301EA82410843A9B208430E497D
:1059E00008432064002506E06068000205D400201A
:1059F00010F0CAFC6D1CB542F6D3B54203D017B106
:105A0000206C80B23860C4F80480B54202D0012016
:105A1000BDE8F0810020FBE70000024070B581691D
:105A200000231A460D6815B10121446812E04FF4B5
:105A3000823070BDA0680AE08668202E06F01F063E
:105A400001FA06F601D2334300E03243C068002871
:105A5000F2D12469002CEDD1C5F82431C5F82021FC
:105A6000002070BD70B504464068856908F098F85C
:105A700005F17800E168FCF717F90020E060E968BB
:105A800051B129694C602C6160602846FFF754FAD7
:105A9000BDE8704008F094B8EC60F4E70146406857
:105AA000806900F1840200F007B80146406880690F
:105AB00000F18002AFF3008070B516460C46054633
:105AC00008F06EF83046E168FCF7EEF80020E06080
:105AD000E96839B129694C602C616060BDE87040AB
:105AE00008F06EB8EC60F7E72DE9FF5F84690646C1
:105AF0009846D4F800B091464FF0000A5FEA0B00D8
:105B000013D008F04DF8B4F8580098B14FEA991046
:105B1000182805D206EB800050F8F01F491C0160E0
:105B2000019801210830054612E04FF4823004B09C
:105B3000BDE8F09F306B401C3063504853E0426832
:105B400002F10F0323F00F03934200D0002108302D
:105B50000268002AF3D121B1D6F88C00401CC6F8A7
:105B60008C00B4F85A10206FB8F1010F00EB411708
:105B7000686805D800F10F0121F00F02824241D080
:105B8000B9F1400F13D804F18000FCF786F85FEA02
:105B900000080CD094F85A200120D4F88C109040C2
:105BA0000143C4F88C10706F401C706712E061896B
:105BB000494513D304F17C00FCF76FF85FEA000855
:105BC0000CD094F85A200120D4F88810904001435A
:105BD000C4F888104FF000092E6810E0306B401CAC
:105BE00030632648C01D824644E000BF08EB090030
:105BF00032466968FAF7C6FDB14455F8086F002EC1
:105C0000F4D106E0804656F8880FD5F80090401C85
:105C10003060388800F02000388040460FF0D2FD18
:105C200078601FFA89F00FF0CBFD7880388840F05B
:105C30008C003880388940F040003881B4F85A2010
:105C4000616D019841F82200B4F85800401EA4F894
:105C50005800B4F85A00401C80B2A4F85A00B4F8B6
:105C60005E10884202D10020A4F85A004FF08071E3
:105C7000CBF8141007F0A4FF504658E70F040100BA
:105C800070B584690546206898B101214162002100
:105C900081600C4941602846FFF7B0FC284600F0BF
:105CA00015F8B4F84C00B4F85210884204D00648F5
:105CB00070BD4FF4823070BD2046FFF7A7F9002079
:105CC00070BD00000080FF7F0604010010B504468F
:105CD0000122002100F011F800220121204600F0ED
:105CE0000CF805220221204600F007F82046042285
:105CF000BDE810400321AFF3008070B50346806813
:105D00000D4611460068007AFFF7A2F90446C0B2BA
:105D10009E690FF021F806EB8505D5F89010002953
:105D200007D0D5F8A4202046903507F0F3FF0020D7
:105D3000286070BD3EB585690024CDE9002402933A
:105D4000847C0A464FF0805321466868FFF72CFE9A
:105D50003EBD70B5054601200DF020FFC068D0F8AB
:105D6000A84003E06168284688472468002CF9D1E0
:105D7000002070BD70B501200DF010FF406A00F0EA
:105D800033FC040012D00025C4F8405118222946E3
:105D900004F5A470C4F83451FAF7FCFC84F860519F
:105DA000C4F84451C4F86851C4F86C51204670BD21
:105DB0002DE9F0410546FFF7DDFF040036D004F180
:105DC000300007460DF040FC4FF4B87229462046DB
:105DD000FAF7D8FC246504F14C006060686805F1AE
:105DE0004C0188420DD1E868401B2044E060D4F8A3
:105DF000400160B1D5F84001401B2044C4F8400187
:105E000005E0083004F154060FC886E80F000026AC
:105E1000A66131463846A6620DF0B5FB29462046FC
:105E200000F09AF8C4F84461C4F880602046BDE8E8
:105E3000F081000010B50446FFF79CFF00281ED03B
:105E40004460A168C0F884100021C0F88810C167C0
:105E50008160E168C160214602E083681A44826083
