:020000040000FA
:10000000F0FE0220E1040000C70C0000C70C000055
:10001000C70C0000C70C0000C70C00000000000067
:10002000000000000000000000000000570B00006E
:10003000C70C000000000000E50B0000C70C00002A
:10004000C70C0000C70C0000C70C0000C70C000064
:10005000C70C0000C70C0000C70C0000C70C000054
:10006000C70C0000C70C0000C70C0000C70C000044
:10007000C70C0000C70C0000C70C0000C70C000034
:10040000FFFFFFFFFFFFFFFFFFFFFFFFFEFFFFFFFD
:1004100000F002F800F09AF80AA090E8000C82447C
:100420008344AAF10107DA4501D100F08FF8AFF259
:10043000090EBAE80F0013F0010F18BFFB1A43F0C2
:100440000103184720000200700002000A444FF028
:10045000000C10F8013B13F0070408BF10F8014B23
:100460001D1108BF10F8015B641E05D010F8016B68
:10047000641E01F8016BF9D113F0080F1EBF10F8CC
:10048000014BAD1C0C1B09D16D1E58BF01F801CBEF
:10049000FAD505E014F8016B01F8016B6D1EF9D572
:1004A0009142D6D370470000103A24BF78C878C173
:1004B000FAD8520724BF30C830C144BF04680C606A
:1004C000704700000023002400250026103A28BFB2
:1004D00078C1FBD8520728BF30C148BF0B607047B6
:1004E000124813494FF0FF324FF0080333B140F880
:1004F000042B41F8042BA3F10103F7E7EFF3088085
:1005000080F30988EFF3148040F0020080F3148830
:10051000BFF36F8FDFF81C00016841F470010160C8
:1005200005484FF0000101601EF06EBC80E100E064
:1005300080E200E088ED00E034EF00E01FB51FF03E
:10054000C3FAAFF300801FBD10B510BD00F00EF868
:100550001146FFF7F3FF1DF03BFA00F0D4FA03B4A5
:10056000FFF7F2FF03BC00F0D7FA00004FF00000E5
:100570004FF000027047000080F31188704753EA83
:10058000020C00F069802DE9F04B4FF00006002BC3
:100590001FBFB3FA83F503FA05F424FA05F65E40AB
:1005A00012BF1643B2FA82F502FA05F4C5F120052E
:1005B0001EBF22FA05FC44EA0C04203556EA044C1E
:1005C0004FEA144418BF641C4FF000084FF00009B4
:1005D000904271EB030C39D3002919BFB1FA81F7AE
:1005E00001FA07F6B0FA80F700FA07F6C7F120071C
:1005F0001EBF20FA07FC46EA0C062037B6FBF4FCC7
:10060000A7EB0507103F07F01F0BCBF120060CFAF4
:100610000BFB2CFA06F644BFB3460026202FA4BFDE
:100620005E464FF0000B5BEA060C08BF4FF0010B73
:1006300019EB0B09ABFB027C48EB0608C01B06FB61
:1006400002CC0BFB03CC71EB0C01C1E70B4602465D
:1006500041464846BDE8F08B13B54FF000004FF01F
:100660000001AFF30080BDE81C40704710B54C108E
:1006700084EA530404D54042C1F1000138BF491E49
:100680001B4204D55242C3F1000338BF5B1EFFF783
:1006900076FF14F0804F04D04042C1F1000138BF12
:1006A000491E14F0004F04D05242C3F1000338BF7A
:1006B0005B1E10BD40EA010310B59B070FD1042A51
:1006C0000DD310C808C9121F9C42F8D020BA19BA1D
:1006D000884201D9012010BD4FF0FF3010BD1AB182
:1006E000D30703D0521C07E0002010BD10F8013BD7
:1006F00011F8014B1B1B07D110F8013B11F8014BFE
:100700001B1B01D1921EF1D1184610BD10B5431C20
:1007100002E010F8011B71B18107FAD14FF00132EC
:1007200002C88C1A8C4314EAC211F9D0C01A0A0606
:1007300003D0C01E10BDC01A10BD0A0401D0801E17
:1007400010BD0902FCD0401E10BD40EA010370B587
:100750009B072ED14FF00136042A2AD308C810C9AE
:100760009D1B9D43121F15EAC61517D0D8B2E1B2E2
:10077000401A50EA056110D198B2A1B2401A50EA6D
:1007800005410AD123F07F4024F07F41401A50EA0E
:10079000052102D1180EA0EB146070BDA342DBD07E
:1007A00018BA21BA884201D9012070BD4FF0FF303C
:1007B00070BD0AB9002070BD10F8013B11F8014B63
:1007C00063B1A3420AD1521E08D010F8013B11F8C0
:1007D000014B1BB1A34201D1521EEDD1181B70BDBC
:1007E00001B500F051F801BD01B500F092F801BD6E
:1007F00001F0FF03114601B543EA032242EA024237
:1008000000F0CBF801BD00004FF0013C50F8042B84
:1008100051F8043B9A4221D1A2EB0C03934313EA13
:10082000CC1317D150F8042B51F8043B9A4215D140
:10083000A2EB0C03934313EACC130BD150F8042B17
:1008400051F8043B9A4209D1A2EB0C03934313EAFB
:10085000CC13DBD04FF00000704700BFD01A01BAB4
:10086000B1FA81F101F0180122FA01F0CB40C1F197
:100870002001DBB2C0B2C01A2CFA01F3D11A9143A5
:1008800011EAC311E6D17047032A40F2308010F01C
:10089000030C00F0158011F8013BBCF1020F62441B
:1008A00098BF11F801CB00F8013B38BF11F8013BAC
:1008B000A2F1040298BF00F801CB38BF00F8013B59
:1008C00011F0030300F08980083AC0F0088051F865
:1008D000043B083A51F804CBA0E80810F5E7121DD4
:1008E0005CBF51F8043B40F8043BAFF30080D207F3
:1008F00024BF11F8013B11F801CB48BF11F8012BBF
:1009000024BF00F8013B00F801CB48BF00F8012BE1
:100910007047431A28BF9A427FF6B6AF032A1044A5
:10092000114440F2268010F0030F1EBF11F8013D64
:10093000521E00F8013D10F0030F7FF4F6AF11F0E6
:10094000030300F08F80083AC0F00B8051F8043D9B
:10095000083A51F804CD40F8043D40F804CDFFF7C3
:10096000F3BF121D5CBF51F8043D40F8043DAFF3E6
:100970000080D20724BF11F8013D11F801CD48BF16
:1009800011F8012C24BF00F8013D00F801CD48BF4B
:1009900000F8012C70474FF000020429C0F01280CB
:1009A00010F0030C00F08A80CCF1040CBCF1020FB3
:1009B00018BF00F8012BA8BF20F8022BA1EB0C01F7
:1009C00000F07CB85FEAC17C24BF00F8012B00F87E
:1009D000012B48BF00F8012B704710B5203AC0F03A
:1009E0000B80B1E81850203AA0E81850B1E8185030
:1009F000A0E81850BFF4F5AF5FEA027C24BFB1E86D
:100A00001850A0E8185044BF18C918C0BDE81040DD
:100A10005FEA827C24BF51F8043B40F8043B08BFE6
:100A20007047D20728BF31F8023B48BF11F8012BAD
:100A300028BF20F8023B48BF00F8012B7047431A3B
:100A400028BF9A427FF6C9AF104410F0030F11443B
:100A50001EBF11F8013D521E00F8013D10F0030FBA
:100A60007FF4F6AF103AC0F00A8010B531E91850A3
:100A7000103A20E91850BFF4F9AFBDE81040530711
:100A800024BF31E9081020E9081044BF51F8043DA3
:100A900040F8043D12F0030F08BF7047D20728BF8B
:100AA00031F8023D48BF11F8012C28BF20F8023D63
:100AB00048BF00F8012C70474FF0000200B5134604
:100AC00094469646203922BFA0E80C50A0E80C506E
:100AD000B1F12001BFF4F7AF090728BFA0E80C501F
:100AE00048BF0CC05DF804EB890028BF40F8042B18
:100AF00008BF704748BF20F8022B11F0804F18BF85
:100B000000F8012B704710B50446AFF30080204673
:100B1000BDE81040FFF723BD01491820ABBEFEE73A
:100B2000260002007047000001DF704701DFFEE78A
:100B3000C348006872B6018B31B9416AC269D36992
:100B4000994201D062B603DF62B6704703DF704797
:100B5000FEE702DF704772B61EF0040F0CBFEFF322
:100B60000881EFF30981896911F8021C032905D175
:100B700000B500F027F85DF804EB21E0012902D16F
:100B8000AF48006855E002291AD1AD480068C16934
:100B90008A6842F001028A6000B502B4016C11F06B
:100BA000010F04D000B514F049F85DF804EB02BC65
:100BB0004A680B6813605A6000F004F85DF804EBB3
:100BC00062B6704707B59F48416811F0805F08D151
:100BD000EFF31182A2F1100280F822204FF0805131
:100BE000416007BD72B696480068EFF3098C9649DC
:100BF0008A78EFF311832CE9FC4FC369C3F814C062
:100C0000996A11F0020F14D0D3F834C08F4A52F809
:100C1000041B4CF8041B52F8041B4CF8041B52F83C
:100C2000041B4CF8041BF1EE101A4CF8081B8CEC5A
:100C3000200A72B6416A0A688A4203D189680900AB
:100C4000F9D1FEE74162C261938C4383916A11F04E
:100C5000020F18D0836C9A4215D08264D2F834C047
:100C60007A4C5CF8043B44F8043B5CF8043B44F8E1
:100C7000043B5CF8043B44F8043B5CF8083BE1EEC1
:100C8000103ABCEC200AD2F814C0BCE8FC4F83F345
:100C900011888CF3098802B4016C11F0010F04D0A3
:100CA00000B513F0FBFF5DF804EB02BC02B400B525
:100CB00017F036FC5DF804EB02BC62484FF00061AF
:100CC000416062B6704772B600B55D4B1B68198B08
:100CD00001F1010119834FF0000001B4EFF311821B
:100CE000EFF30581586B07B4EFF3088058630846AB
:100CF000196C11F0010F03D00FB414F023F80FBCDE
:100D00001A6B02B939E0904237D8DA6A811A34DBBB
:100D10009A6B4FEAD1014FEA8101515801B92CE099
:100D20000A6822B1824203D009690942F8D124E05D
:100D3000C8684A6808B462B6904772B608BC196CB5
:100D400011F0010F05D0EFF305800FB413F0D4FFBD
:100D50000FBC07BC586301BC198B491E1983DA69A3
:100D6000906A10F4805F0AD129B9596A09689142E2
:100D700018BFFFF727FF62B600BD9A6ADAE740F4B2
:100D80000030906262B600BD72B6F1B42C4B1B68A5
:100D9000D3F834C00CF1100C5CF804EB2C4820F0B4
:100DA0000100CCF818009CE8FF005DF804CBACF122
:100DB000040C27F400772CE9FF00F0BC8CF30888C2
:100DC00062B670471E480068C369996AD3F834C098
:100DD0001E4A52F8041B4CF8041B52F8041B4CF832
:100DE000041B52F8041B4CF8041BF1EE101A4CF8CB
:100DF000081B8CEC200A70474FF08002D0E84F1F90
:100E000000290CBFC0E8432F01E0002BF6D10846B3
:100E10007047EFF309807047EFF30880704780F365
:100E200008887047EFF30380704762B6704772B668
:100E300070477046704778467047EFF314807047EC
:100E40005800FF1F00ED00E020ED00E034EF00E06F
:100E50003B0D000002469168487E38B90120487673
:100E60000020887603481060012070470020087633
:100E700000BFFAE720BF02002DE9F0410646D6F890
:100E80009850002D2ED02C6F21E004F1340008F092
:100E90007BF804F1440008F077F804F1540008F0FE
:100EA00073F808E0D4F81C800020E061D8F8040052
:100EB0000168884700BFE06908B1012000E0002018
:100EC0000028EFD16769686F60616C673C46002C51
:100ED000DBD1A86F16F096FE284616F093FE002090
:100EE000C6F898000020BDE8F081C268D2F89810DA
:100EF000426912B1D0E904231A61026912B1D0E942
:100F000004325A610A6F824201D142690A674A6F0C
:100F10004261486770470246002070472DE9F04162
:100F20000646B468E068D0F898701AE0E5690020D9
:100F3000E061F86E401CF866E068006A401CE168F9
:100F40000862D5F8440140B141F20241D5F84401AC
:100F500006F01DFB0020C5F8440168680168884759
:100F600000BFE06908B1012000E000200028DDD1C9
:100F700004F1340008F008F804F1440008F004F823
:100F800004F1540008F000F82046FFF7AEFF0020FF
:100F9000BDE8F08110B50246D2F89830186F04E031
:100FA00004688C4200D102E040690028F8D100BFFB
:100FB00010BD2DE9F0478146D9F80840E068D0F827
:100FC00098502869401C2861A86D401CA86500BF86
:100FD00006F0A0F807461FB96869401C686150E038
:100FE0001C21384606F0F8F98046B8F1000F0CD005
:100FF000E869401CE8613A46414605F1380006F0D0
:101000001EFE7868016888473BE0FE681C2205F1F7
:1010100084013046FFF7E4FB206A000EB073206ABB
:10102000010CF173208C010A317494F82010717452
:101030002068000E30762068010C71762088010A45
:10104000B1762178F17607F5A470D4E90A23616AB4
:101050000C300EC00020B0710221F1713946E068F9
:1010600002F05BFE8046B8F1000F09D0E869401C31
:10107000E8613A46414605F1380006F0E0FD00E03F
:1010800000BF00BF206B4000206347F23051206B4F
:10109000884201D908462063206BC9F8000001206E
:1010A000BDE8F0872DE9FF5F80468A46D8F8985062
:1010B000686F28BBD5F8709009F1540007F07EFFE7
:1010C00083462F6F0DE007F1540007F077FF0646C7
:1010D00036B1BBF1000F01D0B34501D9B946B346D3
:1010E0007F69002FEFD1B9F1000F08D000200090E8
:1010F0000190CDF8089003906846FFF70FFF00BFFE
:101100006C6F34B9286E401C2866002004B0BDE81E
:10111000F09F60696867C4F800A00C49A163E463AC
:101120000B49A164E4640B49A165E465C4F80C8033
:1011300000202061286F6061606908B16069046106
:101140002C670020E0612046E0E70000B9130000B2
:10115000550E00001D0F000070B505460E463146C5
:101160002846FFF717FF04460CB1207E70BD002013
:10117000FCE72DE9F0410746A02006F01DFC0446DF
:101180001CB94FF4A050BDE8F08141F202012046A5
:1011900016F06EFE4FF47A7006F00EFCA067A06F9A
:1011A00090B141F20301A06F16F062FEA66F4FF0FE
:1011B000000805E0606F70616667643608F1010839
:1011C000B8F10A0FF6DB05E0204616F01BFD4FF4E0
:1011D000A050D8E704F17C01B86F01F02EF804F1BB
:1011E000840500202870012068700820A870002164
:1011F000E97006202871042068710020A87101217F
:10120000E97194F87C0028727D20015D69727E206E
:10121000015DA9727F20015DE9728020015D297363
:101220008120015D69730020C5F81200E882C7F8CB
:10123000984000BFA7E72DE9F04105460E46174646
:10124000D5F8988039462846FFF7A4FE0446CCB965
:10125000D8F86800401CC8F8680039462846FFF7EF
:1012600021FF044634B9E869401CE86141F20210EC
:10127000BDE8F0810020E0612662207604F13400B0
:1012800000F09AF8BE4203D104F13400FFF791FE5A
:101290000020EDE72DE9F04707460E4690469946B7
:1012A000D7F8985049463846FFF774FE0446002C9C
:1012B00031D149463846FFF7F5FE04464CB9F86986
:1012C000401CF861E86E401CE86670680168884759
:1012D0001BE0E661C4F8208006F5A470D0E9031293
:1012E0004069C4E90912E0620020207641F28830AA
:1012F0002063002060632F48606504F1340007F02C
:101300001DFE04F1540007F019FEA86E401CA866EB
:101310000020BDE8F087207E00BBE06970B1D4F802
:101320001CA00020E061E86E401CE866386A401CA2
:101330003862DAF804000168884700BFE661C4F843
:10134000208006F5A470D0E903124069C4E90912AF
:10135000E062A86E401CA8660020DAE7607E00B359
:10136000A07EF0B90120A07604F1540007F00CFE35
:10137000C4F8208006F5A470D0E903124069C4E9DE
:101380000912E06241F2883020630020606309485E
:10139000606504F1340007F0D1FD04F1540007F05A
:1013A000CDFD686E401C6866221D3146384602F04D
:1013B00035FDAEE720BF02002DE9F0478146D9F8A0
:1013C0000840E068D0F898502869401C2861A86D52
:1013D000401CA86505F09EFE07461FB96869401CC1
:1013E00068614CE01C21384605F0F6FF8046B8F1F4
:1013F000000F0CD0E869401CE8613A46414605F10F
:10140000380006F01CFC78680168884737E0FE6801
:101410001C2205F184013046FFF7E2F9206A000E34
:10142000B073206A010CF173208C010A317494F8B6
:10143000201071742068000E30762068010C7176DF
:101440002088010AB1762178F17607F5A470D4E9F5
:101450000A23616A0C300EC03946E06802F05DFC78
:101460008046B8F1000F09D0E869401CE8613A46AF
:10147000414605F1380006F0E2FB00E000BF206BBA
:101480004000206347F23051206B884201D9084662
:101490002063206BC9F800000120BDE8F087000040
:1014A0002DE9F04F85B00746D7F834010490049831
:1014B000D0F898603068401C3060FC68E079A17911
:1014C00040EA012B6078217840EA0120012812D1FE
:1014D000E078A17840EA0120B0F5006F0BD12079C7
:1014E000062808D16079042805D1BBF1010F0BD083
:1014F000BBF1020F08D0B068401CB060786801688A
:10150000884705B0BDE8F08F207A8DF80800607A32
:101510008DF80900A07A8DF80A00E07A8DF80B00AA
:10152000207B8DF80C00607B8DF80D00A07B010600
:10153000E07B41EA0041207C41EA0020617C40EAF6
:101540000109207E0106607E41EA0041A07E41EA59
:101550000020E17E40EA010849460498FFF71AFDA1
:10156000054615B90020019036E005F1340007F07A
:101570000BFD05F1440007F007FD05F1540007F0ED
:1015800003FD02986860BDF80C00288101202876D0
:1015900000206876A876604868646048686505F150
:1015A000440007F0CBFC05F1540007F0C7FC0AE04B
:1015B000E86900900020E86102AA0099049802F00E
:1015C0002DFC824600BFE86908B1012000E0002040
:1015D0000028EDD1012001904146049803F00CFB56
:1015E00028B941460498FFF796FC00287ED0019860
:1015F00008BB49460498FFF755FD0546C5B102985A
:101600006860BDF80C0028810120287600206876EB
:10161000A876414868644148686505F1440007F0D0
:101620008DFC05F1540007F089FC0020E86102E020
:101630007068401C7060BBF1010F5ED1306D401CC2
:1016400030653069401C3061F06D401CF065002051
:10165000A0710221E17196F87C0020727D20815DED
:1016600061727E20815DA1727F20815DE1728020A8
:10167000815D21738120815D61734FEA1860A073E1
:101680004FEA1841E1734FEA1821217484F8118060
:101690009DF80800A0749DF80910E1749DF80A10E7
:1016A00021759DF80B1061759DF80C10A1759DF8C2
:1016B0000D10E1754FEA196020764FEA1941617605
:1016C0004FEA1921A17684F81B90384605F0BAFD3F
:1016D00002AA3946049802F03EFB8246BAF1000F96
:1016E00018D0F069401CF0613A4600E00CE0514629
:1016F00006F1380006F0A3FA03E7706D401C706530
:1017000078680168884705E0B068401CB060786878
:101710000168884700BFF4E660900F00804F120018
:1017200010B5002408480068401E074908600846B4
:10173000006838B9054800680BF0E4FD0446002055
:1017400002490860204610BD8C00FF1F9000FF1F5B
:101750000020024908600249086070478C00FF1FA2
:101760009000FF1F70B504460D46234643222946CC
:10177000024800680CF0CCF870BD00009000FF1F1C
:101780000148007870470000A400FF1F1A48007845
:1017900000F0C00020B1402812D0802829D118E0E4
:1017A0001548407900F0400040B91348007800F037
:1017B000040008B9032070470020FCE70720FAE77F
:1017C0000D48407800F0020008B90120F3E702203C
:1017D000F1E70948407900F0400040B906484078F8
:1017E00000F0020008B90420E5E70520E3E7062041
:1017F000E1E70020DFE700000040064010B50346A7
:1018000026480078C0EBC000254C04EB80008069BE
:10181000244CB0FBF4F082B220480078C0EBC0004A
:101820001F4C14F8200000F0C00078B1082A0DD336
:10183000102A0BD82BB945F208205043C0F3CF3102
:1018400006E04FF42870504381B201E0012010BD42
:101850000812154CA072E1723BB92046007A00F0E4
:10186000BE0040F08000207207E00F48007A00F0D0
:10187000FE0040F0C0000C4C207200BF0A48007A05
:1018800000F080000028F9D10748007A00F020001D
:1018900008B90020DBE71B20D9E70000A400FF1FE8
:1018A000C8FE010040420F00004006403CB5024621
:1018B000C2EBC203FB4C34F8231001F0C0039BB110
:1018C000F94B9B6B43F40073F74CA363F74B9B6C92
:1018D00023F4E063F54CA36401F0800323B12346B5
:1018E000DB6C23F4E063E364F14B1B7A03F00E043A
:1018F000C2EBC203EB4D05EB83031B7A9C4255D030
:10190000EB4B5B7803F0010363B9E94B1B7A03F0FF
:10191000F103C2EBC20405EB8404247A2343E44CB4
:10192000237243E0E24B1B7803F0010333B3E04B37
:101930005B7803F0FE03DE4C637000BFDC4B9B79E9
:1019400003F00103002BF9D1D94B1B7A03F0F1030B
:10195000C2EBC204D34D05EB8404247A2343D44C58
:10196000237223465B7843F00103637000BFD04BC2
:101970009B7903F00103002BF9D017E0CC4B5B7887
:1019800003F0FE03CA4C637023461B7A03F0F10395
:10199000C2EBC204C34D05EB8404247A2343C44C38
:1019A000237223465B7843F001036370FFF7EEFE7A
:1019B00000BF00F00F03BF4C04EB031301F00F0452
:1019C00033F8140001F00F0383420ED1C2EBC203BF
:1019D000B44C04EB830353F8034F00949C88ADF898
:1019E00004409B798DF806300CE000F00F03B24CF8
:1019F00054F823301C6800949C88ADF804409B790F
:101A00008DF8063000F00F03082B7DD2DFE803F0DD
:101A1000040544696AB5DDDC00BF9DF80030A44CC4
:101A2000237000BFA24B9B7903F01003002BF9D069
:101A30009DF8013003F0BF039D4C647804F040042E
:101A400023439B4C63709DF8023003F0E003E4787D
:101A500004F01F042343964CE3709DF80630974C26
:101A6000237001F480731BB10123914C237302E0B6
:101A700000238F4C23739DF803308D4C237101F4A8
:101A8000007323B123461B7943F0400323719DF873
:101A90000430874C6371D1E09DF80030844C237092
:101AA00000BF834B9B7903F01003002BF9D09DF806
:101AB000013003F0BF037E4C647804F040042343FC
:101AC0007B4C63709DF806307C4C237001F0200342
:101AD00033B100BF764B9B7903F00103002BF9D0A3
:101AE000ACE000BF9DF8013003F0BF03704C647898
:101AF00004F0400423436E4C63709DF806306F4C35
:101B0000237001F4807300E097E01BB10123684C5F
:101B1000237302E00023664C23739DF80030644C6D
:101B2000237001F0800333B100BF614B9B7903F058
:101B30000203002BF9D000BF5D4B9B7903F010032B
:101B4000002BF9D19DF8023003F0E003584CE47803
:101B500004F01F042343564CE3709DF803302371B7
:101B600001F4007323B123461B7943F04003237132
:101B70009DF804304E4C637160E09DF800304C4C91
:101B800023709DF8013003F0BF03647804F0400433
:101B90002343474C63709DF80630484C237001F492
:101BA00080731BB10123424C237302E00023404C9D
:101BB000237301F0800333B100BF3D4B9B7903F0E9
:101BC0000203002BF9D039E000BF9DF806303B4CF2
:101BD00023700023364C23739DF8003023709DF84A
:101BE000013003F0BF03647804F040042343304C19
:101BF000637001F00F03072B10D1C2EBC203294C15
:101C000004EB83039B792A4C2371C2EBC203254C5E
:101C100004EB8303DB79264C637106E09DF8033007
:101C2000234C23719DF80430637100BF204B9B79D6
:101C300003F04003002BF9D000E000BF00BF0828EC
:101C400029D2DFE800F0040D0E051617182000BF9A
:101C500000BF174B9B7903F00C03002BF9D11AE05E
:101C600000BF00BF124B9B7903F00C03042BF9D18A
:101C700011E000BF00BF00BF0D4B9B7903F00C03C8
:101C8000082BF9D107E000BF094B9B7903F00C0347
:101C90000C2BF9D100BF00BF01F00F0383427FF48A
:101CA00088AE3CBDC8FE01000080044000900440A6
:101CB0000040064048FE010054FF0100005006406D
:101CC00010B50446022C01D9022010BD3A48C07854
:101CD00004280ED100203849487000BF374880786A
:101CE00000F004000028F9D000BF3348C078042871
:101CF000FBD04FF0A2703249486424B1012C06D0C9
:101D0000022C0CD107E00020FFF7D0FD08E00120F5
:101D1000FFF7CCFD04E00220FFF7C8FD00E000BFA4
:101D200000BFC4EBC400274901EB8000406924498F
:101D300048642548006820F44020C4EBC401214ACF
:101D400002EB8101C96808431F4908601C484068CC
:101D500020F44030C4EBC40102EB8101096908435F
:101D600017494860204604F0AFF81848047000781E
:101D7000C0EBC000134901EB8000807800F0020046
:101D8000C0B140200C49487010480078C0EBC0003A
:101D90000C4901EB8000807800F0040028B106486F
:101DA000407840F080000449487000BF0248C07885
:101DB0000428FBD1002088E700E0074000D007405E
:101DC00000800440C8FE010000700440A400FF1F12
:101DD00030B502698168002303E000240C70491CBF
:101DE0005B1C0D2BF9D30D39002445692C7090F83C
:101DF000F04184B1D0F8F441052C0CD0046A240ED3
:101E00001473046A250C5573048C250A95732024D9
:101E1000255CD57306E00024147300255573957373
:101E2000D57300BFD0F8F441012C06D1C5682C70E1
:101E3000D0F82042C0F8244265E00324C5682C7025
:101E4000D0F8F441052C07D0D0F8F441062C03D08B
:101E5000D0F8F441072C4ED136240C70491C0424D0
:101E60000C70491CD0F8F441072C0ED1C5682C70B9
:101E7000C469240E0C70C469240C4C70848B240A31
:101E80008C70047FCC70091D36E0F0242458240E99
:101E90000C70F0242458240C4C70F024245A240A8A
:101EA0008C70F024245CCC70091D32240C70491C09
:101EB00004240C70491CF4242458240E0C70F424BF
:101EC0002458240C4C70F424245A240A8C70F424D2
:101ED000245CCC70091DD0F8F441062C09D10024F3
:101EE0001473002555739573D5730424C5682C703D
:101EF00002E0416900E04169FF240C70491C04695B
:101F00000C1BC0F8244230BD3EB504460294024981
:101F1000684605F05EFB3EBD1D1F000070B506461D
:101F2000B568D5F8A00030B3D5F8A04004F5E0704E
:101F300007F02AF804F5E87007F026F804F5F070C9
:101F400007F022F80720C4F8F4012046FFF740FF0D
:101F5000204600F017F894F8F00120B1084904F584
:101F60002A7005F02CFBFFF7DBFB204615F04AFE3C
:101F70000020C5F8A0000021304605F008FB70BD28
:101F80003B4000007CB5044605F0C4F8054605B9A1
:101F90007CBD28462269D4F8241205F0E0F894F8B4
:101FA000F00160B10020CDE90050F0200259F4208A
:101FB000015943230548006800F00AF803E0284669
:101FC0002168FFF7CFFB00BFE2E700009000FF1F92
:101FD0002DE9F04385B007460C4615461E46DDE95F
:101FE0000C89002003900490019002900120ADF82C
:101FF0000C000220ADF8040003AA0021204605F0E1
:1020000039FF01AA3146284605F034FF434601AAAC
:1020100003A93846CDF800900BF0D8FC05B0BDE818
:10202000F0830146086808B102680A6070470268D8
:102030000A600160704700002DE9F04706468946B6
:10204000344604F5A87016F0E3F8251D07E028686B
:102050000088484500D105E0286800F1100528688F
:102060000028F4D100BF286830B904F5A87016F034
:1020700061F81448BDE8F0872F683869286004F5D6
:10208000A87016F057F8D7F80880384615F0BAFD52
:1020900005E0D8F80CA0404615F0B4FDD046B8F1E4
:1020A000000FF6D104F5A87016F0B2F8A068006829
:1020B000006881693046884704F5A87016F03AF840
:1020C0000020D7E7090401002DE9FC4380460B46B8
:1020D00016460E2703F10C02507892F800C040EA31
:1020E0000C25B5F5014F09D1901C3F1D821C92F8BB
:1020F00001C092F800904CEA092500BF40F2DC5084
:1021000085421DDC02F1020C9CF80000AA2803D1D4
:102110009CF80100AA2802D00020BDE8FC8307EB50
:1021200005093068484501D20020F6E7781930608B
:102130000CF10602507892F8009040EA092500BFA1
:10214000D8F8044061E02088A8425DD118788DF865
:10215000000058788DF8010098788DF80200D87842
:102160008DF8030018798DF8040058798DF8050072
:102170009DF8000000F00100F0B39DF80000FF287A
:1021800013D19DF80100FF280FD19DF80200FF2810
:102190000BD19DF80300FF2807D19DF80400FF280C
:1021A00003D19DF80500FF282DD0A16826E09DF8F9
:1021B000000091F800C060451FD19DF8010091F822
:1021C00001C0604519D19DF8020091F802C0604538
:1021D00013D19DF8030091F803C060450DD19DF81F
:1021E000040091F804C0604507D19DF8050091F8FE
:1021F00005C0604501D103E005E0C9680029D6D1DA
:1022000000BF01B9002402E02469002C9BD100BF6B
:10221000204682E701460B469868028A12B940F2CE
:10222000DC5070479868007A00F0010010B1A2F10C
:102230001600F6E7A2F11200F3E702461346187BF8
:102240000870587B4870987B8870D87BC870187C61
:102250000871587C48710020704701460A4622B137
:10226000906810B19068806870470020FCE700001B
:102270002DE9F04104460E4617461D4654B904EBBD
:10228000C401064A02EB81002A46314600F008F8F4
:10229000BDE8F0814FF48230FAE7000088FC0100CD
:1022A0002DE9F04705460E46174600241DB94FF4A8
:1022B0008230BDE8F087A88A698A884201DA354809
:1022C000F7E7062016F08CF9044608E0A0680068DD
:1022D000007A2968097A884200D102E02468002C3B
:1022E000F4D100BF1CB13C602A48801CE1E700200B
:1022F00038604FF4B67015F05BFB044614B92548FE
:102300001538D6E74FF47B71204615F0B1FD3078D3
:10231000207371786173B178A173F178E1733179C9
:10232000217471796174A560A068007A00F00100E1
:1023300080F0010080F00109A168088A4A46002166
:1023400000F0EAF8E082A268918BD08A4A4600F059
:10235000E3F8A082012104F5A87015F0A0FD28681B
:1023600000680168204688478046B8F1000F06D112
:1023700022462146062016F02DFA3C6008E004F5BE
:10238000A87015F0FFFD204615F03CFC00203860D9
:1023900040468EE7170401002DE9F0478046894644
:1023A00015464746287800F0010010B92248BDE8DC
:1023B000F08707F5A87015F02BFF7E6804E03088E1
:1023C000484500D102E03669002EF8D100BF36B989
:1023D00007F5A87015F0AEFE1748C01EE7E71020FD
:1023E00015F0E6FA044634B907F5A87015F0A2FE18
:1023F0001148401CDBE740F2EE31204615F038FD75
:102400002878207068786070A878A070E878E0700C
:102410002879207168796071B068E060B460B8684C
:1024200000680068214642694046904707F5A87059
:1024300015F080FE0020BAE70C0401002DE9F047FA
:1024400080468A461546464606F5A87015F0E0FE19
:10245000776804E03888504500D102E03F69002FDA
:10246000F8D100BF37B906F5A87015F063FE24480F
:10247000BDE8F08707F1080421E02068007829789A
:10248000884219D1206840786978884214D1206840
:102490008078A97888420FD12068C078E97888428E
:1024A0000AD1206800792979884205D120684079CD
:1024B0006979884200D105E0206800F10C042068A9
:1024C0000028DAD100BF206830B906F5A87015F0F1
:1024D00031FE0B48401DCBE7D4F80090D9F80C0032
:1024E0002060B0680068006881694046884706F54A
:1024F000A87015F01FFE484615F084FB0020B7E7D2
:102500000904010070B504462546A86800684068C3
:10251000C1682846884770BD034601B933B912B176
:1025200040F2F250704740F2EE50FBE71846F9E7F0
:102530002DE9F0470646884691469A46354605F508
:10254000A87015F065FE2F1D0DE038680088404525
:1025500006D105F5A87015F0EDFD1548BDE8F0872A
:10256000386800F1100738680028EED1142015F003
:102570001FFA044634B905F5A87015F0DBFD0C48C8
:10258000401EEBE740F2EF31204615F071FCA4F855
:102590000080C4F804900020A060C4F80CA0206162
:1025A0003C6005F5A87015F0C5FD0020D6E70000D9
:1025B000080401002DE9FF4F87B00E469946DDF86B
:1025C00050A0079C6D4800680390039890F8400065
:1025D00000F0010040B109983346CDE9000968498F
:1025E0000120079A12F0DEFB0AF0020010B112205F
:1025F000059001E00E200590B1680598814205D252
:10260000606B401C6063DFF87C81A1E04FF0000B41
:10261000CDF810B006F10800069015E006980068A5
:10262000E18A884207D9606B401C6063DFF85481FF
:1026300008F101088CE00698006883440498401C67
:102640000490069808300690069800680028E5D1A6
:10265000E08A584507D2606B401C6063DFF8248134
:1026600008F1010874E0F56899F80000287099F8FD
:102670000100687099F80200A87099F80300E870EA
:1026800099F80400287199F805006871207BA871F9
:10269000617BE971A17B2972E17B6972217CA9725E
:1026A000617CE97205F10C070AF0020078B1B81CF0
:1026B00081223A7000227A70CAF34B12CAF3820365
:1026C00042EA43310A0A02704170871C00BF0AF0D7
:1026D0000100A8B1B81C0599ABEB0101090A3970DA
:1026E0000599ABEB01017970AA21017041700321BA
:1026F00081700021C170002202714271871D00BFEC
:102700000998000A38700998787004F5A87015F0D7
:102710007FFD01E018F0C4F904980290CDF800A004
:10272000A06800680068D0F808C05A4631462046C4
:10273000029BE047804640461249491D8842E9D045
:1027400004F5A87015F0F6FCB8F1000F03D000BF37
:10275000304631688847039890F8400000F0010047
:1027600040B100203346CDE9008005490220079A98
:1027700012F018FB40460BB0BDE8F08F5800FF1F69
:10278000010010000A04010070B5054615B94FF4A8
:10279000823070BD2C46606808B10C48F9E7A0682B
:1027A0000068006841682046884706465EB904F51F
:1027B000A87015F0E7FB22462146062016F072F8B5
:1027C000204615F01FFA3046E3E700001804010028
:1027D00038B500200090C82005F0EEF8044614B982
:1027E00041F2021038BD41F20801204615F040FBCD
:1027F000012015F0F5FE04616B460022024901201C
:1028000002F037FA0098EDE7392B00002DE9FC477C
:1028100005460E4617461C46DDF82890D4F8108071
:1028200094F8300100F0020008B1BDE8FC870020F8
:1028300043463A463146CDE90040284600F002F8CA
:1028400000BFF2E72DE9FF4F89B01D46DDF8589033
:10285000012015F0C5FE0469287B0106687B41EA6A
:102860000041A87B41EA0020E97B08430890287CCE
:102870000106687C41EA0041A87C41EA0020E97C2D
:1028800008430790287800074FEA9068E878A9780D
:1028900040EA0120A0EB08001FFA80FB0020079906
:1028A00002F0AAF908B1079800E0002005901798F7
:1028B00010B94FF409701790B9F1000F0FD0D9E992
:1028C0000301401A0390D9F8841003980144179823
:1028D000814204D2D9F884100398084417900BEB76
:1028E00008011798814204D91798A0EB08001FFA35
:1028F00080FB687A012813D1BBF1000F02D10DB023
:10290000BDE8F08F05EB0807387848B1387808281B
:1029100006D038780D2802DB3878122800DDEEE783
:102920002069401C206104F0F5FB06461EB9606971
:10293000401C6061E3E7B9F1000F0BD04946304617
:1029400004F068FC08EB0B012A46304604F007FC53
:1029500082462CE008EB0B0005F00AF8049004987E
:1029600068B96069401C6061324641F2021104F1AD
:10297000380005F064F9706801688847BFE741F2E4
:102980000901049815F074FA08EB0B022946049823
:10299000FDF726FF08EB0B013046049A04F00BFC10
:1029A0008246BAF1000F02D0049815F02BF9BAF163
:1029B000000F04D10821304604F00EFD8246BAF122
:1029C000000F0CD06069401C60613246514604F132
:1029D000380005F034F97068016888478FE7F768B8
:1029E000099838700A9878700020B8700021F97042
:1029F0000B98000E38710B98010C79710B98010A35
:102A0000B9710B98F8710121089802F077FB0290D8
:102A1000029801F0EBFF0190019888B1019890F8BD
:102A2000D80000F0020058B1B168019803F03BFAF9
:102A300030B9D6F8300140F04000C6F830011AE055
:102A40003146002001F06DFD06904FF6FF710698AB
:102A5000884201D1069802E00698C04380B20690F1
:102A60000698000AB8700698F870D6F8300120F081
:102A70004000C6F83001099811284CD2DFE800F078
:102A80002D4B4B091B214B4B274B4B0F1533393F1C
:102A90004500D4F89000401CC4F8900041E0D4F800
:102AA0009400401CC4F894003BE0D4F89800401C0B
:102AB000C4F8980035E0D4F89C00401CC4F89C0091
:102AC0002FE0D4F8A000401CC4F8A00029E0D4F8FE
:102AD000A400401CC4F8A40023E0D4F8A800401CC3
:102AE000C4F8A8001DE0D4F8AC00401CC4F8AC0049
:102AF00017E0D4F8B000401CC4F8B00011E0D4F8DE
:102B0000B400401CC4F8B4000BE0D4F8B800401C7A
:102B1000C4F8B80005E0D4F8BC00401CC4F8BC0000
:102B200000BF00BF0020009001213046089B059A9D
:102B300002F01EFE00BFE2E62DE9F04F8FB0054621
:102B4000012015F04DFD04692068401C2060EF68ED
:102B5000284603F099F90E90284601F037FF814688
:102B600038780D90A86804280BD2A068401CA0609B
:102B7000A06D401CA0656868016888470FB0BDE87B
:102B8000F08F95F8300100F0400088B92946002008
:102B900001F0C7FC4FF6FF71884209D0A068401CC5
:102BA000A060606D401C6065686801688847E5E763
:102BB0000D9805280AD004DC002878D003284ED1CF
:102BC0004DE108284CD00B28F9D149E13E46A868D0
:102BD0001C2809D2A068401CA060A06D401CA06504
:102BE000686801688847C9E730790106707941EA69
:102BF0000041B07941EA0020F17940EA010B307ED2
:102C00000106707E41EA0041B07E41EA0021F07E7B
:102C100008430A905946002001F0EEFF10B9BBF1BD
:102C2000000F03D1A068401CA06018E00A990E981C
:102C300001F0B4FF68B1CDF814B00A9807904FF0D6
:102C4000FF30089000200690E749684604F0B7FC82
:102C500005E0A068401CA060E06D401CE06571E1EB
:102C600009F1010050B109F07040B0F1604F09D195
:102C70004946D5F834011AF04DFB18B9A068401C3C
:102C8000A06090E00421284604F0EEFB8246BAF1F1
:102C9000000F0DD0E068401CE0602A46514604F168
:102CA000200004F0CCFF68680168884766E77BE095
:102CB000284604F0C7FA2069401C206104212846F8
:102CC00004F08AFB8246BAF1000F0FD0606F401CFF
:102CD00060676069401C60612A46514604F1380013
:102CE00004F0ADFF68680168884747E7EF68002097
:102CF00038707870B8700021F970C5F84001012172
:102D00000E9802F0FBF90C900C9801F06FFE0B90FE
:102D10000B9888B10B9890F8D80000F0020058B1D9
:102D2000A9680B9803F0BFF830B9D5F8300140F02E
:102D30004000C5F8300119E02946002001F0F1FB00
:102D400080464FF6FF71884501D1404602E06FEAA8
:102D5000080080B280464FEA1820B87087F80380D8
:102D6000D5F8300120F04000C5F8300109F070407E
:102D7000B0F1604F04D04946284601F023FC20B151
:102D8000D5F8340101F058FE8146D4F8A800401C63
:102D9000C4F8A800002000904A46012128460E9B56
:102DA00002F0E6FC0025CDE0BB46A868082809D261
:102DB000A068401CA060A06D401CA0656868016808
:102DC0008847DBE69BF805009BF8041040EA0120E9
:102DD0000A909BF807009BF8061040EA0120099032
:102DE000D4F8C06037E0306A81890A98814231D1D5
:102DF000B18C099881422DD1B06810B1D6E902108A
:102E0000C860D6E90201086006F1100006F0BCF8BF
:102E100004F0CDFF0890B06A089904F0D5FF316A3C
:102E2000886128690022316A0A604A600121326A99
:102E30001180017B0A06417B42EA0142817B42EA22
:102E40000121C27B1143326A51600021304604F0F7
:102E50009EFB02E0B668002EC5D100BF72E000BF45
:102E60000A9701200890D5F808B0BBF11C0F68D371
:102E700007F10806ABF1080B00BF707A042800D0F8
:102E800020E030780007800E0990099814308345BF
:102E900000D217E0099806440998ABEB000B307B91
:102EA0000106707B41EA0041B07B41EA0020F17BE2
:102EB00008430E9000200E9901F09EFE089008989D
:102EC0000028DAD100BF30780007800E09900898FA
:102ED000B8BB09980830584533D80D98032813D14A
:102EE000787807900798022804D0032805D0052891
:102EF00009D105E00020079005E00120089002E0DC
:102F00000120089000BF03E003200D9001200790EE
:102F10000898B0B90020CDE9000B0A9800790106A5
:102F20000A98407941EA00410A98807941EA0021F3
:102F30000A98C07941EA0002334607990D98FFF7D5
:102F400081FC00BF00BF0D9811283CD2DFE800F0E3
:102F5000213B3B0915193B3B1D3B3B0D1125292FFF
:102F60003500206E401C206636E0606E401C6066B6
:102F700032E0A06E401CA0662EE0E06E401CE066D1
:102F80002AE0206F401C206726E0606F401C6067CD
:102F900022E0A06F401CA0671EE0E06F401CE067CD
:102FA0001AE0D4F88000401CC4F8800014E0D4F883
:102FB0008400401CC4F884000EE0D4F88800401C53
:102FC000C4F8880008E0D4F88C00401CC4F88C00D9
:102FD000A068401CA06000BF00BF15B16868016810
:102FE000884700BFCAE50000BB3F000070B505463A
:102FF000AC68002084F820001221204600F0A1FBDC
:10300000064666B904F08EFD42F21071B0FBF1F293
:1030100001FB12002061012084F8200070BD606A6D
:1030200048B1606A401E606242F210702061012067
:1030300084F82000F2E70020F0E770B504460D4662
:103040008820005908B9002070BD882002592946FF
:1030500020469047F8E770B504460D468C2000598D
:1030600008B9002070BD8C2002592946204690479F
:10307000F8E72DE9FC4104466769A6694FF00008AE
:10308000E068D0F88000F0B1E068D0F88000056812
:1030900017E0082E06D3D5E90001C7E9000108377B
:1030A000083E0BE056B1D5E90001CDE900013246FA
:1030B00069463846FDF794FB002600BFED6808F12D
:1030C0000808002DE5D1C4F818800020BDE8FC8177
:1030D00070B5044600252069A0F25A2020B9204688
:1030E000FFF7C7FF054602E041F2117500BF00BFC0
:1030F0002946204604F04BFA70BD000038B56C201C
:1031000004F05AFC044614B94FF4AE5038BD012007
:1031100015F066FAC4626B4600220549022001F0F0
:10312000A8FD009810B14FF4AE50EFE70098EDE71E
:1031300029380000044A42618061002180F8201093
:103140000221416270470000ED2F0000014600207F
:10315000C1F8CC000248C1F8D00000207047000040
:10316000ED3100007CB505460C4604480090019402
:103170006946284600F002F97CBD0000010000E02D
:103180002DE9FC4105460E464FF000081648009018
:103190000196694605F1CC0000F052FA07461FB1CE
:1031A0003946284600F095F916E0D5F8CC4004E001
:1031B0006068B04200D102E0E468002CF8D100BFA2
:1031C00004B90DE0204600F0BBF98046B8F1000FCD
:1031D00002D04046BDE8FC81D5F8CC000028E4D1FF
:1031E00000BF4046F6E70000010000E02DE9F04195
:1031F00006460F464FF0000806F1CC0412E02068A6
:103200004068B84203D0206800F10C040AE021466F
:10321000304600F05EF905461DB1B8F1000F00D14F
:10322000A84600BF20680028E9D14046BDE8F081EB
:103230002DE9FF4104460D461646012015F0D0F950
:10324000C768206818B9002004B0BDE8F081009676
:103250000195029400208DF80C006A46034907F19D
:10326000B40001F0CDF89DF80C00EDE771320000DC
:103270002DE9FC4781468A461746984645463E4614
:10328000C6B1B069B0B1B4692868009000BFA06849
:10329000696888420AD1606801906946A86800F0B0
:1032A000CFF918B101202873BDE8FC872468B06904
:1032B000A042ECD10020F7E72DE9F04106460D468B
:1032C00017463A462946304600F074F8044614B1D1
:1032D0002046BDE8F081284600F00CF8044634B1E1
:1032E0003A462946304600F008F92046F1E700202A
:1032F000EFE700002DE9F0410546686801F076FB34
:1033000006461EB941F2C350BDE8F081294606F1D8
:10331000CC0000F095F9044634B120688068401C68
:10332000216888600020EFE7294606F1CC0000F014
:1033300061F9044614B941F2C150E5E73046296805
:10334000FFF77BFE074627B1204600F06FF93846AD
:10335000DAE7286820F0FF00B0F1604F06D020685F
:10336000FFF7E8FE0021206800F046F80248C6F8A2
:10337000D0000020C8E70000813100002DE9F041B5
:1033800005460E46314605F1CC0000F033F90746FC
:103390001FB941F2C150BDE8F08128463168FFF7FE
:1033A0004CFE044624B1384600F040F92046F2E7CE
:1033B0000020F0E72DE9F04106460F461546394654
:1033C000304600F03DF904463CB120688068401C5E
:1033D000216888600020BDE8F0813946304600F061
:1033E00009F9044614B941F2C150F4E701482860D4
:1033F0000020F0E7A734000070B504460D4694F8AD
:10340000200000B170BD2561012084F8200004F186
:10341000100005F093FD00BFF4E72DE9F0410746E9
:103420000C46904642462146384600F066F805466E
:10343000204600F007F806460EB105B93546284685
:10344000BDE8F0812DE9F0410546686801F0CEFA4B
:1034500006461EB941F2C350BDE8F081294606F187
:10346000CC0000F0EDF8044614B941F2C450F3E783
:1034700020688068401E216888602068806808B1E4
:103480000020E9E7206800F069FA204600F0CEF855
:10349000074630462968FFF7DEFD07460FB138467C
:1034A000DAE70020D8E7FEB5054600260CE02968DB
:1034B00003C9CDE901016A4601A92846FFF7ADFF1E
:1034C00004460CB106B9264628680028EFD13046DC
:1034D000FEBD2DE9F04107460C46206801683846DC
:1034E000FFF7B9FD0546204600F0A0F806460EB1EC
:1034F00005B935462846BDE8F0812DE9F04105467D
:103500000F4616463946284600F09AF804461CB97C
:1035100041F2C450BDE8F08120688068401E2168F7
:1035200088602068806808B10020F3E7204600F03A
:103530007DF88046286808B9002030604046E9E7F9
:103540002DE9FC418046012015F04AF84769002624
:10355000D8E90001CDE900017C6E14E0606B00B990
:1035600010E0694604F1340000F06AF848B104F153
:1035700038026946101FFFF750FF05460DB106B926
:103580002E4600BF2468002CE8D13C6F14E0606B2D
:1035900000B910E0694604F1340000F051F848B178
:1035A00004F138026946101FFFF737FF05460DB1D9
:1035B00006B92E4600BF2468002CE8D17C6F14E0C9
:1035C000606B00B910E0694604F1340000F038F88F
:1035D00048B104F138026946101FFFF71EFF054687
:1035E0000DB106B92E4600BF2468002CE8D1304644
:1035F000BDE8FC812DE9F04105460E46012014F09E
:10360000EFFFC768D7F8AC0004F00AFA044614B913
:103610000020BDE8F081D6E90001C4E900010120E5
:10362000A0602868E0602C602846F2E770B5044688
:103630002568E8682060284604F066FA002070BD1E
:1036400002460EE0106800680B68984206D11068C8
:1036500040684B68984201D110467047106800F1ED
:103660000C0210680028EDD100BFF6E72DE9F0410B
:1036700007460E46154626F0FF00B0F1604F01D117
:10368000BDE8F08100251DB942F21075002601E069
:1036900064204543D7F8CC4031E01EB12068B042E9
:1036A00000D02BE0206820F0FF00B0F1604F00D187
:1036B00024E094F8200098B104F1100005F07EFC9D
:1036C000A8421AD9204600F049F904F02BFAB0FBC1
:1036D000F5F105FB110841462046FFF78DFE0CE091
:1036E0002046FFF727FD04F01DFAB0FBF5F105FBBE
:1036F000110841462046FFF77FFE00BFE468002C1A
:10370000CBD100BFBCE770B506460D4625F0FF00E3
:10371000B0F1604F04D005F07040B0F1604F00D0C0
:1037200070BDD6F8CC4008E02068A84204D12046FD
:1037300000F014F900206062E468002CF4D100BFAE
:10374000EEE72DE9FC5F06468B46012014F048FFAA
:10375000C56A2869401C2861306820F0FF00B0F17C
:10376000604F02D10120BDE8FC9F706801F03EF976
:103770008246BAF1000F04D16869401C68610020DC
:10378000F1E703F0C7FC074627B96869401C686188
:103790000020E8E70821384603F01EFE8146B9F113
:1037A000000F07D07868016888476869401C686125
:1037B0000020D8E7FC6884F800B000206070A0709A
:1037C0000021E1703068000E20713068010C6171D9
:1037D0003088010AA1713178E17122460821002068
:1037E00014F098FD1FFA80F84FF6FF70804501D164
:1037F000404602E06FEA080080B280464FEA182097
:10380000A07084F8038030680190A86E401CA86600
:103810002020009072684FF481713846019B01F0BE
:10382000A7FF814601209EE72DE9F04105460F469E
:10383000012014F0D5FEC46A2068401C2060EE68A8
:10384000A86808280AD2A068401CA060A06D401C8F
:10385000A065686801688847BDE8F08129460020B6
:1038600000F05FFE4FF6FF71884209D0A068401C4F
:10387000A060606D401C6065686801688847EBE780
:103880003078112804D0122818D016282AD116E032
:10389000E06D401CE06533794FEA036C73794CEAC4
:1038A000034CB3794CEA032396F807C043EA0C01B2
:1038B0007278D5F83401FFF7D9FE17E000BF206E0B
:1038C000401C206632791306727943EA0243B279CA
:1038D00043EA0222F37942EA0301D5F83401FFF703
:1038E00012FF03E0206D401C206500BF00BF686828
:1038F0000168884700BFAFE770B504460025A0699E
:10390000082805D241F21271204603F040FE70BD36
:103910002069B0F5167F03D0A0F25920A0B909E0C4
:10392000E368D3F884206169D3F88000FFF7C4FC12
:1039300005460CE0E368D3F884206169D3F8800081
:10394000FFF76BFD054602E041F2117500BF00BFB5
:103950002946204603F01BFE00BFD8E710B50446F9
:1039600094F8200000B910BD04F1100005F00CFB24
:10397000002084F8200000BFF5E770B5064600255A
:103980003046FDF779FA04460CB105B925464FF4E7
:103990000061B06FFEF750FB04460CB105B9254637
:1039A00040F60601B06FFEF747FB04460CB105B9BF
:1039B0002546284670BD10B50446A06FFEF7A2FD4F
:1039C00010BD7CB505460C4601208DF80000002096
:1039D0008DF801005E208DF80200C4F306408DF8DA
:1039E0000300200A8DF80400E0B28DF805006A4655
:1039F0004FF40061A86FFEF7CFFC7CBD7CB5054697
:103A00000C4601208DF8000000208DF801005E209A
:103A10008DF80200C4F306408DF80300200A8DF8EB
:103A20000400E0B28DF805006A464FF40061A86F0B
:103A3000FEF704FD7CBD000070B50446A06FFEF7E4
:103A40000CFC064606F4805028B1D4F8D80040F0AB
:103A50000100C4F8D80006F4005028B1D4F8D8000A
:103A600040F00200C4F8D80006F4804028B1D4F831
:103A7000D80040F00400C4F8D80006F4004028B193
:103A8000D4F8D80040F00800C4F8D8002046FDF76C
:103A900070FB054605B146E02346244A4FF4006119
:103AA000A06FFEF745FD054605B138E02346204AE4
:103AB00040F60601A06FFEF73BFD054605B128E084
:103AC00054F8780FFEF7A6FBE0610120E0620620C3
:103AD000206354F8780904F1AC01FEF7AEFB94F8CA
:103AE000AC0004F091F8AD21085D04F08DF8AE2132
:103AF000085D04F089F8AF21085D04F085F8B02175
:103B0000085D04F081F8B121085D04F07DF8002023
:103B100070BD4FF40061A06FFEF78EFA00BF204623
:103B2000FDF7AAF900BF2846F2E70000853C000037
:103B30006D3C00002DE9FC5F81460F4692463C46F5
:103B4000A068401CA060A06DD9F808100144A165D0
:103B5000484603F0B3FA054645B9E068401CE0600A
:103B60004846D9F800108847BDE8FC9FEE683078D9
:103B700000F00100F8B13078FF2815D17078FF28E7
:103B800012D1B078FF280FD1F078FF280CD130790E
:103B9000FF2809D17079FF2806D1606E401C60664D
:103BA0000220C5F830010CE0206E401C2066042085
:103BB000C5F8300105E0E06D401CE0650120C5F866
:103BC00030014FF00E0B5946284603F04DFC80465D
:103BD000B8F1000F0CD06069401C60612A46414674
:103BE00004F1280004F02BF8686801688847BBE7F7
:103BF00005F5A47005F58071D1E91223096DC0E9BE
:103C000003234161C5F83471B0798DF80000F07973
:103C10008DF80100307A8DF80200707A8DF803007B
:103C2000B07A8DF80400F07A8DF8050095F830012F
:103C300000F0020068B1062204F1AC016846FCF70E
:103C400039FD30B92069401C2061686801688847E7
:103C50008AE75146284603F0E7FC28B9E068401C93
:103C6000E06068680168884700BF7DE770B504467A
:103C70000D46034A29462046FFF75CFF70BD000051
:103C8000A114000070B504460D46034A294620469B
:103C9000FFF750FF70BD0000ED5B00002DE9F84F0D
:103CA00005460C46174698464FF00E094FF0000A9D
:103CB0004946204603F090FB0646A86EA1680144E1
:103CC000A96676B1686A401C68622246314605F1F1
:103CD000400003F0B4FF6068016888473046BDE8E3
:103CE000F88F6168D4F884008860E1686068C1601A
:103CF000CDF800A0616843463A46A86FFEF75AFC2B
:103D0000064646B1686A401C68622246314605F1A3
:103D1000400003F094FF3046E1E77CB504460D46D1
:103D2000A069401CA061606F401C6067FF208DF897
:103D300000008DF801008DF802008DF803008DF869
:103D400004008DF805006B4640F606022946204621
:103D5000FFF7A4FF7CBD70B504460E461546A0696A
:103D6000401CA061E06E401CE0662B4640F6060257
:103D700031462046FFF792FF70BD2DE9FC4704460F
:103D80000F4690461D46DDF82890A069401CA061B2
:103D9000681C80B9606F401C6067FF208DF80000D0
:103DA0008DF801008DF802008DF803008DF80400F5
:103DB0008DF8050028E005F07040B0F1604F16D195
:103DC000206F401C206701208DF8000000208DF836
:103DD00001005E208DF80200C5F306408DF8030057
:103DE000280A8DF80400E8B28DF805000CE0E06EBA
:103DF000401CE0662B46424639462046FDF74AFA0B
:103E000006463046BDE8FC876B464FF400623946F3
:103E10002046FFF743FF06463046F3E770B50546F8
:103E20000E46144623464FF4006231462846FFF7FB
:103E300035FF70BD70B50546DC2003F0BDFD0446BE
:103E40002CB941F20251284603F0A1FB70BD41F2AA
:103E50000D01204614F00CF8A868A067182204F1A0
:103E60007C002969FCF7BCFC204619F065FA204665
:103E7000E16F8847064656B1204619F06BFA204696
:103E800013F0C0FE3146284603F081FBDEE72046F2
:103E9000FFF75CF9EC600021284603F078FB00BFD7
:103EA000D4E72DE9F04104460027E06830B941F23B
:103EB0000511204603F06BFBBDE8F0816669256AB9
:103EC000E843401CA84328B141F20651204603F0C4
:103ED0005EFBF1E726EA050020B126EA0500E9438A
:103EE000884205D141F20551204603F050FBE3E73B
:103EF00094F8240060B132463146E068FDF79BF942
:103F000008B141F232173946204603F040FB02E087
:103F1000204600F003F800BFCEE7000070B504466D
:103F2000002594F8240030B16169E068FDF714F9C8
:103F300008B141F2336535B9E3681A46216A606910
:103F400000F042FF054645B90C49E26860690B681C
:103F50004FF0FF3100F038FF054625B129462046D5
:103F600003F015FB70BD6169E068FFF7FBF82946B7
:103F7000204603F00CFB00BFF4E700009800FF1F91
:103F8000F8B50446256AE843401CA84328B141F22D
:103F90000651204603F0FBFAF8BD208B80B200905A
:103FA00002232946E269606900F062FF0646314655
:103FB000204603F0ECFA00BFEEE7F8B50446256AA8
:103FC000E843401CA84328B141F20651204603F0C3
:103FD000DEFAF8BD208B80B2009004232946E26906
:103FE000606900F045FF06463146204603F0CFFAEF
:103FF00000BFEEE738B50446208B80B20090022364
:10400000D4E90721606901F085FA0021204603F018
:10401000BEFA38BD70B50446E5688020415928468F
:1040200088470646284619F095F9284613F0EAFD18
:104030003146204603F0ABFA70BD38B504464FF068
:10404000FF31E268606901F03FFAE06820B1616920
:10405000E068D0F8D02090476A466169E06800F0D7
:104060001BFD0098012804D0E2686069009901F006
:104070002BFA0021204603F08AFA38BD01460020C1
:104080007047000010B58AB0002002900848006810
:1040900004900849684603F092FA044614B1204699
:1040A0000AB010BD0449039808600020F8E700003A
:1040B000DCFC0100353E00009800FF1F01464FF672
:1040C000FF7041F8940F00204860086148619439FE
:1040D000704700002DE9F05F81460C4692469B46F2
:1040E000DDF82880012014F07BFAC568E6682449D1
:1040F000D4F834010968884213D12868401C28602C
:104100002049204603F090FA48B96868401C68606E
:104110006068016888474FF48950BDE8F09F002728
:104120002BE0F079B17940EA0120C0F30D0050B1E5
:10413000D5F88800401CC5F8880060680168884789
:1041400041F22410E9E7D4F8340190F8D80000F0E7
:10415000080070B1707A112805D0707A062802D054
:10416000707A012805D1D4F8300140F04000C4F83D
:104170003001204600F008F807463846CDE7000039
:104180009800FF1F894100002DE9F84305460120F2
:1041900014F026FAC46895F86091D4F8986004E0A9
:1041A0007068484500D102E03668002EF8D100BFA3
:1041B0009EB9A068401CA060A06D401CA0650020B6
:1041C0002B460246022100900320FEF71FFB686881
:1041D000016888470020BDE8F88395F8648141466E
:1041E000284603F041F907466FB1E068401CE060E3
:1041F0002A46394604F1200003F021FD6868016871
:1042000088473846E7E7E06D401CE0652846D6E978
:10421000022190470020DEE72DE9F05F07460E46B9
:10422000904699463C4600BFA068C043012101EB7F
:10423000500A06EA0A0008B1012000E00020834687
:1042400004F1100050F82B5005B907E0A868304081
:104250006968884200D001E02C46E5E700BF07E02E
:10426000206820B149462068C04700B102E0E468F8
:10427000002CF5D100BFBDE8F09F002141608160B6
:10428000C160016100224261016070472DE9FF5F5A
:1042900088469146009D00BFA868C043012101EBFC
:1042A000500B08EA0B0008B1012000E00020824614
:1042B00005F1100050F82A6006B90CE0B0684845D6
:1042C00000D908E0B06800EA08007168884200D0B0
:1042D00001E03546E0E700BF0398002854D0A86805
:1042E00048453AD2002E38D0706880EA080060EA6B
:1042F000090747EA570747EA970747EA171747EAC0
:10430000172747EA1747012000EB570BFF43039895
:1043100003F064FB04460CB9BDE8FF9F08EA070000
:104320006060A760E560706800EA0B0018B10020CB
:104330002061666102E02661002161610020206049
:1043400005F1100040F82A40F460254608EA0B0009
:1043500008B1012000E000208246A868484513D239
:10436000039803F03BFB044674B1C4F80480C4F81E
:104370000890E5600020206100216161206005F166
:10438000100040F82A402546A868484503D1284631
:10439000DDE90E2190472EE0286800B12DE0EE689F
:1043A00006B92AE0286910B1686900B125E03069D2
:1043B000A84201D0012000E000208246286938B1DF
:1043C00006F11000296940F82A102869C6600EE03D
:1043D000686938B106F11000696940F82A10686907
:1043E000C66004E0002106F1100040F82A102846BB
:1043F00003F08AFB3546002DCED100BF00BF8BE70E
:104400002DE9F04705460E4617462C464FF00008AA
:1044100035E0E068404513D13B46D4E90020A1686F
:10442000B04700B12DE0206910B14FF0000914E051
:10443000606910B14FF001090FE04FF002090CE084
:104440002069404507D1606910B14FF0010904E0CF
:104450004FF0020901E04FF00209A046B9F1000F48
:1044600006D0B9F1010F05D0B9F1020F06D103E072
:10447000246903E0646901E0E46800BF00BF002C28
:10448000C7D100BFBDE8F0872DE9FF4104460E46C5
:10449000012014F0A5F8D0F80C804FF41077002517
:1044A000204600F0A3FA05460DB1D5F894700194AA
:1044B00003976B46044A314608F1B400FFF7ACFE9F
:1044C000039804B0BDE8F081CD4400002DE9F0412F
:1044D0000646884645463746B86938B1B869006926
:1044E000D0F89400E8600120BDE8F0813C6AB4B1E6
:1044F0006868A16908406169884210D12069D0F8D4
:10450000D40030B12269E069D2F8D4108847E8605D
:1045100003E02069D0F89400E8600120E4E700207F
:10452000E2E72DE9F04107460D46686800F1100406
:1045300095F8840000F001063846EA68D5F8841042
:1045400013F0E8FE87B213E02EB1606801783846B8
:1045500000F014F80746606882192068811B38460D
:1045600013F0D8FE87B22078801B00F001060834D3
:1045700020680028E8D13846BDE8F08102460B46A5
:1045800091B298B201444FF6FF7000EA114288B22E
:10459000811888B270472DE9F04105460C469046D7
:1045A000276994F8606107F10C020821284613F08E
:1045B000B1FE85B231462846FFF7E0FF05462846A2
:1045C000BDE8F0812DE9F84306460C46D6F8348163
:1045D000404600F031FA0746002000906A4639460E
:1045E000404600F059FA009867EA0009601C08B1DB
:1045F0004C4501D1012500E000252846BDE8F8839F
:104600002DE9FF4F83B08A46DAF80060F568012093
:1046100013F0E6FFC468687A86F86001287800071E
:10462000800EC6F86401DAF800604749039809680B
:1046300088427BD095F80880B8F1010F15DCA0689E
:10464000401CA060206D401C2065E06F401CE067AE
:10465000002033460246014600900B20FEF7D6F8B4
:1046600041F2115007B0BDE8F08F287800074FEAFB
:10467000906BE878A97840EA01290BF108008145A0
:1046800001DD1FFA80F94946304602F0EDFE07468B
:1046900057B16069401C60613246394604F1380008
:1046A00003F0CDFA3846DDE7304602F0CBFD074691
:1046B00057B16069401C60613246394604F13800E8
:1046C00003F0BDFA3846CDE74946304602F084FE95
:1046D000074657B16069401C60613246394604F1B3
:1046E000380003F0ACFA3846BCE74A462946F06881
:1046F000FCF776F8F568F0683061A8F1010000F089
:10470000FF0885F80880E87AA97A40EA012002903B
:104710004FF480710298FFF731FF02900298000A6F
:10472000A8720298E872206E401C20664FF4A671B1
:1047300006988851697840F251108155297A401EB7
:10474000815500208EE700009800FF1F2DE9FF4FE4
:1047500087B0924608980468D4F86C011430019030
:10476000012013F03DFFD0F80C802046019902F0A3
:1047700033FE0390039870B1D8F81400401CC8F8B9
:104780001400224608F13800039903F058FA039800
:104790000BB0BDE8F08FE568E06820611498C0B206
:1047A00006901498C0F307400490049810B994F848
:1047B0005D0104901498C0F30060029094F85C01CD
:1047C0000590059818B91498C0F30720059005982E
:1047D00010B998F89E0005904021019841EA900098
:1047E0002870049868702089000AA870217AE970FE
:1047F000B8F89C00000A287198F89C106971B8F804
:104800009C00401CA8F89C00029820B14020A87190
:104810000021E97104E00020A8710021E97100BFC6
:1048200005982872069868720A98000E28740A98EB
:10483000010C69740A98010AA9740A98E8740020A6
:10484000A8720021E9724FEA1A6028734FEA1A41F0
:1048500069734FEA1A21A97385F80FA0D4F86C0187
:1048600038B1E36803F1140004F5B47106C9FBF72D
:10487000BBFF069884F860010198C4F86401D4F87D
:104880004001C0B1B4F83C1188B200222146FFF7C4
:1048900082FE06464FF6FF718E4201D1304601E09E
:1048A000F04380B20646300AD4F840110870D4F8BC
:1048B00040114E7000BF08980468E568079890F8AA
:1048C000D80000F0010030B1D4F8300140F0100001
:1048D000C4F8300112E02A460020019913F01AFDB5
:1048E00086B24FF6FF70864201D1304601E0F043B8
:1048F00080B20646300AA872EE7200BF30490798AF
:10490000096888425AD1A16801F1180003F030F813
:104910008146B9F1000F02D141F2021038E741F2AD
:104920000B01484613F0A4FA09F1080B2548C9F811
:1049300000000020C9F80400A068CBF8000009F1CD
:104940001800CBF804000020CBF808000021CBF8B9
:104950000C10484602F0B2FB07462FB9484613F048
:1049600051F941F2021013E7D4F83001C7F83001D1
:10497000D4F83401C7F83401182204F5A47107F5FE
:10498000A470FBF72DFF1048C7F8380109F118098A
:10499000002249462046A36802F038FDF8683861D5
:1049A000606801688847089807601498009052462C
:1049B0000A9BDDE90701FFF723FEE9E60020E7E6B1
:1049C0009800FF1F057C01000146000002461069A7
:1049D00000F11001087800064B7840EA03408B781C
:1049E00040EA0320CB7818437047000030B587B009
:1049F0000446012013F0F4FDC568002003900494E0
:104A000003A8064900235A1ECDE90010214605F1EE
:104A1000B400FFF73BFC039807B030BD214A00000B
:104A200010B50A46134604682CB101688C6914B1AC
:104A30008C69A4681C6010BD7FB50446012013F08A
:104A4000CFFDC5680094002001906A46034905F136
:104A5000B400FFF7D5FC019804B070BD614A0000B6
:104A6000F0B504460D4616461F463146E84380B968
:104A700079B1886968B18A6900BF9068D7F800C0C9
:104A8000604502D17C600120F0BD126888699042C7
:104A9000F3D10020F8E70000FEB504460D461646A7
:104AA000012013F09DFDC76800940195012002903C
:104AB0006B46074A294607F1B400FFF7ADFB0298A1
:104AC000012801D10020FEBD029830600120FAE7E4
:104AD000D54A000070B503460D461A462C4690692B
:104AE00088B1916900BF48686668B04207D108691B
:104AF0002668B04203D19068A060012070BD0968AB
:104B000090698842EFD10020F8E71CB5D82002F068
:104B100053FF044614B941F202101CBD41F20A01D0
:104B2000204613F0A5F9012013F05AFDC4600020BF
:104B300044F8980FA0804020E080002000900346B9
:104B4000022211460190142002F078FFA06000209C
:104B500000900346012211460190142002F06EFFDE
:104B6000E060002020610090034601221146019080
:104B7000282002F063FF60610020009003460222BB
:104B800011460190242002F059FFA061983C04F1E5
:104B9000B40000F011FB0020BFE700007FB5044621
:104BA0000D46012013F01CFDC668019400208DF80D
:104BB00008006B46044A294606F1B400FFF72CFBB7
:104BC0009DF8080004B070BDCD4B000070B50246E2
:104BD0000C4625461346D86960B1D96900BF4868BC
:104BE0006E68B04202D10120287270BD0968D86990
:104BF0008842F4D10020F8E770B586B004460D462F
:104C0000012013F0EDFCC6680294039500208DF896
:104C1000100002A8064900235A1ECDE900102946BB
:104C200006F1B400FFF732FB9DF8100006B070BD2E
:104C3000354C000070B502460B4619460024002092
:104C400015680DB11468A06990B100BF85680E6841
:104C5000B54201D00D6835B94D684668B54202D1FC
:104C600001250D7203E00068A5698542EED100BF01
:104C700070BD2DE9F0470646894692461D46012043
:104C800013F0AEFCC768D7F898800BE0D8F80400A2
:104C9000B04205D141F2015028600020BDE8F08704
:104CA000D8F80080B8F1000FF0D1102002F04EFECD
:104CB000044624B94FF4A85028600020EEE741F2E2
:104CC0000C01204613F0D4F8F0B26060C4F80890EC
:104CD000C4F80CA0D7F898002060C7F898400020CE
:104CE00028602046DAE700002DE9F04790B004463E
:104CF0000E4617469846DDE9185A012013F070FC5D
:104D0000D0F80C900494CDF814800695CDF81CA032
:104D100041F21050089001208DF8240000200A90E4
:104D20000B900D908DF839008DF838000C973946AE
:104D3000FFF762FF8DF83A0000200F9004AB204A85
:104D4000294609F1B400FFF767FA9DF8240030B94D
:104D500004AB1B4A09F1B4000B99FFF75DFA089800
:104D600028B99DF8390048B99DF8380030B9606815
:104D700001688847089810B0BDE8F0879DF83900B1
:104D800068B10D9858B10020CDE900560290431E3D
:104D90000C48DDE90C21006800F04EFD08909DF8FC
:104DA000380050B10F98CDE9005602902146DDE958
:104DB0000B320A9800F040FD08900898DBE70000ED
:104DC000915500009800FF1F2DE9F04786B08046FE
:104DD0000D4691469A46012013F002FCC668D6F8AB
:104DE000A00002F0FBFD044624B941F2035006B0D6
:104DF000BDE8F087C4F80480C4F80890C4F810A097
:104E00000320E06041F203500290039400200490DC
:104E1000059002A81449CDE9001008EA05012A46C8
:104E200006F1B400D6F8B030FFF730FA029818B1A6
:104E3000204602F069FE14E0E84318B9204602F06B
:104E4000C0F80EE0094920690968884209D0D6F8FF
:104E5000A87004E000212046BA6890473F68002F00
:104E6000F8D10298C3E70000CD5100009800FF1F61
:104E70002DE9F04F87B080460F4691469A46DDF8FF
:104E800040B0012013F0ACFBC568D5F8A40002F0D7
:104E9000A5FD044624B941F2045007B0BDE8F08FE7
:104EA000C4F804804AF00100E0600020A060A4F88B
:104EB00010B041F204500390049401200590104872
:104EC000069003A80F49CDE9001009EA07013A4608
:104ED00005F1B400D5F8B030FFF7D8F9039818B150
:104EE000204602F011FE09E0D5F8A86004E059461A
:104EF0002046B26890473668002EF8D10398CCE778
:104F0000094F0000CD5100002DE9F05F80468A4630
:104F1000464657463468012013F062FBD0F80CB0C7
:104F20003468207B00F0020088B9DBF8A89005E027
:104F30002046D9F80C108847D9F80090B9F1000F35
:104F4000F6D1204602F0E0FD3760BDE8F09F002575
:104F500005E0254624683068A04200D103E0208A9D
:104F6000398A8842F5DB00BF35B9256800E02D6835
:104F70002868A042FBD137603C602F6000BFE4E7A7
:104F80002DE9F05F82468B46DAF80040D846D8F823
:104F90000060002C4CD004F1180050F826000028C6
:104FA00046D004F1180050F826703D6800BF28462E
:104FB000D8E90121904780B32868386004F11800CF
:104FC00050F82600A84204D104F11800296840F8DE
:104FD000261004F1180050F82600A8420DD1002137
:104FE00004F1180040F82610A06930B9E06920B932
:104FF000206A10B90020CAF80000D8F80C9005E02B
:105000002846D9F80C108847D9F80090B9F1000F5C
:10501000F6D1284602F078FD09E0FFE72F462D681B
:1050200004F1180050F826000068A842BFD100BF64
:10503000BDE8F09F30B5024613460C465868256817
:10504000A84205D198686568A84201D1012030BD09
:105050000020FCE72DE9F04707468A463C6801201E
:1050600013F0BEFAD0F80C90002C2ED0E069002886
:105070002BD0E0690668D6F800800EE0D9F8A85079
:1050800003E03046E96888472D68002DF9D13046A5
:1050900002F03AFD4646D6F80080E069B042EDD114
:1050A000D9F8A85003E03046E96888472D68002DFC
:1050B000F9D1304602F028FDA06920B9206A10B964
:1050C0000020386001E00020E061BDE8F08730B5E5
:1050D00002460B461446194660680D68A8420AD17C
:1050E000E0684D682840A84205D1208A0D89A84271
:1050F00001D1012030BD0020FCE700002DE9FF4177
:1051000004460D46012013F06BFAC7680020019099
:105110001DB901208DF8080002E000208DF808007C
:105120006B460B4A214607F1B400FFF775F89DF86E
:10513000080048B9019E002001906B46044A3146A0
:1051400007F1B400FFF768F8019804B0BDE8F081FA
:105150005551000030B504460D462A46214688695F
:1051600020B1886940685060012030BD086A60B194
:105170000B6A00BF586818B1586850600120F4E706
:105180001B68086A9842F5D100BF107A90B1C869CF
:1051900080B1CB6900BF187B00F0010028B15868CE
:1051A0005060002010720120DFE71B68C869984238
:1051B000F1D100BF0020D8E710B504462046FFF724
:1051C0005CF80020A061E061206210BD2DE9F0478D
:1051D000044689464F467E68D7F80880206828B97B
:1051E0002460002120688161C1610162256805F1A8
:1051F000180050F8280028B9366005F1180040F86A
:10520000286014E0F86838B105F1180101EB880056
:105210003146FA6890470AE005F1180050F8280076
:105220000068306005F1180050F828000660002082
:105230003860BDE8F087000070B586B004460D46C2
:10524000012013F0CDF9C66829462046FFF7BAF9C8
:1052500060B905F07040B0F1604F07D01848007891
:1052600040B9D4F83401FFF7E7FB18B915480068D6
:1052700003900AE0002003900495059403AB124AC2
:10528000294606F1B400FEF7C7FF039860B100207D
:10529000CDE900502B46024621460290094800689D
:1052A00000F0CAFA06B070BDB068401CB060706D06
:1052B000401C706560680168884741F21050F1E752
:1052C0002C00FF1F9800FF1FCD520000F0B50346D1
:1052D0000D462C4619468A698868C04338B9A068CB
:1052E00090F8300100F0010008B90120F0BD886895
:1052F000C04308B10120F9E7D1E9010760EA0706D8
:10530000A2B100BFA068D0F834019768B84202D0BB
:105310000748007830B16068B04203D1106920605E
:105320000120E3E7126888699042EBD10020DDE7B5
:105330002400FF1F2DE9F04389B004460D461746AF
:105340001E46DDF84080012013F04AF9D0F80C9099
:105350000494059506970796CDF8208004AA104975
:1053600009F1B400FFF74CF808F0200060B10D49D6
:10537000D4F834010968884206D16068016888471A
:10538000002009B0BDE8F08300203346064A2146DC
:10539000CDE9006502900348006800F04DFAF0E79F
:1053A000AD5300009800FF1F0100007F2DE9FF4F63
:1053B00085B083469246012013F012F9D0F80C9084
:1053C000089C57461FB9002009B0BDE8F08F069928
:1053D0006BEA01000490BE69002E38D000BF394945
:1053E0003069096888422ED0A06850B1A068401C7E
:1053F00038B1A1680498814203D0A06871688842DE
:1054000021D1207C00F0200028B12068D0F83401A0
:105410003169884217D0206801F004FE8046B8F157
:10542000000F0BD000226168E0688DE80700E36898
:1054300041467268306900F0FFF904E0D9F81400C1
:10544000401CC9F814003668B869B042C7D13D6A3B
:10545000B5B300BF1B492869096888422CD0686829
:1054600020B3A06830B1A068401C18B1A06869687A
:10547000884221D1207C00F0200028B12068D0F89B
:1054800034012969884217D0206801F0CBFD80469D
:10549000B8F1000F0BD000226168E0688DE80700CA
:1054A000E36841466A68286900F0C6F904E0D9F863
:1054B0001400401CC9F814002D68386AA842C9D1EC
:1054C000002081E79800FF1FF0B589B004460D4623
:1054D0001646012013F084F8C7680794089607A8B9
:1054E00005900020039009480490D7F8A800069082
:1054F00003A80749CDE9001004EA050100232A4664
:1055000007F1B400FEF7C2FE09B0F0BD355000004F
:10551000814F00002DE9FF418AB00C4615461F4619
:10552000DDF85080012013F05BF8C6680A98D0B10E
:105530000A9803900497ADF814800120069003A800
:10554000089010480790D6F8A800099006A80E49C0
:10555000CDE9001005EA04010023224606F1B4005B
:10556000FEF794FE0BE00AA80849CDE9001005EA11
:1055700004010023224606F1B400FEF787FE0EB0B8
:10558000BDE8F081CF500000814F00005550000071
:105590002DE9FC5F80468B46012013F021F8C0689E
:1055A00001905C464546AF69D5F81C902E6A002FE5
:1055B00079D0D5E9010160EA010AA868C04358B171
:1055C000A0686968884207D101988069401C0199E8
:1055D00088610120BDE8FC9F00BF206A68B1206A95
:1055E000401C50B1206A504507D0206A7968884233
:1055F00003D05D480078002851D094F82A0008B9FB
:1056000078682062A868C04320B1A068504501D1E5
:10561000012000E0002028346070012020706078B4
:10562000283C20B1002084F8290084F82800207B41
:1056300000F0200010B394F8290010B14FF0FF30B3
:10564000E06194F8290040B12068D0F8340147495E
:105650000968884201D0012000E0002084F8290078
:1056600094F8280038B12068D0F8340139698842AC
:1056700001D0012000E0002084F8280094F82800E0
:1056800028B13869A061E06908B9A068E061A8693B
:105690000068A8610020206101209BE703E03F68CB
:1056A000A869B84299D1002E44D0207B00F0800038
:1056B000D0BB606808B1606800E0206A009000BF5D
:1056C000206A48B1206A401C30B1206A7168884263
:1056D00002D02548007840B3706820B9606810B9DE
:1056E00094F82A0008B3B0690099084071698842AB
:1056F0001CD194F82A0028B970682062206A08B981
:10570000606820623069A061E06908B9A068E06162
:10571000286A00682862012084F82800002020619F
:10572000F069E062012055E704E0FFE73668286A87
:10573000B042C5D1B9F1000F13D0207D88B100BFB0
:1057400099F80C0000F0010030B1D9F80400E061D4
:105750000020207501203DE7D9F80090E869484510
:10576000EED1002036E700002400FF1F9800FF1F45
:105770002DE9FC470446884691461D460A9F0120B4
:1057800012F02EFFC6683069401C30611548C4F81D
:10579000380115480068C4F8340105F07F4048B965
:1057A000B069401CB06160680168884741F21550DB
:1057B000BDE8FC87681C20B105F07040B0F1604F77
:1057C00007D12B464A46414620460097FFF7B2FDD7
:1057D000EEE700234A4641462046CDE90057FFF751
:1057E00083FAE5E74D4700009800FF1F2DE9FE43CF
:1057F00004460D461646B046012012F0F1FEC76879
:105800003869401C38610A48C4F838010948006802
:10581000C4F834010020411E0B460246CDE90015B4
:1058200002902146404600F007F8BDE8FE830000E4
:105830004D4700009800FF1F2DE9FF4F8BB08046B9
:10584000012012F0CDFEC468199800900C98D0F891
:1058500038510CA94046189B0D9AA8478346BBF1C6
:10586000000F07D00C9A50680168884758460FB05F
:10587000BDE8F08F0C988068D8F8941088424BD817
:105880000C9890F8300100F04000002838D198F8CA
:10589000D80000F00200002832D00C9DEA6815788C
:1058A0002D07A90E5018537A012B1CD0062B02D0BD
:1058B000112B23D10BE00C9DAE6801F11405AE4213
:1058C00004D3002505740026467400BF16E00C9D25
:1058D000AE6801F10805AE4204D3002585710026AB
:1058E000C67100BF0AE00C9DAE680D1DAE4204D328
:1058F000002585700026C67000BF00BF00BF00BF36
:105900001A980090842050F8085040460CA90EC9FF
:10591000A84783465846AAE70C98D0F80C9099F807
:1059200000000007870E0C988068C01B0A9099F849
:10593000070099F8061040EA012000F48040A0B169
:10594000D4F89400401CC4F8940000200090D8F8CB
:105950009420042103200C9BFCF758FF0C9A5068FC
:105960000168884741F2135081E707F10800D8F831
:10597000941081420BD2D4F89400401CC4F89400D7
:105980000C9A50680168884741F212506FE7D4F8CA
:105990009000401CC4F89000D8F89400C01B0990F7
:1059A000099820F00700089099F8070099F8061068
:1059B00040EA0120C004000C06900C98C0683844EE
:1059C00005900C98D0F88400C01B07900C98406894
:1059D0000830049000BFDDE90910884201D9089819
:1059E00000E00A98824601F095FB05464DB96069D2
:1059F000401C60610C9A50680168884741F2103081
:105A000035E7504601F0B4FF0390039860B9606930
:105A1000401C60616868016888470C9A506801689A
:105A2000884741F2021022E741F20B01039812F07D
:105A30001FFA51462846039A01F0BDFB8346BBF18D
:105A4000000F14D06069401C60612A46594604F179
:105A5000380002F0F4F8039812F0D4F8686801688E
:105A600088470C9A5068016888475846FFE63946CF
:105A7000284601F0B1FC8346BBF1000F11D06069EC
:105A8000401C60612A46594604F1380002F0D7F8FC
:105A90006868016888470C9A5068016888475846CA
:105AA000E5E6EE68E86828613A4649463046FAF786
:105AB00097FE07EB0A00000AB07007EB0A00F070CF
:105AC0000698C0F3CF0001900698504406900A98BB
:105AD000A0EB0A000A900A9840B999F8070099F8D3
:105AE000061040EA012000F4005018B1019840F47B
:105AF000005001900198000AB0710198F0710020E7
:105B0000B0720021F17298F8D80000F0010030B1B5
:105B1000D5F8300140F01000C5F8300117E03246EA
:105B20003946002012F0F6FB80B202904FF6FF716A
:105B30000298884201D1029802E00298C04380B2E4
:105B400002900298000AB0720298F07200BF00BF83
:105B50000798504501D9504600E007980090009AF8
:105B600005990398FAF73CFE0599009808440590BA
:105B7000039900980844039007990098081A079021
:105B80000098AAEB000ABAF1000F00D109E00498CE
:105B900008300490049840680590049800680790C5
:105BA000D6E700BFD4F88C00401CC4F88C001A98CB
:105BB0000090842050F808C029464046DDE90D23B6
:105BC000E0478346BBF1000F05D00C9A506801688E
:105BD000884758464BE60A9800287FF4FCAE0C9A9A
:105BE000506801688847002041E600002DE9FE4F1B
:105BF0000546EE68012012F0F3FCC4682068401CE2
:105C00002060307800074FEA9069F078B17840EA78
:105C1000012BE8682861B9F1140F0DD2A068401C6F
:105C2000A060206D401C2065206F401C20676868C4
:105C300001688847BDE8FE8FCB450CDAA068401CA0
:105C4000A060206D401C2065606F401C6067686824
:105C500001688847EEE7A86858450CD2A068401C48
:105C6000A060206D401C2065A06F401CA067686884
:105C700001688847DEE730780421B1EB201F0CD0A3
:105C8000A068401CA060206D401C2065606E401C18
:105C90006066686801688847CCE7307B0106707BE6
:105CA00041EA0041B07B41EA0020F17B40EA010873
:105CB00008F07F40B0F1FE4F09D008F07040B0F11D
:105CC000604F04D008F07040B0F1704F0CD1A06864
:105CD000401CA060206D401C2065E06E401CE0660A
:105CE000686801688847A5E7307C0106707C41EA56
:105CF0000041B07C41EA0020F17C40EA010707F056
:105D00007F40B0F1FE4F09D007F07F4030B107F07F
:105D10007040B0F1704F0BD1781C48B1A068401CA6
:105D2000A060606D401C606568680168884781E715
:105D3000D5F8340190F8D80000F00400F8B995F8CF
:105D4000300100F01000D0B932464946002012F070
:105D5000E1FA01904FF6FF71019888420ED0019848
:105D600060B1A068401CA060206D401C2065A06E42
:105D7000401CA0666868016888475BE700BFB9F10E
:105D8000140F1DD9A9F11402E86800F11401284686
:105D900017F0F2FA0190019888B1A068401CA06049
:105DA000206D401C206500202B46009001460C20F1
:105DB000019AFCF72BFD6868016888473AE700BF45
:105DC000A868A0EB0B01284601F068FB8246BAF1F7
:105DD000000F0CD0E068401CE0602A46514604F1F8
:105DE000200001F02CFF68680168884722E72348FB
:105DF000C5F8380122480078B0B195F8300100F0BC
:105E0000010088B139462846FEF7DCFB60B907F08F
:105E10007040B0F1604F07D01A48007848B9D5F803
:105E20003401FEF709FE20B939462846FFF704FA87
:105E300022E008F07F4060B9A068401CA060206D9F
:105E4000401C2065E06E401CE06668680168884779
:105E5000F0E695F8300100F0020010B12020029029
