:020000040000FA
:10000000F0FE0020E1040000FF0E0000FF0E0000E3
:10001000FF0E0000FF0E0000FF0E000000000000B9
:10002000000000000000000000000000FB0D0000C8
:10003000FF0E000000000000890E0000FF0E00000F
:10004000FF0E0000FF0E0000FF0E0000FF0E00007C
:10005000FF0E0000FF0E0000FF0E0000FF0E00006C
:10006000FF0E0000FF0E0000FF0E0000FF0E00005C
:10007000FF0E0000FF0E0000FF0E0000FF0E00004C
:10040000FFFFFFFFFFFFFFFFFFFFFFFFFEFFFFFFFD
:1004100000F002F800F093F80AA090E8000C824483
:100420008344AAF10107DA4501D100F088F8AFF260
:10043000090EBAE80F0013F0010F18BFFB1A43F0C2
:10044000010318477C960200CC9602000A444FF044
:10045000000C10F8013B13F0070408BF10F8014B23
:100460001D1108BF10F8015B641E05D010F8016B68
:10047000641E01F8016BF9D113F0080F1EBF10F8CC
:10048000014BAD1C0C1B09D16D1E58BF01F801CBEF
:10049000FAD505E014F8016B01F8016B6D1EF9D572
:1004A0009142D6D370470000103A24BF78C878C173
:1004B000FAD8520724BF30C830C144BF04680C606A
:1004C000704700000023002400250026103A28BFB2
:1004D00078C1FBD8520728BF30C148BF0B607047B6
:1004E0000D480E494FF0FF324FF0080333B140F88A
:1004F000042B41F8042BA3F10103F7E7EFF3088085
:1005000080F30988EFF3148040F0020080F3148830
:10051000BFF36F8F26F0F0BC80E100E080E200E0E6
:100520001FB500F09DFA04000020002126F000FE17
:10053000401C6060AFF300801FBD10B510BD00F01F
:1005400011F81146FFF7ECFF25F058FE00F02CFCE7
:1005500003B4FFF7F2FF03BC00F030FC80F3118816
:10056000704700004FF000004FF00002704700009D
:1005700010B500F075FA001D10BD00BFB56B02008C
:1005800053EA020C00F069802DE9F04B4FF00006B1
:10059000002B1FBFB3FA83F503FA05F424FA05F61E
:1005A0005E4012BF1643B2FA82F502FA05F4C5F1B5
:1005B00020051EBF22FA05FC44EA0C04203556EA49
:1005C000044C4FEA144418BF641C4FF000084FF06D
:1005D0000009904271EB030C39D3002919BFB1FA1D
:1005E00081F701FA07F6B0FA80F700FA07F6C7F1CB
:1005F00020071EBF20FA07FC46EA0C062037B6FB90
:10060000F4FCA7EB0507103F07F01F0BCBF120060A
:100610000CFA0BFB2CFA06F644BFB3460026202F3B
:10062000A4BF5E464FF0000B5BEA060C08BF4FF01C
:10063000010B19EB0B09ABFB027C48EB0608C01B56
:1006400006FB02CC0BFB03CC71EB0C01C1E70B46A4
:10065000024641464846BDE8F08B13B54FF0000016
:100660004FF00001AFF30080BDE81C40704710B5AB
:100670004C1084EA530404D54042C1F1000138BF54
:10068000491E1B4204D55242C3F1000338BF5B1E12
:10069000FFF776FF14F0804F04D04042C1F1000113
:1006A00038BF491E14F0004F04D05242C3F100037A
:1006B00038BF5B1E10BD10B50446FFF759FF006838
:1006C000005DC00602D504F1200010BD204610BD1B
:1006D0002DE9F04791460F4680460446002614F85F
:1006E000015B2DB1FFF744FF0068405DC007F6D104
:1006F0002B2D02D02D2D18D0641E4A463946204697
:1007000000F0B6F927B13968A14201D1C7F80080DD
:100710004FF0020471050BD54042002803DD00F0C4
:10072000A3F90460A007BDE8F08746F48066E4E71B
:100730000028F8DA00F098F904606FF00040F2E762
:100740002DE9F05F93460F4680460446002600F0F0
:100750008BF9D0F80090824614F8015B2DB1FFF7B9
:1007600007FF0068405DC007F6D12B2D02D02D2D6C
:100770001AD0641E0021CAF800105A463946204695
:1007800000F076F9014627B13868A04201D1C7F8D8
:100790000080DAF80000022809D0CAF8009070053D
:1007A00005D54842BDE8F09F46F48066E2E708467A
:1007B000F8E7401ECAB210F8011F8A4202D0002991
:1007C000F9D10020704740EA010310B59B070FD113
:1007D000042A0DD310C808C9121F9C42F8D020BAB1
:1007E00019BA884201D9012010BD4FF0FF3010BD69
:1007F0001AB1D30703D0521C07E0002010BD10F837
:10080000013B11F8014B1B1B07D110F8013B11F8FC
:10081000014B1B1B01D1921EF1D1184610BD40EABD
:100820000103024630B59B0710D14FF0013400E0C0
:1008300008C208C91D1B9D4315EAC41FF8D013F058
:10084000FF0102F8011B0DD01B0AF8E711F8013B6C
:10085000002B02F8013B05D011F8013B002B02F8F8
:10086000013BF3D130BD2DE9F0410E460546002491
:1008700000E0641C285DFFF71EFF0746305DFFF7B0
:100880001AFF381A02D1295D0029F2D1BDE8F081A2
:1008900010B5431C02E010F8011B71B18107FAD1B9
:1008A0004FF0013202C88C1A8C4314EAC211F9D0FD
:1008B000C01A0A0603D0C01E10BDC01A10BD0A041B
:1008C00001D0801E10BD0902FCD0401E10BD40EAC0
:1008D000010370B59B072ED14FF00136042A2AD3AD
:1008E00008C810C99D1B9D43121F15EAC61517D0D5
:1008F000D8B2E1B2401A50EA056110D198B2A1B263
:10090000401A50EA05410AD123F07F4024F07F418C
:10091000401A50EA052102D1180EA0EB146070BDF8
:10092000A342DBD018BA21BA884201D9012070BD98
:100930004FF0FF3070BD0AB9002070BD10F8013BC8
:1009400011F8014B63B1A3420AD1521E08D010F82E
:10095000013B11F8014B1BB1A34201D1521EEDD155
:10096000181B70BD01B500F0D2F801BD01B500F053
:1009700013F901BD01F0FF03114601B543EA03225B
:1009800042EA024200F04CF901BD10B5044610F0F5
:10099000030F08BF11F0030F40F015804FF0013E28
:1009A000121FC0F20E8051F8043BA3EB0E0C2CEA90
:1009B000030C1CEACE1C08BF40F8043BF0D0A1F1A8
:1009C000040102F10402521E08DB11F8013B002B66
:1009D00000F8013BF7D1114600F020F9204610BD88
:1009E0004FF0013C50F8042B51F8043B9A4221D1BE
:1009F000A2EB0C03934313EACC1317D150F8042B4A
:100A000051F8043B9A4215D1A2EB0C03934313EA2D
:100A1000CC130BD150F8042B51F8043B9A4209D166
:100A2000A2EB0C03934313EACC13DBD04FF000008E
:100A3000704700BFD01A01BAB1FA81F101F0180174
:100A400022FA01F0CB40C1F12001DBB2C0B2C01AE2
:100A50002CFA01F3D11A914311EAC311E6D1704780
:100A6000004870475805FF1F004870476C05FF1F7E
:100A70002DE9F05F824615468B4600270AF10104F6
:100A8000B9460078302801D09DB113E014F8010B6D
:100A90000127782803D0582801D045B10AE00DB1CC
:100AA000102D07D1002714F8010B102502E00825AE
:100AB00000E00A250026B0460EE005FB080005FB15
:100AC00006F101271FFA80F801EB1046B6F5803FCA
:100AD00000D3B94614F8010B294600F0C1F80028EC
:100AE000EBDABBF1000F05D00FB1641E00E05446F5
:100AF000CBF80040B9F1000F06D0FFF7B5FF022197
:100B00000160C81EBDE8F09F48EA0640FAE7032AE4
:100B100040F2308010F0030C00F0158011F8013B1A
:100B2000BCF1020F624498BF11F801CB00F8013B01
:100B300038BF11F8013BA2F1040298BF00F801CBC5
:100B400038BF00F8013B11F0030300F09780083A2A
:100B5000C0F0088051F8043B083A51F804CBA0E8F3
:100B60000810F5E7121D5CBF51F8043B40F8043B48
:100B7000AFF30080D20724BF11F8013B11F801CB7D
:100B800048BF11F8012B24BF00F8013B00F801CB4E
:100B900048BF00F8012B7047431A28BF9A427FF6DE
:100BA000B6AF032A1044114440F2268010F0030F20
:100BB0001EBF11F8013D521E00F8013D10F0030F59
:100BC0007FF4F6AF11F0030300F09D80083AC0F007
:100BD0000B8051F8043D083A51F804CD40F8043D2B
:100BE00040F804CDFFF7F3BF121D5CBF51F8043D80
:100BF00040F8043DAFF30080D20724BF11F8013D57
:100C000011F801CD48BF11F8012C24BF00F8013DB7
:100C100000F801CD48BF00F8012C70474FF00002EA
:100C20000429C0F0128010F0030C00F09880CCF181
:100C3000040CBCF1020F18BF00F8012BA8BF20F86C
:100C4000022BA1EB0C0100F08AB85FEAC17C24BF43
:100C500000F8012B00F8012B48BF00F8012B70476A
:100C60003A2800D2303820F02002412A01D3A2F1E4
:100C70003700884201D34FF0FF30704710B5203A5B
:100C8000C0F00B80B1E81850203AA0E81850B1E845
:100C90001850A0E81850BFF4F5AF5FEA027C24BFFB
:100CA000B1E81850A0E8185044BF18C918C0BDE8F2
:100CB00010405FEA827C24BF51F8043B40F8043BBB
:100CC00008BF7047D20728BF31F8023B48BF11F870
:100CD000012B28BF20F8023B48BF00F8012B7047CA
:100CE000431A28BF9A427FF6C9AF104410F0030F91
:100CF00011441EBF11F8013D521E00F8013D10F0D5
:100D0000030F7FF4F6AF103AC0F00A8010B531E956
:100D10001850103A20E91850BFF4F9AFBDE8104060
:100D2000530724BF31E9081020E9081044BF51F8E7
:100D3000043D40F8043D12F0030F08BF7047D2078E
:100D400028BF31F8023D48BF11F8012C28BF20F818
:100D5000023D48BF00F8012C70474FF0000200B57B
:100D6000134694469646203922BFA0E80C50A0E8CE
:100D70000C50B1F12001BFF4F7AF090728BFA0E87C
:100D80000C5048BF0CC05DF804EB890028BF40F848
:100D9000042B08BF704748BF20F8022B11F0804F8A
:100DA00018BF00F8012B704710B50446AFF3008060
:100DB0002046BDE81040FFF7CBBB000001491820DA
:100DC000ABBEFEE7260002007047000001DF70475F
:100DD00001DFFEE79C48006872B6018B31B9416AB9
:100DE000C269D369994201D062B603DF62B6704727
:100DF00003DF7047FEE702DF704772B61EF0040F94
:100E00000CBFEFF30881EFF30981896911F8021C27
:100E1000032905D100B500F027F85DF804EB21E0C7
:100E2000012902D1884800683CE002291AD186488D
:100E30000068C1698A6842F001028A6000B502B4A4
:100E4000016C11F0010F04D000B51BF061F95DF8E1
:100E500004EB02BC4A680B6813605A6000F004F8A7
:100E60005DF804EB62B6704707B57848416811F049
:100E7000805F08D1EFF31182A2F1100280F82220E6
:100E80004FF08051416007BD72B66F480068EFF3C4
:100E9000098C6F498A78EFF311832CE9FC4FC36901
:100EA000C3F814C072B6416A0A688A4203D18968DD
:100EB0000900F9D1FEE74162C261938C4383D2F805
:100EC00014C0BCE8FC4F83F311888CF3098802B48A
:100ED000016C11F0010F04D000B51BF049F95DF869
:100EE00004EB02BC02B400B51DF0EEFA5DF804EBB1
:100EF00002BC56484FF00061416062B6704772B65E
:100F000000B5514B1B68198B01F1010119834FF09A
:100F1000000001B4EFF31182EFF30581586B07B4C1
:100F2000EFF3088058630846196C11F0010F03D0E5
:100F30000FB41BF071F90FBC1A6B02B939E0904283
:100F400037D8DA6A811A34DB9A6B4FEAD1014FEA5B
:100F50008101515801B92CE00A6822B1824203D0C4
:100F600009690942F8D124E0C8684A6808B462B641
:100F7000904772B608BC196C11F0010F05D0EFF361
:100F800005800FB41BF022F90FBC07BC586301BCED
:100F9000198B491E1983DA69906A10F4805F0AD1AF
:100FA00029B9596A0968914218BFFFF75DFF62B617
:100FB00000BD9A6ADAE740F40030906262B600BD84
:100FC00072B6F1B4204B1B68D3F834C00CF1100C8E
:100FD0005CF804EB1F4820F00100CCF818009CE8F6
:100FE000FF005DF804CBACF1040C27F400772CE98A
:100FF000FF00F0BC8CF3088862B6704770474FF072
:101000008002D0E84F1F00290CBFC0E8432F01E049
:10101000002BF6D108467047EFF309807047EFF3D5
:101020000880704780F308887047EFF303807047AB
:1010300062B6704772B67047704670477846704720
:10104000EFF3148070470000E001FF1F00ED00E0A7
:1010500020ED00E0730F000070B50546A86820B9C8
:101060004FF0FF31284609F07DF9D5E9020100F083
:1010700065F904465CB9D5E9020100F0F5F90446CA
:101080008CB941F20211284609F06CF90BE004F129
:1010900034000DF00FFF04F144000DF00BFF04F1DC
:1010A00054000DF007FF28696060A88A20810120A4
:1010B000207600206076A076084860640848606565
:1010C00004F144000DF0D0FE04F154000DF0CCFE0C
:1010D0000021284609F046F970BD000060900F001D
:1010E000804F120010B50446A06820B94FF0FF31C0
:1010F000204609F037F9D4E9020100F01CFA20B9C2
:1011000041F20411204609F02DF90021204609F092
:1011100029F910BD02469168487E38B90120487609
:101120000020887603481060012070470020087670
:1011300000BFFAE720BF02002DE9F0410646D6F8CD
:101140009850002D2ED02C6F21E004F134000DF0CA
:10115000B1FE04F144000DF0ADFE04F154000DF0B9
:10116000A9FE08E0D4F81C800020E061D8F8040053
:101170000168884700BFE06908B1012000E0002055
:101180000028EFD16769686F60616C673C46002C8E
:10119000DBD1A86F1CF012FD28461CF00FFD0020CB
:1011A000C6F898000020BDE8F081C268D2F8981017
:1011B000426912B1D0E904231A61026912B1D0E97F
:1011C00004325A610A6F824201D142690A674A6F4A
:1011D000426148677047000038B5044620780090A7
:1011E0002088C0F307232068C0F30742010E17A030
:1011F00019F026F900250BE0052D01D1202000E093
:101200003A200246201D415D16A019F019F96D1C07
:10121000062DF1D3207E78B1A07E08B1482000E0F1
:1012200020200246607E08B1412000E020200146D7
:101230000EA019F005F902E00EA019F001F90EA0B8
:10124000636D626C616B19F0FBF838BD2530336457
:101250002E253033642E253033642E253033642020
:101260000000000025303278256300004325632507
:1012700063200000492D2D00526573656E643D2585
:10128000642C204167653D25642C20457870697287
:10129000653D25640A0000002DE9F04105462E4613
:1012A0000EB9BDE8F081D6F898703C6F03E0204697
:1012B000FFF792FF6469002CF9D100BFF1E7024605
:1012C000002070472DE9F0410646B468E068D0F888
:1012D00098701AE0E5690020E061F86E401CF8663D
:1012E000E068006A401CE1680862D5F8440140B13A
:1012F00041F20241D5F8440109F034F80020C5F864
:10130000440168680168884700BFE06908B10120AE
:1013100000E000200028DDD104F134000DF0CAFD0A
:1013200004F144000DF0C6FD04F154000DF0C2FDBF
:101330002046FFF73AFF0020BDE8F08110B50246D5
:10134000D2F89830186F04E004688C4200D102E0B3
:1013500040690028F8D100BF10BD70B505460E46A3
:1013600031462846FFF7EAFF04460CB1E06970BD3C
:101370000020FCE72DE9F0478146D9F80840E068F5
:10138000D0F898502869401C2861A86D401CA865B9
:1013900000BF08F09BFD07461FB96869401C6861E3
:1013A00050E01C21384608F0F3FE8046B8F1000FEB
:1013B0000CD0E869401CE8613A46414605F1380026
:1013C00009F0F7FB7868016888473BE0FE681C225B
:1013D00005F184013046FFF7C5FA206A000EB073AC
:1013E000206A010CF173208C010A317494F82010EA
:1013F00071742068000E30762068010C71762088A8
:10140000010AB1762178F17607F5A470D4E90A23B0
:10141000616A0C300EC00020B0710221F1713946B2
:10142000E06804F000FB8046B8F1000F09D0E869DD
:10143000401CE8613A46414605F1380009F0B9FB25
:1014400000E000BF00BF206B4000206347F2305136
:10145000206B884201D908462063206BC9F8000040
:101460000120BDE8F08700002DE9FF5F80468A4635
:10147000D8F89850686F28BBD5F8709009F15400DF
:101480000DF032FD83462F6F0DE007F154000DF093
:101490002BFD064636B1BBF1000F01D0B34501D993
:1014A000B946B3467F69002FEFD1B9F1000F08D0DC
:1014B000002000900190CDF8089003906846FFF757
:1014C00001FF00BF6C6F34B9286E401C28660020F5
:1014D00004B0BDE8F09F60696867C4F800A00C49DB
:1014E000A163E4630B49A164E4640B49A165E4656D
:1014F000C4F80C8000202061286F6061606908B129
:10150000606904612C670020E0612046E0E700008C
:10151000A917000015110000C512000070B505469E
:101520000E4631462846FFF709FF04460CB1207EDF
:1015300070BD0020FCE77FB505460E4631462846C3
:10154000FFF7FCFE04464CB100200090019002948D
:1015500003906846FFF7B6FE04B070BD0020FBE7BD
:101560002DE9F0410746A02009F0C6F904461CB950
:101570004FF4A050BDE8F08141F2020120461CF07A
:101580004BFC4FF47A7009F0B7F9A067A06F90B1E7
:1015900041F20301A06F1CF03FFCA66F4FF0000862
:1015A00005E0606F70616667643608F10108B8F1A4
:1015B0000A0FF6DB05E020461CF000FB4FF4A050BC
:1015C000D8E704F17C01B86F02F00BFA04F184054E
:1015D00000202870012068700820A8700021E970A0
:1015E00006202871042068710020A8710121E9718A
:1015F00094F87C0028727D20015D69727E20015D77
:10160000A9727F20015DE9728020015D297381202C
:10161000015D69730020C5F81200E882C7F89840A0
:1016200000BFA7E72DE9F04105460E461746D5F85D
:10163000988039462846FFF781FE0446CCB9D8F891
:101640006800401CC8F8680039462846FFF70CFFC0
:10165000044634B9E869401CE86141F20210BDE873
:10166000F0810020E0612662207604F1340000F071
:101670009BF8BE4203D104F13400FFF77BFE00204B
:10168000EDE700002DE9F04707460E4690469946E3
:10169000D7F8985049463846FFF750FE0446002CCC
:1016A00031D149463846FFF7DFFE04464CB9F869A8
:1016B000401CF861E86E401CE86670680168884765
:1016C0001BE0E661C4F8208006F5A470D0E903129F
:1016D0004069C4E90912E0620020207641F28830B6
:1016E0002063002060632F48606504F134000DF032
:1016F000BBFB04F154000DF0B7FBA86E401CA866BC
:101700000020BDE8F087207E00BBE06970B1D4F80E
:101710001CA00020E061E86E401CE866386A401CAE
:101720003862DAF804000168884700BFE661C4F84F
:10173000208006F5A470D0E903124069C4E90912BB
:10174000E062A86E401CA8660020DAE7607E00B365
:10175000A07EF0B90120A07604F154000DF0AAFBA0
:10176000C4F8208006F5A470D0E903124069C4E9EA
:101770000912E06241F2883020630020606309486A
:10178000606504F134000DF06FFB04F154000DF0BE
:101790006BFB686E401C6866221D3146384604F0BB
:1017A000C3F9AEE720BF02002DE9F0478146D9F822
:1017B0000840E068D0F898502869401C2861A86D5E
:1017C000401CA86508F082FB07461FB96869401CE9
:1017D00068614CE01C21384608F0DAFC8046B8F11C
:1017E000000F0CD0E869401CE8613A46414605F11B
:1017F000380009F0DEF978680168884737E0FE684C
:101800001C2205F184013046FFF7ACF8206A000E77
:10181000B073206A010CF173208C010A317494F8C2
:10182000201071742068000E30762068010C7176EB
:101830002088010AB1762178F17607F5A470D4E901
:101840000A23616A0C300EC03946E06804F0EBF8F8
:101850008046B8F1000F09D0E869401CE8613A46BB
:10186000414605F1380009F0A4F900E000BF206B03
:101870004000206347F23051206B884201D908466E
:101880002063206BC9F800000120BDE8F08700004C
:101890002DE9F04F85B00746D7F83401049004983D
:1018A000D0F898603068401C3060FC68E079A1791D
:1018B00040EA012B6078217840EA0120012812D10A
:1018C000E078A17840EA0120B0F5006F0BD12079D3
:1018D000062808D16079042805D1BBF1010F0BD08F
:1018E000BBF1020F08D0B068401CB0607868016896
:1018F000884705B0BDE8F08F207A8DF80800607A3F
:101900008DF80900A07A8DF80A00E07A8DF80B00B6
:10191000207B8DF80C00607B8DF80D00A07B01060C
:10192000E07B41EA0041207C41EA0020617C40EA02
:101930000109207E0106607E41EA0041A07E41EA65
:101940000020E17E40EA010849460498FFF7F6FCD2
:10195000054615B90020019036E005F134000DF080
:10196000A9FA05F144000DF0A5FA05F154000DF0B7
:10197000A1FA02986860BDF80C0028810120287641
:1019800000206876A876604868646048686505F15C
:1019900044000DF069FA05F154000DF065FA0AE013
:1019A000E86900900020E86102AA0099049804F018
:1019B000BBF8824600BFE86908B1012000E00020C2
:1019C0000028EDD1012001904146049804F09AFFCF
:1019D00028B941460498FFF772FC00287ED0019890
:1019E00008BB49460498FFF73FFD0546C5B102987C
:1019F0006860BDF80C0028810120287600206876F8
:101A0000A876414868644148686505F144000DF0D6
:101A10002BFA05F154000DF027FA0020E86102E0EE
:101A20007068401C7060BBF1010F5ED1306D401CCE
:101A300030653069401C3061F06D401CF06500205D
:101A4000A0710221E17196F87C0020727D20815DF9
:101A500061727E20815DA1727F20815DE1728020B4
:101A6000815D21738120815D61734FEA1860A073ED
:101A70004FEA1841E1734FEA1821217484F811806C
:101A80009DF80800A0749DF80910E1749DF80A10F3
:101A900021759DF80B1061759DF80C10A1759DF8CE
:101AA0000D10E1754FEA196020764FEA1941617611
:101AB0004FEA1921A17684F81B90384608F09EFA67
:101AC00002AA3946049803F0CCFF8246BAF1000F0F
:101AD00018D0F069401CF0613A4600E00CE0514635
:101AE00006F1380009F065F803E7706D401C706579
:101AF00078680168884705E0B068401CB060786885
:101B00000168884700BFF4E660900F00804F120024
:101B100010B5002408480068401E074908600846C0
:101B2000006838B90548006811F08CFB04460020B5
:101B300002490860204610BD0C03FF1F1003FF1F61
:101B40000020024908600249086070470C03FF1F2B
:101B50001003FF1F70B505460948006840B9094ADF
:101B60002946442011F09CFC04460CB1204670BD6F
:101B700003480068401C024908600020F7E70000A5
:101B80000C03FF1F1003FF1F70B504460D462346CC
:101B9000432229460248006811F092FE70BD000001
:101BA0001003FF1F0148007870470000FE02FF1F6E
:101BB0000F48007800F0C00020B1402804D08028F1
:101BC00014D10AE0042070470948407800F0020070
:101BD00008B90020F7E70120F5E70548407900F053
:101BE000400008B90220EEE70320ECE70020EAE716
:101BF0000040064001461648007801280CD129B95A
:101C00001E20144A90720A20D07204E01F20114A4C
:101C100090728020D07201E00120704700BF19B996
:101C200080200C4A107202E0C0200A4A107200BFE5
:101C30000848007A00F080000028F9D10548007AB1
:101C400000F0200008B90020E7E71B20E5E70000CE
:101C5000FE02FF1F0040064010B50446022C01D9C9
:101C6000022010BD24B1012C2ED0022C7AD157E0D5
:101C700041480078022811D14048407900F0DF0047
:101C80003E4948713E483F494864002000F082F8D0
:101C90003A48407940F02000384948713A4839497B
:101CA00048640846806C20F00D0040F00200886413
:101CB0000846406840F4803048603448006840F48A
:101CC0000020324908604EE02B480078022811D1EC
:101CD0002A48407900F0DF002849487128482949FE
:101CE0004864002000F056F82448407940F0200075
:101CF000224948712648234948640846806C20F0F0
:101D00000D0040F0020088640846406840F48030CE
:101D100048601E48006840F400201C49086022E02A
:101D20001648407900F0DF001449487114481549FD
:101D30004864012000F02EF84FF440301149486407
:101D40000846806C20F00F0088640846406840F424
:101D5000803048600D48006840F400200B4908605E
:101D600001E0FFE700BF00BF204605F03DFF02484D
:101D70000470002075E70000FE02FF1F00400640CF
:101D80000000330100800440000013010070044093
:101D90000000777770B50546002615B1012D04D1F6
:101DA00001E0042602E0012600E000BF00BFFFF7CB
:101DB000FFFE044600BF04EB840011490844845D23
:101DC000052C18D2DFE804F003070B0F1300284698
:101DD00000F090F810E0284600F014F80CE02846D7
:101DE00000F030F808E0284600F0DEF804E028466D
:101DF00000F02AF900E000BF00BFA642DBD170BDB1
:101E000068870200012816D147210C4A117023214E
:101E1000517000210A4A117000BF0849897901F008
:101E200010010029F9D000BF0449897901F00101AE
:101E30000029F9D000E000BF00BF70470040064015
:101E40000050064010B101284BD125E00021264A60
:101E500011702649496821F00101244A516021216D
:101E6000234A5170A82111701146C97801F01F0151
:101E7000D170382111711821517100BF1C49897925
:101E800001F010010029F9D100BF1949897901F049
:101E90000C010829F9D125E00021134A11701349DA
:101EA000496821F00101114A51602121104A517005
:101EB000AB2111701146C97801F01F01D1700021CA
:101EC0001171517100BF0A49897901F0100100298F
:101ED000F9D100BF0649897901F00C010829F9D12F
:101EE00000E000BF00BF7047005006400080044083
:101EF0000040064010B101284DD126E04421274A78
:101F00001170212151701146C97801F01F01D17063
:101F10000021234A11702349496821F00101214A17
:101F2000516038211D4A11711821517100BF1B49A0
:101F3000897901F010010029F9D000BF174989798A
:101F400001F00C010429F9D126E04721134A117050
:101F5000212151701146C97801F01F01D170002173
:101F60000F4A11700F49496821F001010D4A516073
:101F700000210A4A1171517100BF0849897901F0A5
:101F800010010029F9D000BF0449897901F00C0142
:101F90000429F9D100E000BF00BF704700400640AF
:101FA000005006400080044010B1012842D120E0DA
:101FB0000021224A11702249496821F00101204A7A
:101FC0005160A8211F4A11702121517038211171CF
:101FD0005821517100BF1B49897901F00C01082972
:101FE000F9D100BF1749897901F040010029F9D0E2
:101FF00021E00021114A11701149496821F00101C5
:102000000F4A5160AB210F4A1170212151700D21EF
:1020100011714021517100BF0A49897901F00C0109
:102020000829F9D100BF0749897901F04001002949
:10203000F9D000E000BF00BF70470000005006402C
:102040000080044000400640C8B900210D4A1170CC
:102050000D49496821F001010B4A516028210B4AC2
:10206000117021215170382111715821517100BF17
:102070000649897901F00C010C29F9D100E000BF73
:1020800000BF7047005006400080044000400640FA
:1020900070B50546AC680026D4F8380220B1D4F8F3
:1020A000381220688847064604F5E8700CF002FFF5
:1020B00076B10020C4F8080284F8F0010120C4F8C9
:1020C000F401204600F00EFA204600F0A7FA08E0DE
:1020D000FFF71EFD00202168C1F8A00020461BF07C
:1020E0006DFD002070BD4FF439710A584FF42F7107
:1020F0000A504FF43A710A584FF430710A504FF4B5
:102100003C710A584FF432710A50F0210A58C261EA
:10211000F4210A580262D0F8EC108161F8210A58C3
:102120004262FC210A588262704770B504460E462E
:10213000D4F8F4510620C4F8F401204600F0D2F996
:10214000204600F085FD4FF425700059401C4FF4E7
:1021500025710851C4F8F451204600F0C3F970BD50
:1021600070B505462C6901202070286890F8A400FD
:102170006070286890F8A800A0700020E07008F057
:102180008BFC0646300E2071310C6171310AA17151
:10219000E6712348007810B14FF4004000E00020C1
:1021A000000AA0721E48007810B14FF4004000E011
:1021B0000020E072D5F8F40108280CD1286A000E3E
:1021C0002073286A010C6173288C010AA1732020F6
:1021D000415DE17306E00020207300216173A1736B
:1021E000E17300BF0020207400216174A174E174C8
:1021F00020756175A175E17520766176A176E1762D
:10220000102204F11C00FEF7B5FB286800F1AC01B8
:10221000D0F8A82004F11C00FEF7A4FB70BD00005C
:10222000C402FF1F2DE9FE4F82460F46D7E9040185
:102230000844401E0090DAF8100000F1EC0463201E
:102240002070822060705320A0706320E070241DF5
:1022500035202070641C01202070641CCAF80C40DA
:10226000DAF8F401082801D1207002E00120207082
:1022700000BF641C3D22D7E9040101F0B5F8054612
:102280009DB1687800F10208B8F1040F05D3424609
:1022900029462046FEF766FB4444002603E0002062
:1022A00028706D1C761C4645F9D3CAF808400D34D9
:1022B0003722D7E9040101F097F805469DB1687807
:1022C00000F10208B8F1030F05D342462946204623
:1022D000FEF748FB4444002603E0002028706D1CF4
:1022E000761C4645F9D3DAF8F40108281AD03322CF
:1022F000D7E9040101F078F805469DB1687800F14E
:102300000208B8F1060F05D1424629462046FEF7DD
:1023100029FB4444002603E0002028706D1C761C35
:102320004645F9D33C22D7E9040101F05DF80546A2
:102330009DB1687800F10208B8F1030F05D3424659
:1023400029462046FEF70EFB4444002603E0002009
:1023500028706D1C761C4645F9D33922D7E9040153
:1023600001F042F80546E5B1E878A97840EA012095
:10237000B0F5107F0ADA39202070641C022020702A
:10238000641C207040206070A41C02E0286820605B
:10239000241D002603E0002028706D1C761C042EEE
:1023A000F9D33222D7E9040101F01EF8054655B1F0
:1023B000002606E0287801A98855002028706D1CA9
:1023C000761C062EF6D3D7F810902DE0D7F8109093
:1023D00001E009F1010999F8000010B90098814560
:1023E000F7D399F80000E8B10098A0EB090000F1DC
:1023F000010B99F8010000F10208D84506D84246C1
:1024000049462046FEF7AEFA444400E0D84600268E
:1024100005E0002089F8000009F10109761C464515
:1024200002D2F6E74FF00009B9F1000FCED1CAF899
:102430001440641C65B1DAF8F401082808D00026BD
:1024400004E001A8805D2070641C761C062EF8D381
:10245000FF202070641CDAF81000201ACAF8240249
:10246000BDE8FE8F70B504460D461646A5F1F00195
:10247000324604F1F00000F0B7FF70BD2DE9F041E5
:102480000646706900F2031707F53E7008F034FA4B
:10249000054635B941F20211304607F063FFBDE849
:1024A000F08141F2040128461BF0B6FC08F03DFC27
:1024B000804608F063FB2946304600F0F5FD0446EF
:1024C0003CB128461BF07AFB2146304607F04AFF14
:1024D000E5E7284600F0A2F82146304607F042FF23
:1024E00000BFDCE730B502698168002303E0002407
:1024F0000C70491C5B1C0D2BF9D30D390024456968
:102500002C7090F8F04184B1D0F8F441052C0CD037
:10251000046A240E1473046A250C5573048C250A6E
:1025200095732024255CD57306E0002414730025E0
:1025300055739573D57300BFD0F8F441012C06D1C3
:10254000C5682C70D0F82042C0F8244265E003240E
:10255000C5682C70D0F8F441052C07D0D0F8F441B0
:10256000062C03D0D0F8F441072C4ED136240C7041
:10257000491C04240C70491CD0F8F441072C0ED1DE
:10258000C5682C70C469240E0C70C469240C4C708E
:10259000848B240A8C70047FCC70091D36E0F024F3
:1025A0002458240E0C70F0242458240C4C70F02471
:1025B000245A240A8C70F024245CCC70091D322427
:1025C0000C70491C04240C70491CF4242458240E5B
:1025D0000C70F4242458240C4C70F424245A240A3B
:1025E0008C70F424245CCC70091DD0F8F441062CC6
:1025F00009D100241473002555739573D5730424F1
:10260000C5682C7002E0416900E04169FF240C704C
:10261000491C04690C1BC0F8244230BD70B5044647
:10262000256900202872002169724FF47A60C4F88D
:102630000C020020C4F81C02C4F8D00104F5E870B4
:102640000CF012FCD4F8F80158B106494FF4F270BE
:102650000151D4F8F801C4F8E00104F5F0700CF071
:1026600003FC70BD912000002DE9F04705468A4625
:102670000020C5F8FC01C5F80402DAF80C8098F8CF
:102680001000010698F8110041EA004198F8120084
:1026900041EA002098F8131008434FF4397148516B
:1026A00008464159F42041514FF0FF314FF43A7040
:1026B0004151001F405908B9002114E04FF439700E
:1026C000405900F0004010B94FF07F410BE04FF44B
:1026D0003970405900F04040B0F1004F01D14F49EE
:1026E00001E06FF0FF014FF43C70415108F1F0043C
:1026F000DAF80800A0F1F0078AE094F80090641C72
:102700007F1EB9F1FF0F00D185E0B9F1000F00D1B4
:102710007EE007B97FE02678641C7F1EB74200D2B6
:1027200079E0BF1BB9F13B0F5CD009DCB9F1010FB7
:102730001FD0B9F1330F0AD0B9F13A0F64D13FE09D
:10274000B9F1420F2CD0B9F1430F5DD130E0042E26
:1027500001D034445AE020780006617840EA014014
:10276000A17840EA0120E1780843C5F8EC00241D77
:102770004CE0042E01D0344448E020780006617813
:1027800040EA0140A17840EA0120E17808434FF493
:102790003C71485108464159F8204151241D35E00B
:1027A0003246214605F58070FEF7DCF834442DE012
:1027B0003246214605F5A070FEF7D4F8344425E0F2
:1027C000042E01D0344421E020780006617840EAEC
:1027D0000140A17840EA0120E1780843C5F8FC01F6
:1027E000241D13E0042E01D034440FE020780006AD
:1027F000617840EA0140A17840EA0120E17808438D
:10280000C5F80402241D01E0344400BF00BF00BF2E
:10281000002F7FF472AF00BFBDE8F0870000FFFF1C
:1028200070B504460D46224621462846FEF7FAFEBC
:1028300070BD00002DE9F0410646B4680027D4F8C9
:102840001402C0B11549D4F81402884206D9D4F84C
:102850001402401AC4F81402114D08E04FF47A71C2
:10286000D4F8140200FB01F50020C4F81402C4F8E7
:10287000C05101270FE004F5E8700CF01BFBA069C4
:10288000C4F800020420C4F8F4012046FFF72AFE31
:102890002046FFF7C3FE3846BDE8F0819BC4200008
:1028A00078FDFF7F3EB5044602940249684607F072
:1028B0007BFD3EBDB928000070B50646B568D5F869
:1028C000A00030B3D5F8A04004F5E0700CF0F2FAA7
:1028D00004F5E8700CF0EEFA04F5F0700CF0EAFA8A
:1028E0000720C4F8F4012046FFF7FCFD204600F065
:1028F000AFF994F8F00120B1084904F52A7007F007
:1029000049FDFFF705F920461BF058F90020C5F8EE
:10291000A0000021304607F025FD70BD475D000096
:1029200070B50646B468D4F8140298B90320C4F808
:10293000F4012046FFF7D6FD0020C4F8F801204638
:10294000FFF76CFED4F80802C4F814020F494FF4E4
:10295000E27001510E49D4F81402884206D9D4F825
:102960001402401AC4F814020A4D08E04FF47A71B8
:10297000D4F8140200FB01F50020C4F81402002072
:10298000C4F80002C4F8C051012070BD3528000011
:102990009BC4200078FDFF7F2DE9FC478146D9F8D4
:1029A00008400025D4F81802C8B1A649D4F8180286
:1029B000884206D9D4F81802401AC4F81802A24D69
:1029C00008E04FF47A71D4F8180200FB01F50020FA
:1029D000C4F81802C4F8D0510120BDE8FC87D4F82F
:1029E000F401092848D2DFE800F0EE6BEE8BBA055F
:1029F000EEEE060000BFD4F80C02B0F57A4F3CD0E2
:102A000008F04AF8C0F30A00D4F80C120844A0F504
:102A10008065D4F8000278B1D4F80812D4F8000226
:102A2000884209D24FF47A70B5FBF0F0D4F8001266
:102A30000844C4F8000208E04FF47A70B5FBF0F0E7
:102A4000D4F808120844C4F80802C4F8D051D4F8E5
:102A50000C024000C4F80C02D4F80C02B0F57A4F16
:102A600003D94FF47A40C4F80C024FF42670005991
:102A7000401C4FF426710851A5E0D4F8F401082851
:102A800013D1D4F8300228B100210846D4F83032EE
:102A900022689847FFF73CF800202168C1F8A000A1
:102AA00020461BF08BF8002097E70120C4F8F401C2
:102AB0004FF47A60C4F80C022046FFF713FD00BF04
:102AC00007F0EAFFC0F30A0004F5E874E16B08447C
:102AD000A0F580652560E06B4000E063E06BA4F545
:102AE000E874B0F57A4F03D94FF47A40C4F80C0279
:102AF0004FF424700059401C4FF42471085162E0D7
:102B0000D4F80012D4F80802401A45083C2D00D22F
:102B10003C25D4F800022844C4F80002C4F8185236
:102B20004849D4F81802884206D9D4F81802401A45
:102B3000C4F81802444D08E04FF47A71D4F8180232
:102B400000FB01F50020C4F81802C4F8D0514FF47E
:102B500026700059401C4FF42671085133E0D4F818
:102B60000812A069401A45083C2D00D23C25D4F833
:102B700008022844A169884204D2D4F808022844F3
:102B8000C4F80802C4F818522E49D4F81802884232
:102B900006D9D4F81802401AC4F818022A4D08E0E1
:102BA0004FF47A71D4F8180200FB01F50020C4F844
:102BB0001802C4F8D0514FF426700059401C4FF44D
:102BC0002671085100BF00BF07F080F906460EB914
:102BD000012002E72769B4F81C02000A387294F851
:102BE0001C1279724FF47A70B5FBF0F0D4F81C1215
:102BF0000844C4F81C0230462269D4F8241207F0B5
:102C00008AF994F8F001B8B1D4F8F401032803D09C
:102C1000D4F8F401082802D1D4F81C8001E04FF068
:102C2000FF380020CDE90060432342460748216A6F
:102C3000006800F01CFC03E030462168FEF7A4FFAA
:102C40000120CAE69BC4200078FDFF7F1003FF1F10
:102C50007CB5044607F03AF9054605B97CBD28461F
:102C60002269D4F8241207F056F994F8F00160B103
:102C70000020CDE90050F0200259F42001594323EF
:102C80000548006800F0F3FB03E028462168FEF7E2
:102C90007BFF00BFE2E700001003FF1F2DE9F043B8
:102CA00087B004468946D4F83481D8F8A060002E55
:102CB0003CD0D6F8F401022838D0E76805A804A96A
:102CC00003AA06ABCDE9002102903A4621463046E0
:102CD00000F0D0FA0546059828B160680168884779
:102CE00007B0BDE8F083022D0AD1DDE90301CDE98B
:102CF00000013A4621463046069B00F013F915E0E4
:102D0000D6F8F401012811D0052D08D1CDF80080A6
:102D10003A4621463046069B00F00EF806E0062DA6
:102D200004D139463046069A00F0CEF86068016852
:102D3000884700BFD4E700002DE9F04704468846E5
:102D400015461F46DDF820904FF0010A4FF4287019
:102D50000059401C4FF428710851D4F8F401082898
:102D600017D104F5E8700CF0A5F8D4F8300228B1BA
:102D70004A4639462846D4F830329847FEF7C8FE0E
:102D800000202168C1F8A00020461AF017FFBDE816
:102D9000F0872E46307D0106707D41EA0041B07D0E
:102DA00041EA00203546F17D0843A062307C0106EF
:102DB000707C41EA0041B07C41EA0020F17C08438C
:102DC000F421085104F5F0700CF074F841462046E7
:102DD000FFF74AFC94F8F00170B1A169D4F8EC0057
:102DE000884201D24FF0000AD4F8EC00A06104F54B
:102DF000E0700CF05FF80BE02046FFF774F92F4904
:102E000004F52A7007F0C6FA2D494FF4F27001510B
:102E1000A069401C10B1204600F0CCF804F5E87021
:102E20000CF048F8012084F8F001204600F012FA76
:102E3000C0B141F604212046FFF777F9214904F596
:102E40002A7007F0A7FA002084F8F001C4F8000205
:102E50000120C4F8F4012046FFF744FB2046FFF7A9
:102E6000DDFB28E00220C4F8F401D4F8300228B1D8
:102E70004A4639462846D4F830329847A069401C63
:102E800070B994F8280200F00200A0B9FEF740FEE5
:102E900000202168C1F8A00020461AF08FFE0AE049
:102EA000BAF1000F03D004F5E0700BF0DDFF04F57C
:102EB000F0700BF0D9FF00BF69E70000AF5B0000C6
:102EC00089310000475D00002DE9F04104460D46C0
:102ED000164600274FF429700059401C4FF4297101
:102EE0000851D4F83C0230B131462846D4F83C327F
:102EF00022689847074637B10520C4F8F4012046F8
:102F0000FFF7F0FA0CE00020C4F80002C4F8100249
:102F100004F5F0700BF0CEFF04F5F07000F034F91A
:102F2000BDE8F0812DE9F04704460F4615461E46E0
:102F3000DDE908894FF427700059401C4FF42771D0
:102F40000851D4F8F401012832D1D4F82C0250B140
:102F500031462846D4F82C229047002803DAC4F8DA
:102F6000F080BDE8F08794F8280200F0040020B15A
:102F7000F42210592168FFF753FC04F5E8700BF0B8
:102F800099FFC4F8F09039462046FFF76DFB052005
:102F9000C4F8F4012046FFF7A5FA4FF47A60C4F8AC
:102FA0000C023220C4F8D00104F5E8700BF05CFF8D
:102FB00000BFD6E72DE9F0410446D4F8FC0120B16A
:102FC000D4F8FC01C4F800020EE01421A069B0FBA3
:102FD000F1F807F061FDB0FBF8F108FB1105A069FD
:102FE00005EB5000C4F80002D4F8040238B1D4F85C
:102FF0000012D4F80402401AC4F8080213E01421A5
:10300000A069B0FBF1F807F047FDB0FBF8F108FB51
:103010001105A069C0EBC00005EBD000D4F8001288
:10302000401AC4F80802D4F80002C4F814021B497C
:10303000D4F81402884206D9D4F81402401AC4F80D
:103040001402174E08E04FF47A71D4F8140200FB12
:1030500001F60020C4F81402C4F8C06111494FF40D
:10306000E2700151A069C4F810020C49D4F81002B2
:10307000884206D9D4F81002401AC4F81002084F4A
:1030800008E04FF47A71D4F8100200FB01F7002039
:10309000C4F81002C4F8E071BDE8F0819BC42000C0
:1030A00078FDFF7F2129000070B505460C46686950
:1030B00000F20316287B00F0010080B10820C4F85C
:1030C000F401E9692162686A18B94FF0FF31E161E2
:1030D00001E0696AE161012084F8F00102E0012069
:1030E000C4F8F401A86820604FF42D70A96801515C
:1030F00000202168C1F89C002068C0F8A040A869A1
:10310000006804F50A746060A8694068A060A86956
:10311000C068E060A86900692061A8698069606191
:10312000E8682060A4F50A7404F53E702061C4F8D4
:10313000206211494FF4EA700151001D04510F49FA
:103140004FF4E2700151001D04510D494FF4F2702B
:103150000151001D04514FF47A71E86A4843C4F8E4
:10316000F8012046FEF7FCFF29462046FFF75AF8F3
:103170000448FEF7EFFC70BD9929000021290000EA
:10318000893100009D2C00002DE9F0410646B4680D
:103190000027B846D4F81002C8B12B49D4F8100261
:1031A000884206D9D4F81002401AC4F81002274DFC
:1031B00008E04FF47A71D4F8100200FB01F500200A
:1031C000C4F81002C4F8E0514FF0010838E094F858
:1031D000F00168B11E4904F52A7007F0DBF8D4F855
:1031E000340260B1D4F8341220688847074606E0FC
:1031F000D4F8380218B1D4F838122068884704F59A
:10320000E0700BF057FE04F5E8700BF053FE77B159
:103210000020C4F8080284F8F0010120C4F8F40189
:103220002046FFF75FF92046FFF7F8F908E0FEF7C0
:103230006FFC00202168C1F8A00020461AF0BEFCF7
:103240004046BDE8F08100009BC4200078FDFF7F70
:10325000475D000070B50446256A266894F8280288
:1032600000F0040008B9002070BD29463046FEF782
:1032700055F9F9E72DE9FF4F81B006468B46174611
:10328000DDF84090DBF80800F02807D241F68420F2
:10329000C9F80000002005B0BDE8F08FD6F810A0F6
:1032A0003D4628790106687941EA0041A87941EA5A
:1032B0000020E97908439AF804100A069AF80510E4
:1032C00042EA01429AF8061042EA01219AF80720E0
:1032D0001143884205D041F68320C9F80000002040
:1032E000D9E707F1EC08DBF80810049801600498AE
:1032F0000068EC38009098F80000000698F801107B
:1033000040EA014098F8021040EA012098F80310C2
:1033100008433449884205D041F68120C9F80000AD
:103320000020B8E708F104080098001F0090F02082
:1033300081590E980160584604F02CFCF021885108
:10334000287C0106687C41EA0041A87C41EA002013
:10335000E97C0843F421885136224046009900F068
:1033600043F8044614B1607804280ED041F60321D6
:103370003046FEF7DAFE0E980168F020815141F6E2
:103380008220C9F80000002085E7A41C20780006F0
:10339000617840EA0140A17840EA0120E1780843E1
:1033A0000F99086035224046009900F01DF8044648
:1033B00014B1607801280ED041F602213046FEF7A4
:1033C000B4FE0E980168F020815141F68220C9F8C0
:1033D000000000205FE7A41C0020C9F8000020784E
:1033E00059E700006353826330B50346154600BFBA
:1033F00009B9002030BD1A785B1C491EFF2A01D193
:103400000020F7E702B9F3E709B90020F2E71C78DA
:103410005B1C491EA14201D20020EBE7AA4201D168
:10342000981EE7E72344091BE2E7F0B506460D4680
:103430001746059C3168A01CD5F800C0844501D210
:103440000020F0BD0F70491C0C70491C002203E0E5
:10345000985C0870491C521CA242F9D3A01CD5F8F4
:1034600000C0ACEB0000286031600120E9E72DE9E5
:10347000F04385B007460C4615461E46DDE90C892B
:10348000002003900490019002900120ADF80C0000
:103490000220ADF8040003AA0021204607F060FDD9
:1034A00001AA3146284607F05BFD434601AA03A95D
:1034B0003846CDF8009010F061FA05B0BDE8F08311
:1034C0002DE9F84F05460E4614464FF000093CB36F
:1034D000002020606060002717E04FF000080AE03D
:1034E00036B901202080009860604FF0010918E093
:1034F000761E08F101086A464146504607F040F939
:103500000028EDD105B10AE07F1C15B1284682469E
:1035100003E0384621F0DCFD82460028DDD100BF03
:1035200000BF4846BDE8F88F2DE9F04190B0044651
:103530004FF0000801200A90002C66D0A0680028F7
:1035400063D04FF4007007F0D7F90646002E5CD028
:1035500000200E900F902088ADF83800D4E90001CB
:10356000CDE90C01BDF8320010B93520ADF83200BC
:1035700020880022274907F034FB0746781C0028E2
:1035800040D004200AAB4FF4FA7202210090384672
:1035900023F01EF898BB08220EA938461FF0D8FA6F
:1035A000054665BB08220CA938461FF089FB054675
:1035B0002DBB0BA80090227B33463846A1681FF034
:1035C00099FD0546DDB901A806F095FE01A938462A
:1035D00006F072FE40F6B83000231A4601A90090AA
:1035E000012022F053FF012808D10B980090227B84
:1035F00033463846A1681FF091FC804600BF38462C
:103600001FF0FAFA30461AF0D9FA404610B0BDE879
:10361000F08100007C85020070B504460EE0606910
:1036200010B160691AF0CAFA606810B160681AF0E7
:10363000C5FA2546246828461AF0C0FA002CEED1B7
:1036400070BD0000F0B587B000250024022051496C
:1036500008600020504908600420504908600A2191
:1036600004A820F044FB00214DA016F0C9FA05463D
:1036700025B94DA016F0E4FEFDF7BDFB4FF4165042
:1036800000906A4640F60451284616F07BFE064636
:10369000002240F61251284616F074FE064602201B
:1036A0001EF0BCFA002240F61351284616F06AFEBE
:1036B000064602201EF0B2FAC1208DF8100004A8C0
:1036C000FDF7E6F807463A4604A9284617F0A6FD96
:1036D000284615F07BFA02201EF0A0FA1722204699
:1036E000611CCCB204A90A5445222046611CCCB20C
:1036F00004A90A545B222046611CCCB204A90A54D6
:103700000F222046611CCCB204A90A54224800783A
:1037100040F091022046611CCCB204A90A5404A8CE
:10372000FDF7B6F807463A4604A9284617F076FD95
:10373000284615F04BFA00200190029003900A21D0
:1037400004A820F0D4FA01A9052007F01DFB0646C5
:10375000052E1BD19DF8070000F0F100B0B99DF8CF
:10376000070000F00E000C49096888420ED19DF850
:10377000080000F0F000902808D19DF8080000F043
:103780000C0005490968884200D100E000BF012013
:1037900007B0F0BD9800FF1F9400FF1F9C00FF1FA3
:1037A00069747479643A00000A2043616E6E6F7424
:1037B000206F70656E2066696C6520727320667577
:1037C0006E633A64657465637400000001460868BE
:1037D00008B102680A60704702680A6001607047B9
:1037E0002DE9F04706468946344604F5A8701AF0DC
:1037F000E3FC251D07E028680088484500D105E066
:10380000286800F1100528680028F4D100BF286856
:1038100030B904F5A8701AF061FC1448BDE8F087CF
:103820002F683869286004F5A8701AF057FCD7F89B
:10383000088038461AF0C2F905E0D8F80CA04046D6
:103840001AF0BCF9D046B8F1000FF6D104F5A87013
:103850001AF0B2FCA06800680068816930468847A9
:1038600004F5A8701AF03AFC0020D7E7090401001B
:103870002DE9FC4380460B4616460E2703F10C0249
:10388000507892F800C040EA0C25B5F5014F09D1F7
:10389000901C3F1D821C92F801C092F800904CEAE7
:1038A000092500BF40F2DC5085421DDC02F1020C0C
:1038B0009CF80000AA2803D19CF80100AA2802D095
:1038C0000020BDE8FC8307EB05093068484501D2BC
:1038D0000020F6E7781930600CF10602507892F873
:1038E000009040EA092500BFD8F8044061E0208834
:1038F000A8425DD118788DF8000058788DF8010045
:1039000098788DF80200D8788DF8030018798DF832
:10391000040058798DF805009DF8000000F00100C2
:10392000F0B39DF80000FF2813D19DF80100FF2897
:103930000FD19DF80200FF280BD19DF80300FF284E
:1039400007D19DF80400FF2803D19DF80500FF284A
:103950002DD0A16826E09DF8000091F800C06045D8
:103960001FD19DF8010091F801C0604519D19DF863
:10397000020091F802C0604513D19DF8030091F850
:1039800003C060450DD19DF8040091F804C0604566
:1039900007D19DF8050091F805C0604501D103E00D
:1039A00005E0C9680029D6D100BF01B9002402E0B2
:1039B0002469002C9BD100BF204682E701460B46BC
:1039C0009868028A12B940F2DC5070479868007A11
:1039D00000F0010010B1A2F11600F6E7A2F112000A
:1039E000F3E702461346187B0870587B4870987BB3
:1039F0008870D87BC870187C0871587C487100208A
:103A0000704770B504460D46164632462946204694
:103A100012F092F870BD01460A460AB1106870476C
:103A20000020FCE701460A4622B1906810B1906878
:103A3000806870470020FCE7014601F11C007047D8
:103A40002DE9F04104460E4617461D4654B904EBD5
:103A5000C401064A02EB81002A46314600F008F80C
:103A6000BDE8F0814FF48230FAE7000018850200CB
:103A70002DE9F04705460E46174600241DB94FF4C0
:103A80008230BDE8F087A88A698A884201DA354821
:103A9000F7E706201AF078FD044608E0A068006801
:103AA000007A2968097A884200D102E02468002C53
:103AB000F4D100BF1CB13C602A48801CE1E7002023
:103AC00038604FF4B67019F065FF044614B9254804
:103AD0001538D6E74FF47B7120461AF09DF93078FF
:103AE000207371786173B178A173F178E1733179E2
:103AF000217471796174A560A068007A00F00100FA
:103B000080F0010080F00109A168088A4A4600217E
:103B100000F0EAF8E082A268918BD08A4A4600F071
:103B2000E3F8A082012104F5A8701AF08CF9286846
:103B300000680168204688478046B8F1000F06D12A
:103B40002246214606201AF019FE3C6008E004F5E2
:103B5000A8701AF0EBF920461AF030F8002038600F
:103B600040468EE7170401002DE9F047804689465C
:103B700015464746287800F0010010B92248BDE8F4
:103B8000F08707F5A8701AF017FB7E6804E030880C
:103B9000484500D102E03669002EF8D100BF36B9A1
:103BA00007F5A8701AF09AFA1748C01EE7E7102028
:103BB00019F0F0FE044634B907F5A8701AF08EFA31
:103BC0001148401CDBE740F2EE3120461AF024F9A0
:103BD0002878207068786070A878A070E878E07025
:103BE0002879207168796071B068E060B460B86865
:103BF00000680068214642694046904707F5A87072
:103C00001AF06CFA0020BAE70C0401002DE9F04725
:103C100080468A461546464606F5A8701AF0CCFA44
:103C2000776804E03888504500D102E03F69002FF2
:103C3000F8D100BF37B906F5A8701AF04FFA24483A
:103C4000BDE8F08707F1080421E0206800782978B2
:103C5000884219D1206840786978884214D1206858
:103C60008078A97888420FD12068C078E9788842A6
:103C70000AD1206800792979884205D120684079E5
:103C80006979884200D105E0206800F10C042068C1
:103C90000028DAD100BF206830B906F5A8701AF004
:103CA0001DFA0B48401DCBE7D4F80090D9F80C0062
:103CB0002060B0680068006881694046884706F562
:103CC000A8701AF00BFA484619F078FF0020B7E701
:103CD0000904010070B504462546A86800684068DC
:103CE000C1682846884770BD034601B933B912B18F
:103CF00040F2F250704740F2EE50FBE71846F9E709
:103D00002DE9F0470646884691469A46354605F520
:103D1000A8701AF051FA2F1D0DE038680088404550
:103D200006D105F5A8701AF0D9F91548BDE8F08755
:103D3000386800F1100738680028EED1142019F017
:103D400029FE044634B905F5A8701AF0C7F90C48E5
:103D5000401EEBE740F2EF3120461AF05DF8A4F880
:103D60000080C4F804900020A060C4F80CA020617A
:103D70003C6005F5A8701AF0B1F90020D6E7000004
:103D8000080401002DE9F04706460F461446B046E8
:103D90004FF00109002512E000202060D8F808004B
:103DA000006800684FF4805322462946D0F80CC0C2
:103DB0004046E04708B94FF00009241D6D1CBD4284
:103DC000EAD34846BDE8F0872DE9FF4F87B00E469D
:103DD0009946DDF850A0079C6D4800680390039851
:103DE00090F8400000F0010040B109983346CDE959
:103DF000000968490120079A18F03EFA0AF002000B
:103E000010B11220059001E00E200590B1680598D0
:103E1000814205D2606B401C6063DFF87C81A1E0C9
:103E20004FF0000BCDF810B006F10800069015E039
:103E300006980068E18A884207D9606B401C60637D
:103E4000DFF8548108F101088CE00698006883448B
:103E50000498401C04900698083006900698006864
:103E60000028E5D1E08A584507D2606B401C6063AA
:103E7000DFF8248108F1010874E0F56899F8000082
:103E8000287099F80100687099F80200A87099F8F4
:103E90000300E87099F80400287199F8050068712A
:103EA000207BA871617BE971A17B2972E17B69723A
:103EB000217CA972617CE97205F10C070AF002000D
:103EC00078B1B81C81223A7000227A70CAF34B1282
:103ED000CAF3820342EA43310A0A02704170871C26
:103EE00000BF0AF00100A8B1B81C0599ABEB0101B5
:103EF000090A39700599ABEB01017970AA210170AB
:103F00004170032181700021C17000220271427151
:103F1000871D00BF0998000A38700998787004F569
:103F2000A8701AF049F901E01CF0ECFD0498029029
:103F3000CDF800A0A06800680068D0F808C05A4614
:103F400031462046029BE047804640461249491DC3
:103F50008842E9D004F5A8701AF0C0F8B8F1000F53
:103F600003D000BF304631688847039890F840007E
:103F700000F0010040B100203346CDE90080054942
:103F80000220079A18F078F940460BB0BDE8F08F90
:103F9000E001FF1F010010000A04010070B5054692
:103FA00015B94FF4823070BD2C46606808B10C48DA
:103FB000F9E7A0680068006841682046884706461F
:103FC0005EB904F5A87019F0B1FF2246214606201B
:103FD0001AF03CFC204619F0F1FD3046E3E7000002
:103FE00018040100014609B907A07047B1F5823FE6
:103FF00002D30648814201D905A0F6E7A1F5823037
:10400000074A52F82000F0E74F4B00001D04010062
:10401000556E6B6E6F776E206572726F7200000066
:104020001802FF1F2DE9F04198B000258C4E282082
:1040300005F0D2FC05F032FA07468A4800782828B5
:1040400033D1442005F0E4FC4FF47A701DF0E6FD16
:10405000002005F035FA55208DF85400002405E0C5
:104060008048015D15AA601C1154641C082CF7DB04
:1040700005F0FEFAC8B10022092115A805F066F97D
:104080000025BE2228466D1C15A90A54002405E00F
:10409000FF2228466D1C15A90A54641C092CF7DB65
:1040A0000122294615A805F051F96F48FCF7F0FBED
:1040B0008046424600216C48FCF75CFC13A81DF0CA
:1040C00037FF0EA913A81EF0C9F8684802686848AF
:1040D0000368BDF94200BDF94010CDE90C32CDE9CD
:1040E0000A10BDF93E00C01CBDF93C10BDF93A20D4
:1040F000BDF93830CDE90632CDE9081059480178CC
:1041000042788078574BDB78CDE90230CDE9042145
:104110005448007953494979CDE9001051488379D1
:10412000C2793146504817F041F84F4951A016F076
:1041300087F94D48503019F0D1FF4B486C301AF0D8
:104140003BF885E047480078282833D1442005F023
:104150005FFC4FF47A701DF061FD002005F0B0F9AE
:1041600055208DF85400002405E03E48015D15AA55
:10417000601C1154641C082CF7DB05F079FAC8B1F7
:104180000022092115A805F0E1F80025BE222846E5
:104190006D1C15A90A54002405E0FF2228466D1C59
:1041A00015A90A54641C092CF7DB0122294615A81D
:1041B00005F0CCF82C48FCF76BFB8046424600210A
:1041C0002948FCF7D7FB13A81DF0B2FE0EA913A8CF
:1041D0001EF044F82548026825480368BDF94200EE
:1041E000BDF94010CDE90C32CDE90A10BDF93E0011
:1041F000C01CBDF93C10BDF93A20BDF93830CDE9FD
:104200000632CDE908101748007816494978154A52
:104210009278144BDB78CDE90232CDE904101148D5
:10422000007910494979CDE900100E488379C279A7
:1042300031460D4816F0BAFF0B490EA016F000F9F2
:104240000948503019F04AFF07486C3019F0B4FFA4
:1042500005F00AFA00287FF475AF18B0BDE8F081C8
:10426000E88B0200A400FF1F6403FF1FC000FF1FB4
:10427000BC00FF1F0A2573002DE9F04F85B083466F
:10428000DBF80840206AD0F804900121484602F08B
:10429000BBFD0490049802F02FFA8246BAF1000F99
:1042A00047D0DAF89800002843D049465046FDF739
:1042B00054F805463BE00395284603F06BFC04994F
:1042C00088422BD1284602F007FA804695F8600113
:1042D00002900298012821D16E6937782FB1082FFA
:1042E00003D00D2F1ADB122F18DC7079317940EAD8
:1042F00001200190F079B17940EA01200090206A14
:1043000081890198814209D1A18C0098814205D10F
:10431000C14503D149465046FDF70DF9494650467F
:10432000FDF71BF805460398854200D10025002DB6
:10433000C1D1A06810B1D4E90210C860D4E902016B
:1043400008604FF4AC51204606F00CF8002005B090
:10435000BDE8F08F38B500200090C82006F0CCFAF8
:10436000044614B941F2021038BD41F2080120465A
:1043700019F052FD01201AF007F904616B46002282
:104380000249012002F0FBFA0098EDE731480000F5
:104390002DE9F843044601201AF0F6F8056928696A
:1043A000401C2861B5F8C400A084B5F8C400401CC6
:1043B000A5F8C40005F08AFD07464FB96869401C9E
:1043C000686141F21031204605F0CCFFBDE8F8836A
:1043D000206A0069A0B1206A406988B1206AD0E9EA
:1043E0000421384605F097FD8146B9F1000F07D04A
:1043F0007868016888474946204605F0B3FFE5E73D
:104400000821384605F0C4FE8146B9F1000F10D0EE
:10441000E869401CE8613A46494605F1380006F073
:10442000C8FB7868016888474946204605F09AFF2E
:10443000CCE7FE687E610820307000207070B0709C
:104440000021F170206A8089000A3071206A017BA6
:104450007171A08C000AB07194F82410F171394682
:10446000002001F0E4FE80464FF6FF71884501D13F
:10447000404602E06FEA080080B280464FEA18200A
:10448000B07086F803800020C7F84001206A806879
:1044900020611B496161A46106F047FCA062002015
:1044A0000090206A4368807B012242EA00210022BA
:1044B000384602F0E3FF8146B9F1000F07D0686982
:1044C000401C68614946204605F04CFF7EE755F8E0
:1044D000A40F401C2860E869A43DA060A06818B142
:1044E00004F10800A168C860C5F8C04005F1C0002B
:1044F000E06004F110000AF0B7FC00BF66E70000BE
:10450000794200002DE9FC4705460E4617461C4639
:10451000DDF82890D4F8108094F8300100F0020003
:1045200008B1BDE8FC87002043463A463146CDE954
:104530000040284600F002F800BFF2E72DE9FF4FE7
:1045400089B01D46DDF8589001201AF01DF8046965
:10455000287B0106687B41EA0041A87B41EA0020F4
:10456000E97B08430890287C0106687C41EA004109
:10457000A87C41EA0020E97C0843079028780007DE
:104580004FEA9068E878A97840EA0120A0EB08009B
:104590001FFA80FB0020079902F0B4F908B10798D0
:1045A00000E000200590179810B94FF4097017909B
:1045B000B9F1000F0FD0D9E90301401A0390D9F8DF
:1045C0008410039801441798814204D2D9F88410CA
:1045D0000398084417900BEB08011798814204D9FF
:1045E0001798A0EB08001FFA80FB687A012813D106
:1045F000BBF1000F02D10DB0BDE8F08F05EB08074D
:10460000387848B13878082806D038780D2802DB89
:104610003878122800DDEEE72069401C206105F0A3
:1046200055FC06461EB96069401C6061E3E7B9F1BC
:10463000000F0BD04946304605F0C8FC08EB0B01D3
:104640002A46304605F067FC82462CE008EB0B005A
:1046500006F02EF90490049868B96069401C606106
:10466000324641F2021104F1380006F0A2FA7068F5
:1046700001688847BFE741F20901049819F0CCFBB3
:1046800008EB0B0229460498FCF76CF908EB0B01C8
:104690003046049A05F06BFC8246BAF1000F02D056
:1046A000049819F08BFABAF1000F04D108213046B2
:1046B00005F06EFD8246BAF1000F0CD06069401C17
:1046C00060613246514604F1380006F072FA7068B3
:1046D000016888478FE7F768099838700A987870FA
:1046E0000020B8700021F9700B98000E38710B98FB
:1046F000010C79710B98010AB9710B98F8710121BD
:10470000089802F081FB0290029801F0F5FF0190F9
:10471000019888B1019890F8D80000F0020058B1D3
:10472000B168019803F04FFA30B9D6F8300140F083
:104730004000C6F830011AE03146002001F077FD54
:1047400006904FF6FF710698884201D1069802E064
:104750000698C04380B206900698000AB870069882
:10476000F870D6F8300120F04000C6F83001099802
:1047700011284CD2DFE800F02D4B4B091B214B4B8D
:10478000274B4B0F1533393F4500D4F89000401CA0
:10479000C4F8900041E0D4F89400401CC4F89400A0
:1047A0003BE0D4F89800401CC4F8980035E0D4F8F9
:1047B0009C00401CC4F89C002FE0D4F8A000401CD2
:1047C000C4F8A00029E0D4F8A400401CC4F8A40058
:1047D00023E0D4F8A800401CC4F8A8001DE0D4F8D9
:1047E000AC00401CC4F8AC0017E0D4F8B000401C8A
:1047F000C4F8B00011E0D4F8B400401CC4F8B40010
:104800000BE0D4F8B800401CC4F8B80005E0D4F8B8
:10481000BC00401CC4F8BC0000BF00BF00200090DA
:1048200001213046089B059A02F028FE00BFE2E60F
:104830002DE9F04F8FB00546012019F0A5FE04695F
:104840002068401C2060EF68284603F0A3F90E9012
:10485000284601F041FF814638780D90A868042869
:104860000BD2A068401CA060A06D401CA0656868C9
:10487000016888470FB0BDE8F08F95F8300100F06F
:10488000400088B92946002001F0D1FC4FF6FF71A5
:10489000884209D0A068401CA060606D401C606523
:1048A000686801688847E5E70D9805280AD004DCA8
:1048B000002878D003284ED14DE108284CD00B2891
:1048C000F9D149E13E46A8681C2809D2A068401CDD
:1048D000A060A06D401CA065686801688847C9E7B2
:1048E00030790106707941EA0041B07941EA00204F
:1048F000F17940EA010B307E0106707E41EA004109
:10490000B07E41EA0021F07E08430A90594600201B
:1049100001F0F8FF10B9BBF1000F03D1A068401CF3
:10492000A06018E00A990E9801F0BEFF68B1CDF8BA
:1049300014B00A9807904FF0FF30089000200690BE
:10494000E749684605F026FD05E0A068401CA06028
:10495000E06D401CE06571E109F1010050B109F022
:104960007040B0F1604F09D14946D5F8340120F0CC
:104970007DFB18B9A068401CA06090E00421284687
:1049800005F04EFC8246BAF1000F0DD0E068401CE5
:10499000E0602A46514604F1200006F00AF96868F2
:1049A0000168884766E77BE0284605F027FB206919
:1049B000401C20610421284605F0EAFB8246BAF13A
:1049C000000F0FD0606F401C60676069401C606121
:1049D0002A46514604F1380006F0EBF86868016891
:1049E000884747E7EF68002038707870B87000217A
:1049F000F970C5F8400101210E9802F005FA0C90FB
:104A00000C9801F079FE0B900B9888B10B9890F8F8
:104A1000D80000F0020058B1A9680B9803F0D3F851
:104A200030B9D5F8300140F04000C5F8300119E048
:104A30002946002001F0FBFB80464FF6FF718845B8
:104A400001D1404602E06FEA080080B280464FEA9A
:104A50001820B87087F80380D5F8300120F04000A6
:104A6000C5F8300109F07040B0F1604F04D04946FC
:104A7000284601F02DFC20B1D5F8340101F062FE8A
:104A80008146D4F8A800401CC4F8A800002000907B
:104A90004A46012128460E9B02F0F0FC0025CDE09D
:104AA000BB46A868082809D2A068401CA060A06D79
:104AB000401CA065686801688847DBE69BF8050034
:104AC0009BF8041040EA01200A909BF807009BF82D
:104AD000061040EA01200990D4F8C06037E0306A3F
:104AE00081890A98814231D1B18C099881422DD1B6
:104AF000B06810B1D6E90210C860D6E902010860BA
:104B000006F110000AF0D6F906F00FF90890B06A25
:104B1000089906F01DF9316A886128690022316A16
:104B20000A604A600121326A1180017B0A06417BDA
:104B300042EA0142817B42EA0121C27B1143326A8F
:104B400051600021304605F00DFC02E0B668002EF1
:104B5000C5D100BF72E000BF0A9701200890D5F8C8
:104B600008B0BBF11C0F68D307F10806ABF1080BC6
:104B700000BF707A042800D020E030780007800E53
:104B8000099009981430834500D217E0099806442B
:104B90000998ABEB000B307B0106707B41EA0041CA
:104BA000B07B41EA0020F17B08430E9000200E9973
:104BB00001F0A8FE089008980028DAD100BF3078EC
:104BC0000007800E09900898B8BB0998083058452E
:104BD00033D80D98032813D17878079007980228C6
:104BE00004D0032805D0052809D105E0002007904E
:104BF00005E00120089002E00120089000BF03E0DA
:104C000003200D90012007900898B0B90020CDE94D
:104C1000000B0A98007901060A98407941EA0041A0
:104C20000A98807941EA00210A98C07941EA000295
:104C3000334607990D98FFF781FC00BF00BF0D9820
:104C400011283CD2DFE800F0213B3B0915193B3B22
:104C50001D3B3B0D1125292F3500206E401C206681
:104C600036E0606E401C606632E0A06E401CA066BC
:104C70002EE0E06E401CE0662AE0206F401C2067BA
:104C800026E0606F401C606722E0A06F401CA067B8
:104C90001EE0E06F401CE0671AE0D4F88000401C82
:104CA000C4F8800014E0D4F88400401CC4F88400E8
:104CB0000EE0D4F88800401CC4F8880008E0D4F85E
:104CC0008C00401CC4F88C00A068401CA06000BF91
:104CD00000BF15B168680168884700BFCAE50000D9
:104CE000C75C000010B5012019F04EFC04690CB13E
:104CF000204610BD0020FCE770B50546AC680020DA
:104D000084F820001221204600F0A1FB064666B977
:104D100005F0C2FE42F21071B0FBF1F201FB12008D
:104D20002061012084F8200070BD606A48B1606A8B
:104D3000401E606242F210702061012084F8200061
:104D4000F2E70020F0E770B504460D4688200059D0
:104D500008B9002070BD8820025929462046904796
:104D6000F8E770B504460D468C20005908B90020BC
:104D700070BD8C200259294620469047F8E72DE95E
:104D8000FC4104466769A6694FF00008E068D0F866
:104D90008000F0B1E068D0F88000056817E0082EC8
:104DA00006D3D5E90001C7E900010837083E0BE04A
:104DB00056B1D5E90001CDE90001324669463846D1
:104DC000FBF7D0FD002600BFED6808F10808002DB4
:104DD000E5D1C4F818800020BDE8FC8170B5044618
:104DE00000252069A0F25A2020B92046FFF7C7FF0E
:104DF000054602E041F2117500BF00BF294620467A
:104E000005F0B0FA70BD000038B56C2005F074FDF7
:104E1000044614B94FF4AE5038BD012019F0B4FB6C
:104E2000C4626B4600220549022001F0A8FD0098EB
:104E300010B14FF4AE50EFE70098EDE735550000A4
:104E4000044A42618061002180F820100221416201
:104E500070470000F94C000001460020C1F8CC006A
:104E60000248C1F8D000002070470000F94E000051
:104E70007CB505460C4604480090019469462846D6
:104E800000F002F97CBD0000010000E02DE9FC41CA
:104E900005460E464FF000081648009001966946F8
:104EA00005F1CC0000F052FA07461FB139462846FA
:104EB00000F095F916E0D5F8CC4004E06068B04207
:104EC00000D102E0E468002CF8D100BF04B90DE085
:104ED000204600F0BBF98046B8F1000F02D04046F2
:104EE000BDE8FC81D5F8CC000028E4D100BF4046E5
:104EF000F6E70000010000E02DE9F04106460F460C
:104F00004FF0000806F1CC0412E020684068B84277
:104F100003D0206800F10C040AE02146304600F07E
:104F20005EF905461DB1B8F1000F00D1A84600BFDB
:104F300020680028E9D14046BDE8F0812DE9FF4115
:104F400004460D461646012019F01EFBC76820686E
:104F500018B9002004B0BDE8F081009601950294D4
:104F600000208DF80C006A46034907F1B40001F0F7
:104F7000CDF89DF80C00EDE77D4F00002DE9FC47D2
:104F800081468A461746984645463E46C6B1B069B0
:104F9000B0B1B4692868009000BFA0686968884211
:104FA0000AD1606801906946A86800F0CFF918B18D
:104FB00001202873BDE8FC872468B069A042ECD1C9
:104FC0000020F7E72DE9F04106460D4617463A4620
:104FD0002946304600F074F8044614B12046BDE876
:104FE000F081284600F00CF8044634B13A462946D0
:104FF000304600F008F92046F1E70020EFE7000016
:105000002DE9F0410546686801F076FB06461EB9B9
:1050100041F2C350BDE8F081294606F1CC0000F012
:1050200095F9044634B120688068401C2168886086
:105030000020EFE7294606F1CC0000F061F90446B4
:1050400014B941F2C150E5E730462968FFF77BFE0D
:10505000074627B1204600F06FF93846DAE728689E
:1050600020F0FF00B0F1604F06D02068FFF7E8FEA7
:105070000021206800F046F80248C6F8D000002061
:10508000C8E700008D4E00002DE9F04105460E46B0
:10509000314605F1CC0000F033F907461FB941F263
:1050A000C150BDE8F08128463168FFF74CFE044648
:1050B00024B1384600F040F92046F2E70020F0E73E
:1050C0002DE9F04106460F4615463946304600F0B8
:1050D0003DF904463CB120688068401C2168886026
:1050E0000020BDE8F0813946304600F009F9044659
:1050F00014B941F2C150F4E7014828600020F0E7FC
:10510000B351000070B504460D4694F8200000B17C
:1051100070BD2561012084F8200004F1100009F021
:10512000A3FE00BFF4E72DE9F04107460C46904688
:1051300042462146384600F066F80546204600F013
:1051400007F806460EB105B935462846BDE8F08198
:105150002DE9F0410546686801F0CEFA06461EB911
:1051600041F2C350BDE8F081294606F1CC0000F0C1
:10517000EDF8044614B941F2C450F3E720688068A2
:10518000401E216888602068806808B10020E9E737
:10519000206800F069FA204600F0CEF80746304655
:1051A0002968FFF7DEFD07460FB13846DAE7002031
:1051B000D8E7FEB5054600260CE0296803C9CDE90D
:1051C00001016A4601A92846FFF7ADFF04460CB16C
:1051D00006B9264628680028EFD13046FEBD2DE9E5
:1051E000F04107460C46206801683846FFF7B9FDD4
:1051F0000546204600F0A0F806460EB105B9354632
:105200002846BDE8F0812DE9F04105460F461646D7
:105210003946284600F09AF804461CB941F2C450B9
:10522000BDE8F08120688068401E216888602068A1
:10523000806808B10020F3E7204600F07DF8804642
:10524000286808B9002030604046E9E72DE9FC41B4
:105250008046012019F098F947690026D8E9000135
:10526000CDE900017C6E14E0606B00B910E0694686
:1052700004F1340000F06AF848B104F138026946DC
:10528000101FFFF750FF05460DB106B92E4600BFAF
:105290002468002CE8D13C6F14E0606B00B910E08A
:1052A000694604F1340000F051F848B104F13802C5
:1052B0006946101FFFF737FF05460DB106B92E46A8
:1052C00000BF2468002CE8D17C6F14E0606B00B94B
:1052D00010E0694604F1340000F038F848B104F1F8
:1052E00038026946101FFFF71EFF05460DB106B9CB
:1052F0002E4600BF2468002CE8D13046BDE8FC8172
:105300002DE9F04105460E46012019F03DF9C76828
:10531000D7F8AC0005F024FB044614B90020BDE822
:10532000F081D6E90001C4E900010120A0602868ED
:10533000E0602C602846F2E770B504462568E8680E
:105340002060284605F080FB002070BD02460EE07C
:10535000106800680B68984206D1106840684B6876
:10536000984201D110467047106800F10C02106895
:105370000028EDD100BFF6E72DE9F04107460E46C3
:10538000154626F0FF00B0F1604F01D1BDE8F08175
:1053900000251DB942F21075002601E06420454346
:1053A000D7F8CC4031E01EB12068B04200D02BE0ED
:1053B000206820F0FF00B0F1604F00D124E094F8A5
:1053C000200098B104F1100009F08EFDA8421AD90E
:1053D000204600F049F905F05FFBB0FBF5F105FB55
:1053E000110841462046FFF78DFE0CE02046FFF7EE
:1053F00027FD05F051FBB0FBF5F105FB1108414617
:105400002046FFF77FFE00BFE468002CCBD100BF31
:10541000BCE770B506460D4625F0FF00B0F1604FC1
:1054200004D005F07040B0F1604F00D070BDD6F8E8
:10543000CC4008E02068A84204D1204600F014F9CE
:1054400000206062E468002CF4D100BFEEE72DE993
:10545000FC5F06468B46012019F096F8C56A28695C
:10546000401C2861306820F0FF00B0F1604F02D18D
:105470000120BDE8FC9F706801F03EF98246BAF158
:10548000000F04D16869401C68610020F1E704F056
:105490001DFD074627B96869401C68610020E8E7E0
:1054A0000821384604F074FE8146B9F1000F07D098
:1054B0007868016888476869401C68610020D8E7FF
:1054C000FC6884F800B000206070A0700021E170DA
:1054D0003068000E20713068010C61713088010A5B
:1054E000A1713178E17122460821002018F0E6FE12
:1054F0001FFA80F84FF6FF70804501D1404602E068
:105500006FEA080080B280464FEA1820A07084F845
:10551000038030680190A86E401CA866202000908F
:1055200072684FF481713846019B01F0A7FF8146F4
:1055300001209EE72DE9F04105460F46012019F0B4
:1055400023F8C46A2068401C2060EE68A868082818
:105550000AD2A068401CA060A06D401CA0656868CD
:1055600001688847BDE8F0812946002000F05FFE11
:105570004FF6FF71884209D0A068401CA060606DA2
:10558000401C6065686801688847EBE7307811283F
:1055900004D0122818D016282AD116E0E06D401C3D
:1055A000E06533794FEA036C73794CEA034CB379C5
:1055B0004CEA032396F807C043EA0C017278D5F849
:1055C0003401FFF7D9FE17E000BF206E401C2066B3
:1055D00032791306727943EA0243B27943EA02222E
:1055E000F37942EA0301D5F83401FFF712FF03E033
:1055F000206D401C206500BF00BF686801688847B7
:1056000000BFAFE770B504460025A069082805D2A1
:1056100041F21271204604F0A5FE70BD2069B0F57C
:10562000167F03D0A0F25920A0B909E0E368D3F8AF
:1056300084206169D3F88000FFF7C4FC05460CE0C4
:10564000E368D3F884206169D3F88000FFF76BFD2D
:10565000054602E041F2117500BF00BF2946204611
:1056600004F080FE00BFD8E710B5044694F820008F
:1056700000B910BD04F1100009F01CFC002084F8F2
:10568000200000BFF5E770B5064600253046FBF761
:1056900053FD04460CB105B925464FF40061B06FC7
:1056A000FEF79EF804460CB105B9254640F6060102
:1056B000B06FFEF795F804460CB105B925462846AB
:1056C00070BD10B50446A06FFEF704FB10BD7CB59D
:1056D00005460C4601208DF8000000208DF80100E1
:1056E0005E208DF80200C4F306408DF80300200A06
:1056F0008DF80400E0B28DF805006A464FF40061B1
:10570000A86FFEF731FA7CBD7CB505460C4601203A
:105710008DF8000000208DF801005E208DF8020059
:10572000C4F306408DF80300200A8DF80400E0B2AF
:105730008DF805006A464FF40061A86FFEF766FA1F
:105740007CBD000070B50446A06FFEF76BF90646FD
:1057500006F4805028B1D4F8D80040F00100C4F815
:10576000D80006F4005028B1D4F8D80040F0020068
:10577000C4F8D80006F4804028B1D4F8D80040F02E
:105780000400C4F8D80006F4004028B1D4F8D800CA
:1057900040F00800C4F8D8002046FBF7E1FE0546BB
:1057A00005B146E02346244A4FF40061A06FFEF79E
:1057B000A7FA054605B138E02346204A40F606011F
:1057C000A06FFEF79DFA054605B128E054F8780F62
:1057D000FEF7F4F8E0610120E0620620206354F84F
:1057E000780904F1AC01FEF7FCF894F8AC0005F080
:1057F000C5F9AD21085D05F0C1F9AE21085D05F0E0
:10580000BDF9AF21085D05F0B9F9B021085D05F0DB
:10581000B5F9B121085D05F0B1F9002070BD4FF474
:105820000061A06FFDF7DCFF00BF2046FBF784FCA2
:1058300000BF2846F2E700009159000079590000A6
:105840002DE9FC5F81460F4692463C46A068401C0D
:10585000A060A06DD9F808100144A165484604F085
:1058600009FB054645B9E068401CE0604846D9F8A8
:1058700000108847BDE8FC9FEE68307800F001001A
:10588000F8B13078FF2815D17078FF2812D1B078A0
:10589000FF280FD1F078FF280CD13079FF2809D1EB
:1058A0007079FF2806D1606E401C60660220C5F842
:1058B00030010CE0206E401C20660420C5F8300149
:1058C00005E0E06D401CE0650120C5F830014FF0B7
:1058D0000E0B5946284604F0A3FC8046B8F1000F91
:1058E0000CD06069401C60612A46414604F12800E2
:1058F00005F05FF9686801688847BBE705F5A470A3
:1059000005F58071D1E91223096DC0E903234161D6
:10591000C5F83471B0798DF80000F0798DF8010088
:10592000307A8DF80200707A8DF80300B07A8DF825
:105930000400F07A8DF8050095F8300100F00200BF
:1059400068B1062204F1AC016846FAF73CFF30B9B1
:105950002069401C20616868016888478AE75146D1
:10596000284604F04CFD28B9E068401CE0606868F7
:105970000168884700BF7DE770B504460D46034ABD
:1059800029462046FFF75CFF70BD0000911800001B
:1059900070B504460D46034A29462046FFF750FFDE
:1059A00070BD0000F97800002DE9F84F05460C465F
:1059B000174698464FF00E094FF0000A4946204618
:1059C00004F0E6FB0646A86EA1680144A96676B11C
:1059D000686A401C68622246314605F1400005F0C5
:1059E000E8F86068016888473046BDE8F88F61686C
:1059F000D4F884008860E1686068C160CDF800A0D8
:105A0000616843463A46A86FFEF7DEF9064646B19E
:105A1000686A401C68622246314605F1400005F084
:105A2000C8F83046E1E77CB504460D46A069401C45
:105A3000A061606F401C6067FF208DF800008DF84A
:105A400001008DF802008DF803008DF804008DF838
:105A500005006B4640F6060229462046FFF7A4FFE4
:105A60007CBD70B504460E461546A069401CA06179
:105A7000E06E401CE0662B4640F6060231462046AA
:105A8000FFF792FF70BD2DE9FC4704460F46904694
:105A90001D46DDF82890A069401CA061681C80B9F3
:105AA000606F401C6067FF208DF800008DF80100DA
:105AB0008DF802008DF803008DF804008DF80500C4
:105AC00028E005F07040B0F1604F16D1206F401C07
:105AD000206701208DF8000000208DF801005E2075
:105AE0008DF80200C5F306408DF80300280A8DF8F2
:105AF0000400E8B28DF805000CE0E06E401CE066A2
:105B00002B46424639462046FBF7BCFD064630464A
:105B1000BDE8FC876B464FF4006239462046FFF72C
:105B200043FF06463046F3E770B505460E46144679
:105B300023464FF4006231462846FFF735FF70BD1B
:105B400070B50546DC2004F0D7FE04462CB941F2BE
:105B50000251284604F006FC70BD41F20D012046BA
:105B600018F05AF9A868A067182204F17C00296986
:105B7000FAF7F8FE20461FF08BFA2046E16F8847BF
:105B8000064656B120461FF091FA204618F016F846
:105B90003146284604F0E6FBDEE72046FFF75CF9D5
:105BA000EC600021284604F0DDFB00BFD4E72DE9BE
:105BB000F04104460027E06830B941F20511204663
:105BC00004F0D0FBBDE8F0816669256AE843401C1B
:105BD000A84328B141F20651204604F0C3FBF1E787
:105BE00026EA050020B126EA0500E943884205D1EE
:105BF00041F20551204604F0B5FBE3E794F8240098
:105C000060B132463146E068FBF70CFD08B141F265
:105C100032173946204604F0A5FB02E0204600F08A
:105C200003F800BFCEE7000070B50446002594F8E5
:105C3000240030B16169E068FBF770FC08B141F203
:105C4000336535B9E3681A46216A606900F042FF9E
:105C5000054645B90C49E26860690B684FF0FF31B1
:105C600000F038FF054625B12946204604F07AFBAE
:105C700070BD6169E068FFF7FBF82946204604F033
:105C800071FB00BFF4E700001803FF1FF8B50446DE
:105C9000256AE843401CA84328B141F2065120463A
:105CA00004F060FBF8BD208B80B2009002232946EF
:105CB000E269606900F062FF06463146204604F062
:105CC00051FB00BFEEE7F8B50446256AE843401CE7
:105CD000A84328B141F20651204604F043FBF8BD29
:105CE000208B80B2009004232946E269606900F0AD
:105CF00045FF06463146204604F034FB00BFEEE780
:105D000038B50446208B80B200900223D4E90721E5
:105D1000606901F085FA0021204604F023FB38BDBC
:105D200070B50446E56880204159284688470646F4
:105D300028461FF0BBF9284617F040FF31462046A1
:105D400004F010FB70BD38B504464FF0FF31E26837
:105D5000606901F03FFAE06820B16169E068D0F85D
:105D6000D02090476A466169E06800F01BFD00980A
:105D7000012804D0E2686069009901F02BFA002143
:105D8000204604F0EFFA38BD0146002070470000BD
:105D900010B58AB0002002900848006804900849B5
:105DA000684604F0F7FA044614B120460AB010BD64
:105DB0000449039808600020F8E70000388A0200D0
:105DC000415B00001803FF1F01464FF6FF7041F8CA
:105DD000940F0020486008614861943970470000C2
:105DE0002DE9F05F81460C4692469B46DDF82880FF
:105DF000012018F0C9FBC568E6682449D4F83401CD
:105E00000968884213D12868401C28602049204630
:105E100004F0F5FA48B96868401C68606068016879
:105E200088474FF48950BDE8F09F00272BE0F079B8
:105E3000B17940EA0120C0F30D0050B1D5F88800D7
:105E4000401CC5F8880060680168884741F224104A
:105E5000E9E7D4F8340190F8D80000F0080070B1F8
